{"abi":[{"type":"function","name":"MAXIMUM_DELTA","inputs":[],"outputs":[{"name":"","type":"int256","internalType":"BalanceDelta"}],"stateMutability":"view"}],"bytecode":{"object":"0x6084610033600b8282823980515f1a607314602757634e487b7160e01b5f525f60045260245ffd5b305f52607381538281f3fe73000000000000000000000000000000000000000030146080604052600436106031575f3560e01c8062cc10c3146035575b5f80fd5b603c5f1981565b60405190815260200160405180910390f3fea2646970667358221220fe9c009885b62626929b38414ffb743456daa88bcc6bc506520146178e950dba64736f6c63430008180033","linkReferences":{}},"methodIdentifiers":{"MAXIMUM_DELTA()":"00cc10c3"},"id":81}