{"abi":[{"type":"receive","stateMutability":"payable"},{"type":"function","name":"DOMAIN_SEPARATOR","inputs":[],"outputs":[{"name":"","type":"bytes32","internalType":"bytes32"}],"stateMutability":"view"},{"type":"function","name":"allowance","inputs":[{"name":"","type":"address","internalType":"address"},{"name":"","type":"address","internalType":"address"}],"outputs":[{"name":"","type":"uint256","internalType":"uint256"}],"stateMutability":"view"},{"type":"function","name":"approve","inputs":[{"name":"spender","type":"address","internalType":"address"},{"name":"amount","type":"uint256","internalType":"uint256"}],"outputs":[{"name":"","type":"bool","internalType":"bool"}],"stateMutability":"nonpayable"},{"type":"function","name":"balanceOf","inputs":[{"name":"","type":"address","internalType":"address"}],"outputs":[{"name":"","type":"uint256","internalType":"uint256"}],"stateMutability":"view"},{"type":"function","name":"decimals","inputs":[],"outputs":[{"name":"","type":"uint8","internalType":"uint8"}],"stateMutability":"view"},{"type":"function","name":"deposit","inputs":[],"outputs":[],"stateMutability":"payable"},{"type":"function","name":"name","inputs":[],"outputs":[{"name":"","type":"string","internalType":"string"}],"stateMutability":"view"},{"type":"function","name":"nonces","inputs":[{"name":"","type":"address","internalType":"address"}],"outputs":[{"name":"","type":"uint256","internalType":"uint256"}],"stateMutability":"view"},{"type":"function","name":"permit","inputs":[{"name":"owner","type":"address","internalType":"address"},{"name":"spender","type":"address","internalType":"address"},{"name":"value","type":"uint256","internalType":"uint256"},{"name":"deadline","type":"uint256","internalType":"uint256"},{"name":"v","type":"uint8","internalType":"uint8"},{"name":"r","type":"bytes32","internalType":"bytes32"},{"name":"s","type":"bytes32","internalType":"bytes32"}],"outputs":[],"stateMutability":"nonpayable"},{"type":"function","name":"symbol","inputs":[],"outputs":[{"name":"","type":"string","internalType":"string"}],"stateMutability":"view"},{"type":"function","name":"totalSupply","inputs":[],"outputs":[{"name":"","type":"uint256","internalType":"uint256"}],"stateMutability":"view"},{"type":"function","name":"transfer","inputs":[{"name":"to","type":"address","internalType":"address"},{"name":"amount","type":"uint256","internalType":"uint256"}],"outputs":[{"name":"","type":"bool","internalType":"bool"}],"stateMutability":"nonpayable"},{"type":"function","name":"transferFrom","inputs":[{"name":"from","type":"address","internalType":"address"},{"name":"to","type":"address","internalType":"address"},{"name":"amount","type":"uint256","internalType":"uint256"}],"outputs":[{"name":"","type":"bool","internalType":"bool"}],"stateMutability":"nonpayable"},{"type":"function","name":"withdraw","inputs":[{"name":"amount","type":"uint256","internalType":"uint256"}],"outputs":[],"stateMutability":"nonpayable"},{"type":"event","name":"Approval","inputs":[{"name":"owner","type":"address","indexed":true,"internalType":"address"},{"name":"spender","type":"address","indexed":true,"internalType":"address"},{"name":"amount","type":"uint256","indexed":false,"internalType":"uint256"}],"anonymous":false},{"type":"event","name":"Deposit","inputs":[{"name":"from","type":"address","indexed":true,"internalType":"address"},{"name":"amount","type":"uint256","indexed":false,"internalType":"uint256"}],"anonymous":false},{"type":"event","name":"Transfer","inputs":[{"name":"from","type":"address","indexed":true,"internalType":"address"},{"name":"to","type":"address","indexed":true,"internalType":"address"},{"name":"amount","type":"uint256","indexed":false,"internalType":"uint256"}],"anonymous":false},{"type":"event","name":"Withdrawal","inputs":[{"name":"to","type":"address","indexed":true,"internalType":"address"},{"name":"amount","type":"uint256","indexed":false,"internalType":"uint256"}],"anonymous":false}],"bytecode":{"object":"0x60e060405234801562000010575f80fd5b506040518060400160405280600d81526020016c2bb930b83832b21022ba3432b960991b815250604051806040016040528060048152602001630ae8aa8960e31b8152506012825f9081620000669190620001d0565b506001620000758382620001d0565b5060ff81166080524660a0526200008b62000098565b60c0525062000316915050565b5f7f8b73c3c69bb8fe3d512ecc4cf759cc79239f7b179b0ffacaa9a75d522b39400f5f604051620000ca91906200029c565b6040805191829003822060208301939093528101919091527fc89efdaa54c0f20c7adf612882df0950f5a951637e0307cdcb4c672f298b8bc660608201524660808201523060a082015260c00160405160208183030381529060405280519060200120905090565b634e487b7160e01b5f52604160045260245ffd5b600181811c908216806200015b57607f821691505b6020821081036200017a57634e487b7160e01b5f52602260045260245ffd5b50919050565b601f821115620001cb57805f5260205f20601f840160051c81016020851015620001a75750805b601f840160051c820191505b81811015620001c8575f8155600101620001b3565b50505b505050565b81516001600160401b03811115620001ec57620001ec62000132565b6200020481620001fd845462000146565b8462000180565b602080601f8311600181146200023a575f8415620002225750858301515b5f19600386901b1c1916600185901b17855562000294565b5f85815260208120601f198616915b828110156200026a5788860151825594840194600190910190840162000249565b50858210156200028857878501515f19600388901b60f8161c191681555b505060018460011b0185555b505050505050565b5f808354620002ab8162000146565b60018281168015620002c65760018114620002dc576200030a565b60ff19841687528215158302870194506200030a565b875f526020805f205f5b85811015620003015781548a820152908401908201620002e6565b50505082870194505b50929695505050505050565b60805160a05160c051610d3c620003415f395f61059101525f61055c01525f6101ba0152610d3c5ff3fe6080604052600436106100dc575f3560e01c806370a082311161007c578063a9059cbb11610057578063a9059cbb1461026c578063d0e30db01461028b578063d505accf14610293578063dd62ed3e146102b2575f80fd5b806370a08231146102025780637ecebe001461022d57806395d89b4114610258575f80fd5b806323b872dd116100b757806323b872dd1461016b5780632e1a7d4d1461018a578063313ce567146101a95780633644e515146101ee575f80fd5b806306fdde03146100ef578063095ea7b31461011957806318160ddd14610148575f80fd5b366100eb576100e96102e8565b005b5f80fd5b3480156100fa575f80fd5b50610103610329565b6040516101109190610a59565b60405180910390f35b348015610124575f80fd5b50610138610133366004610ac0565b6103b4565b6040519015158152602001610110565b348015610153575f80fd5b5061015d60025481565b604051908152602001610110565b348015610176575f80fd5b50610138610185366004610ae8565b610420565b348015610195575f80fd5b506100e96101a4366004610b21565b61050d565b3480156101b4575f80fd5b506101dc7f000000000000000000000000000000000000000000000000000000000000000081565b60405160ff9091168152602001610110565b3480156101f9575f80fd5b5061015d610559565b34801561020d575f80fd5b5061015d61021c366004610b38565b60036020525f908152604090205481565b348015610238575f80fd5b5061015d610247366004610b38565b60056020525f908152604090205481565b348015610263575f80fd5b506101036105b3565b348015610277575f80fd5b50610138610286366004610ac0565b6105c0565b6100e96102e8565b34801561029e575f80fd5b506100e96102ad366004610b58565b610636565b3480156102bd575f80fd5b5061015d6102cc366004610bc5565b600460209081525f928352604080842090915290825290205481565b6102f23334610888565b60405134815233907fe1fffcc4923d04b559f4d29a8bfc6cda04eb5b0d3c460751c2402c5c5cc9109c9060200160405180910390a2565b5f805461033590610bf6565b80601f016020809104026020016040519081016040528092919081815260200182805461036190610bf6565b80156103ac5780601f10610383576101008083540402835291602001916103ac565b820191905f5260205f20905b81548152906001019060200180831161038f57829003601f168201915b505050505081565b335f8181526004602090815260408083206001600160a01b038716808552925280832085905551919290917f8c5be1e5ebec7d5bd14f71427d1e84f3dd0314c0f7b2291e5b200ac8c7c3b9259061040e9086815260200190565b60405180910390a35060015b92915050565b6001600160a01b0383165f9081526004602090815260408083203384529091528120545f198114610479576104558382610c42565b6001600160a01b0386165f9081526004602090815260408083203384529091529020555b6001600160a01b0385165f90815260036020526040812080548592906104a0908490610c42565b90915550506001600160a01b038085165f81815260036020526040908190208054870190555190918716907fddf252ad1be2c89b69c2b068fc378daa952ba7f163c4a11628f55a4df523b3ef906104fa9087815260200190565b60405180910390a3506001949350505050565b61051733826108f2565b60405181815233907f7fcf532c15f0a6db0bd6d0e038bea71d30d808c7d98cb3bf7268a95bf5081b659060200160405180910390a26105563382610964565b50565b5f7f0000000000000000000000000000000000000000000000000000000000000000461461058e576105896109c1565b905090565b507f000000000000000000000000000000000000000000000000000000000000000090565b6001805461033590610bf6565b335f908152600360205260408120805483919083906105e0908490610c42565b90915550506001600160a01b0383165f81815260036020526040908190208054850190555133907fddf252ad1be2c89b69c2b068fc378daa952ba7f163c4a11628f55a4df523b3ef9061040e9086815260200190565b4284101561068b5760405162461bcd60e51b815260206004820152601760248201527f5045524d49545f444541444c494e455f4558504952454400000000000000000060448201526064015b60405180910390fd5b5f6001610696610559565b6001600160a01b038a81165f8181526005602090815260409182902080546001810190915582517f6e71edae12b1b97f4d1f60370fef10105fa2faae0126114a169c64845d6126c98184015280840194909452938d166060840152608083018c905260a083019390935260c08083018b90528151808403909101815260e08301909152805192019190912061190160f01b6101008301526101028201929092526101228101919091526101420160408051601f1981840301815282825280516020918201205f84529083018083525260ff871690820152606081018590526080810184905260a0016020604051602081039080840390855afa15801561079e573d5f803e3d5ffd5b5050604051601f1901519150506001600160a01b038116158015906107d45750876001600160a01b0316816001600160a01b0316145b6108205760405162461bcd60e51b815260206004820152600e60248201527f494e56414c49445f5349474e45520000000000000000000000000000000000006044820152606401610682565b6001600160a01b039081165f9081526004602090815260408083208a8516808552908352928190208990555188815291928a16917f8c5be1e5ebec7d5bd14f71427d1e84f3dd0314c0f7b2291e5b200ac8c7c3b925910160405180910390a350505050505050565b8060025f8282546108999190610c55565b90915550506001600160a01b0382165f818152600360209081526040808320805486019055518481527fddf252ad1be2c89b69c2b068fc378daa952ba7f163c4a11628f55a4df523b3ef91015b60405180910390a35050565b6001600160a01b0382165f9081526003602052604081208054839290610919908490610c42565b90915550506002805482900390556040518181525f906001600160a01b038416907fddf252ad1be2c89b69c2b068fc378daa952ba7f163c4a11628f55a4df523b3ef906020016108e6565b5f805f805f85875af19050806109bc5760405162461bcd60e51b815260206004820152601360248201527f4554485f5452414e534645525f4641494c4544000000000000000000000000006044820152606401610682565b505050565b5f7f8b73c3c69bb8fe3d512ecc4cf759cc79239f7b179b0ffacaa9a75d522b39400f5f6040516109f19190610c68565b6040805191829003822060208301939093528101919091527fc89efdaa54c0f20c7adf612882df0950f5a951637e0307cdcb4c672f298b8bc660608201524660808201523060a082015260c00160405160208183030381529060405280519060200120905090565b5f602080835283518060208501525f5b81811015610a8557858101830151858201604001528201610a69565b505f604082860101526040601f19601f8301168501019250505092915050565b80356001600160a01b0381168114610abb575f80fd5b919050565b5f8060408385031215610ad1575f80fd5b610ada83610aa5565b946020939093013593505050565b5f805f60608486031215610afa575f80fd5b610b0384610aa5565b9250610b1160208501610aa5565b9150604084013590509250925092565b5f60208284031215610b31575f80fd5b5035919050565b5f60208284031215610b48575f80fd5b610b5182610aa5565b9392505050565b5f805f805f805f60e0888a031215610b6e575f80fd5b610b7788610aa5565b9650610b8560208901610aa5565b95506040880135945060608801359350608088013560ff81168114610ba8575f80fd5b9699959850939692959460a0840135945060c09093013592915050565b5f8060408385031215610bd6575f80fd5b610bdf83610aa5565b9150610bed60208401610aa5565b90509250929050565b600181811c90821680610c0a57607f821691505b602082108103610c2857634e487b7160e01b5f52602260045260245ffd5b50919050565b634e487b7160e01b5f52601160045260245ffd5b8181038181111561041a5761041a610c2e565b8082018082111561041a5761041a610c2e565b5f8083545f60018260011c91506001831680610c8557607f831692505b60208084108203610ca457634e487b7160e01b5f52602260045260245ffd5b818015610cb85760018114610ccd57610cf8565b60ff1986168952841515850289019650610cf8565b5f8a8152602090205f5b86811015610cf05781548b820152908501908301610cd7565b505084890196505b50949897505050505050505056fea26469706673582212201f4374a756cb6fdba75282a4d00899eb36a35cc3c03ba0eaff7980001c625fba64736f6c63430008180033","linkReferences":{}},"methodIdentifiers":{"DOMAIN_SEPARATOR()":"3644e515","allowance(address,address)":"dd62ed3e","approve(address,uint256)":"095ea7b3","balanceOf(address)":"70a08231","decimals()":"313ce567","deposit()":"d0e30db0","name()":"06fdde03","nonces(address)":"7ecebe00","permit(address,address,uint256,uint256,uint8,bytes32,bytes32)":"d505accf","symbol()":"95d89b41","totalSupply()":"18160ddd","transfer(address,uint256)":"a9059cbb","transferFrom(address,address,uint256)":"23b872dd","withdraw(uint256)":"2e1a7d4d"},"id":41}