{"abi":[{"type":"receive","stateMutability":"payable"},{"type":"function","name":"accountPoolBalanceDelta","inputs":[{"name":"key","type":"tuple","internalType":"struct PoolKey","components":[{"name":"currency0","type":"address","internalType":"Currency"},{"name":"currency1","type":"address","internalType":"Currency"},{"name":"hooks","type":"address","internalType":"contract IHooks"},{"name":"poolManager","type":"address","internalType":"contract IPoolManager"},{"name":"fee","type":"uint24","internalType":"uint24"},{"name":"parameters","type":"bytes32","internalType":"bytes32"}]},{"name":"delta","type":"int256","internalType":"BalanceDelta"},{"name":"settler","type":"address","internalType":"address"}],"outputs":[],"stateMutability":"nonpayable"},{"type":"function","name":"allowance","inputs":[{"name":"","type":"address","internalType":"address"},{"name":"","type":"address","internalType":"address"},{"name":"currency","type":"address","internalType":"Currency"}],"outputs":[{"name":"","type":"uint256","internalType":"uint256"}],"stateMutability":"view"},{"type":"function","name":"approve","inputs":[{"name":"spender","type":"address","internalType":"address"},{"name":"currency","type":"address","internalType":"Currency"},{"name":"amount","type":"uint256","internalType":"uint256"}],"outputs":[{"name":"","type":"bool","internalType":"bool"}],"stateMutability":"nonpayable"},{"type":"function","name":"balanceOf","inputs":[{"name":"","type":"address","internalType":"address"},{"name":"currency","type":"address","internalType":"Currency"}],"outputs":[{"name":"","type":"uint256","internalType":"uint256"}],"stateMutability":"view"},{"type":"function","name":"burn","inputs":[{"name":"currency","type":"address","internalType":"Currency"},{"name":"amount","type":"uint256","internalType":"uint256"}],"outputs":[],"stateMutability":"nonpayable"},{"type":"function","name":"collectFee","inputs":[{"name":"currency","type":"address","internalType":"Currency"},{"name":"amount","type":"uint256","internalType":"uint256"},{"name":"recipient","type":"address","internalType":"address"}],"outputs":[],"stateMutability":"nonpayable"},{"type":"function","name":"currencyDelta","inputs":[{"name":"settler","type":"address","internalType":"address"},{"name":"currency","type":"address","internalType":"Currency"}],"outputs":[{"name":"","type":"int256","internalType":"int256"}],"stateMutability":"view"},{"type":"function","name":"getLocker","inputs":[],"outputs":[{"name":"","type":"address","internalType":"address"}],"stateMutability":"view"},{"type":"function","name":"getUnsettledDeltasCount","inputs":[],"outputs":[{"name":"","type":"uint256","internalType":"uint256"}],"stateMutability":"view"},{"type":"function","name":"isOperator","inputs":[{"name":"","type":"address","internalType":"address"},{"name":"","type":"address","internalType":"address"}],"outputs":[{"name":"","type":"bool","internalType":"bool"}],"stateMutability":"view"},{"type":"function","name":"isPoolManagerRegistered","inputs":[{"name":"","type":"address","internalType":"address"}],"outputs":[{"name":"","type":"bool","internalType":"bool"}],"stateMutability":"view"},{"type":"function","name":"lock","inputs":[{"name":"data","type":"bytes","internalType":"bytes"}],"outputs":[{"name":"result","type":"bytes","internalType":"bytes"}],"stateMutability":"nonpayable"},{"type":"function","name":"mint","inputs":[{"name":"currency","type":"address","internalType":"Currency"},{"name":"to","type":"address","internalType":"address"},{"name":"amount","type":"uint256","internalType":"uint256"}],"outputs":[],"stateMutability":"nonpayable"},{"type":"function","name":"owner","inputs":[],"outputs":[{"name":"","type":"address","internalType":"address"}],"stateMutability":"view"},{"type":"function","name":"registerPoolManager","inputs":[{"name":"poolManager","type":"address","internalType":"address"}],"outputs":[],"stateMutability":"nonpayable"},{"type":"function","name":"renounceOwnership","inputs":[],"outputs":[],"stateMutability":"nonpayable"},{"type":"function","name":"reservesOfPoolManager","inputs":[{"name":"poolManager","type":"address","internalType":"contract IPoolManager"},{"name":"currency","type":"address","internalType":"Currency"}],"outputs":[{"name":"reserve","type":"uint256","internalType":"uint256"}],"stateMutability":"view"},{"type":"function","name":"reservesOfVault","inputs":[{"name":"currency","type":"address","internalType":"Currency"}],"outputs":[{"name":"","type":"uint256","internalType":"uint256"}],"stateMutability":"view"},{"type":"function","name":"setOperator","inputs":[{"name":"operator","type":"address","internalType":"address"},{"name":"approved","type":"bool","internalType":"bool"}],"outputs":[{"name":"","type":"bool","internalType":"bool"}],"stateMutability":"nonpayable"},{"type":"function","name":"settle","inputs":[{"name":"currency","type":"address","internalType":"Currency"}],"outputs":[{"name":"paid","type":"uint256","internalType":"uint256"}],"stateMutability":"payable"},{"type":"function","name":"settleFor","inputs":[{"name":"currency","type":"address","internalType":"Currency"},{"name":"target","type":"address","internalType":"address"},{"name":"amount","type":"uint256","internalType":"uint256"}],"outputs":[],"stateMutability":"nonpayable"},{"type":"function","name":"supportsInterface","inputs":[{"name":"interfaceId","type":"bytes4","internalType":"bytes4"}],"outputs":[{"name":"","type":"bool","internalType":"bool"}],"stateMutability":"view"},{"type":"function","name":"take","inputs":[{"name":"currency","type":"address","internalType":"Currency"},{"name":"to","type":"address","internalType":"address"},{"name":"amount","type":"uint256","internalType":"uint256"}],"outputs":[],"stateMutability":"nonpayable"},{"type":"function","name":"transfer","inputs":[{"name":"receiver","type":"address","internalType":"address"},{"name":"currency","type":"address","internalType":"Currency"},{"name":"amount","type":"uint256","internalType":"uint256"}],"outputs":[{"name":"","type":"bool","internalType":"bool"}],"stateMutability":"nonpayable"},{"type":"function","name":"transferFrom","inputs":[{"name":"sender","type":"address","internalType":"address"},{"name":"receiver","type":"address","internalType":"address"},{"name":"currency","type":"address","internalType":"Currency"},{"name":"amount","type":"uint256","internalType":"uint256"}],"outputs":[{"name":"","type":"bool","internalType":"bool"}],"stateMutability":"nonpayable"},{"type":"function","name":"transferOwnership","inputs":[{"name":"newOwner","type":"address","internalType":"address"}],"outputs":[],"stateMutability":"nonpayable"},{"type":"event","name":"Approval","inputs":[{"name":"owner","type":"address","indexed":true,"internalType":"address"},{"name":"spender","type":"address","indexed":true,"internalType":"address"},{"name":"currency","type":"address","indexed":true,"internalType":"Currency"},{"name":"amount","type":"uint256","indexed":false,"internalType":"uint256"}],"anonymous":false},{"type":"event","name":"OperatorSet","inputs":[{"name":"owner","type":"address","indexed":true,"internalType":"address"},{"name":"operator","type":"address","indexed":true,"internalType":"address"},{"name":"approved","type":"bool","indexed":false,"internalType":"bool"}],"anonymous":false},{"type":"event","name":"OwnershipTransferred","inputs":[{"name":"previousOwner","type":"address","indexed":true,"internalType":"address"},{"name":"newOwner","type":"address","indexed":true,"internalType":"address"}],"anonymous":false},{"type":"event","name":"PoolManagerRegistered","inputs":[{"name":"poolManager","type":"address","indexed":true,"internalType":"address"}],"anonymous":false},{"type":"event","name":"Transfer","inputs":[{"name":"caller","type":"address","indexed":false,"internalType":"address"},{"name":"from","type":"address","indexed":true,"internalType":"address"},{"name":"to","type":"address","indexed":true,"internalType":"address"},{"name":"currency","type":"address","indexed":true,"internalType":"Currency"},{"name":"amount","type":"uint256","indexed":false,"internalType":"uint256"}],"anonymous":false},{"type":"error","name":"CurrencyNotSettled","inputs":[]},{"type":"error","name":"ERC20TransferFailed","inputs":[]},{"type":"error","name":"LockerAlreadySet","inputs":[{"name":"locker","type":"address","internalType":"address"}]},{"type":"error","name":"NativeTransferFailed","inputs":[]},{"type":"error","name":"NoLocker","inputs":[]},{"type":"error","name":"NotFromPoolManager","inputs":[]},{"type":"error","name":"PoolManagerUnregistered","inputs":[]},{"type":"error","name":"SafeCastOverflow","inputs":[]}],"bytecode":{"object":"0x608060405234801561000f575f80fd5b506100193361001e565b61006f565b600380546001600160a01b038381166001600160a01b0319831681179093556040519116919082907f8be0079c531659141344cd1fd0a4f28419497f9722a3daafe3b4186f6b6457e0905f90a35050565b6119ce8061007c5f395ff3fe60806040526004361061019c575f3560e01c80638da5cb5b116100dc578063beabacc811610087578063eb78b43511610062578063eb78b435146104dd578063f2fde38b146104fc578063f7888aec1461051b578063fda4289214610551575f80fd5b8063beabacc814610480578063c6c3bbe61461049f578063e1f21c67146104be575f80fd5b8063a54b2831116100b7578063a54b28311461040c578063b6363cf21461042b578063bba4213014610461575f80fd5b80638da5cb5b14610394578063927da105146103b15780639dc29fac146103ed575f80fd5b806336fd6911116101475780635d4e0ced116101225780635d4e0ced146103155780636a256b2914610341578063715018a6146103545780638154831914610368575f80fd5b806336fd6911146102925780634f412c84146102c0578063558a7297146102f6575f80fd5b806315dacbea1161017757806315dacbea146102355780631d4631a4146102545780633014515414610273575f80fd5b806301ffc9a7146101a75780630b0d9c09146101db578063131dfb8b146101fc575f80fd5b366101a357005b5f80fd5b3480156101b2575f80fd5b506101c66101c1366004611474565b610565565b60405190151581526020015b60405180910390f35b3480156101e6575f80fd5b506101fa6101f53660046114ba565b61059b565b005b348015610207575f80fd5b506102276102163660046114f8565b60056020525f908152604090205481565b6040519081526020016101d2565b348015610240575f80fd5b506101c661024f366004611513565b610626565b34801561025f575f80fd5b506101fa61026e3660046114ba565b6107a3565b34801561027e575f80fd5b506101fa61028d36600461159e565b610813565b34801561029d575f80fd5b506101c66102ac3660046114f8565b60046020525f908152604090205460ff1681565b3480156102cb575f80fd5b506102276102da366004611650565b600660209081525f928352604080842090915290825290205481565b348015610301575f80fd5b506101c6610310366004611687565b6108ff565b348015610320575f80fd5b5061032961096c565b6040516001600160a01b0390911681526020016101d2565b61022761034f3660046114f8565b61097a565b34801561035f575f80fd5b506101fa610a07565b348015610373575f80fd5b506103876103823660046116b7565b610a1a565b6040516101d29190611745565b34801561039f575f80fd5b506003546001600160a01b0316610329565b3480156103bc575f80fd5b506102276103cb366004611777565b600260209081525f938452604080852082529284528284209052825290205481565b3480156103f8575f80fd5b506101fa6104073660046117bf565b610abd565b348015610417575f80fd5b50610227610426366004611650565b610b09565b348015610436575f80fd5b506101c6610445366004611650565b5f60208181529281526040808220909352908152205460ff1681565b34801561046c575f80fd5b506101fa61047b3660046114f8565b610b1b565b34801561048b575f80fd5b506101c661049a3660046114ba565b610b6e565b3480156104aa575f80fd5b506101fa6104b93660046114ba565b610c37565b3480156104c9575f80fd5b506101c66104d83660046114ba565b610c7f565b3480156104e8575f80fd5b506101fa6104f73660046117e9565b610ce6565b348015610507575f80fd5b506101fa6105163660046114f8565b610d5e565b348015610526575f80fd5b50610227610535366004611650565b600160209081525f928352604080842090915290825290205481565b34801561055c575f80fd5b50610227610df3565b5f6301ffc9a760e01b6001600160e01b03198316148061059557506359734fc560e11b6001600160e01b03198316145b92915050565b5f6105a4610dfc565b6001600160a01b0316036105ca57604051625185ab60e41b815260040160405180910390fd5b6105e033846105d884610e30565b600f0b610e66565b6001600160a01b0383165f9081526005602052604081208054839290610607908490611831565b9091555061062190506001600160a01b0384168383610f55565b505050565b5f336001600160a01b0386161480159061066157506001600160a01b0385165f9081526020818152604080832033845290915290205460ff16155b156106d5576001600160a01b038086165f9081526002602090815260408083203384528252808320938716835292905220545f1981146106d3576106a58382611831565b6001600160a01b038088165f9081526002602090815260408083203384528252808320938916835292905220555b505b6001600160a01b038086165f9081526001602090815260408083209387168352929052908120805484929061070b908490611831565b90915550506001600160a01b038085165f90815260016020908152604080832093871683529290529081208054849290610746908490611844565b909155505060408051338152602081018490526001600160a01b038086169287821692918916917f5b21a3c624a398df3917a0a930f91e3837519b8eab3302b834746433065f2959910160405180910390a4506001949350505050565b5f6107ac610dfc565b6001600160a01b0316036107d257604051625185ab60e41b815260040160405180910390fd5b805f036107ee576107eb6107e68385610fed565b611060565b90505b6107fc33846105d884610e30565b610621828461080a84610e30565b6105d890611857565b5f61081c610dfc565b6001600160a01b03160361084257604051625185ab60e41b815260040160405180910390fd5b60608301516001600160a01b03811633146108705760405163decf93f360e01b815260040160405180910390fd5b335f9081526004602052604090205460ff1661089f576040516359bc528960e01b815260040160405180910390fd5b5f6108aa8460801c90565b6060860151865191925085916108c1919084611082565b6108d48660600151876020015183611082565b6108e584875f015184600f0b610e66565b6108f784876020015183600f0b610e66565b505050505050565b335f818152602081815260408083206001600160a01b038716808552908352818420805460ff191687151590811790915591519182529293917fceb576d9f15e4e200fdb5096d64d5dfd667e16def20c1eefd14256d8e3faa267910160405180910390a350600192915050565b5f610975610dfc565b905090565b5f80610984610dfc565b6001600160a01b0316036109aa57604051625185ab60e41b815260040160405180910390fd5b6001600160a01b0382165f81815260056020526040902054906109cc9061114d565b6001600160a01b0384165f9081526005602052604090208190556109f1908290611831565b9150610a01338461080a85610e30565b50919050565b610a0f6111ce565b610a185f611228565b565b6060610a2533611291565b6040516355b148ff60e11b8152339063ab6291fe90610a4a9086908690600401611884565b5f604051808303815f875af1158015610a65573d5f803e3d5ffd5b505050506040513d5f823e601f3d908101601f19168201604052610a8c91908101906118b2565b9050610a96611338565b15610ab457604051635212cba160e01b815260040160405180910390fd5b6105955f611291565b5f610ac6610dfc565b6001600160a01b031603610aec57604051625185ab60e41b815260040160405180910390fd5b610afa338361080a84610e30565b610b05338383611365565b5050565b5f610b148383610fed565b9392505050565b610b236111ce565b6001600160a01b0381165f81815260046020526040808220805460ff19166001179055517f6754e378954255508c56bc22c261c32e6df54b79033ed6d954fbebce59c1f8409190a250565b335f9081526001602090815260408083206001600160a01b0386168452909152812080548391908390610ba2908490611831565b90915550506001600160a01b038085165f90815260016020908152604080832093871683529290529081208054849290610bdd908490611844565b90915550506040805133808252602082018590526001600160a01b0380871693908816927f5b21a3c624a398df3917a0a930f91e3837519b8eab3302b834746433065f295991015b60405180910390a45060019392505050565b5f610c40610dfc565b6001600160a01b031603610c6657604051625185ab60e41b815260040160405180910390fd5b610c7433846105d884610e30565b6106218284836113f1565b335f8181526002602090815260408083206001600160a01b0388811680865291845282852090881680865290845282852087905591518681529394919390927fa0175360a15bca328baf7ea85c7b784d58b222a50d0ce760b10dba336d226a619101610c25565b335f9081526006602090815260408083206001600160a01b038716845290915281208054849290610d18908490611831565b90915550506001600160a01b0383165f9081526005602052604081208054849290610d44908490611831565b9091555061062190506001600160a01b0384168284610f55565b610d666111ce565b6001600160a01b038116610de75760405162461bcd60e51b815260206004820152602660248201527f4f776e61626c653a206e6577206f776e657220697320746865207a65726f206160448201527f646472657373000000000000000000000000000000000000000000000000000060648201526084015b60405180910390fd5b610df081611228565b50565b5f610975611338565b5f80610e2960017fedda7c051899c54dd66eaf5e13c031326ab4729812a579bed198ab93fd313d71611831565b5c92915050565b5f6f7fffffffffffffffffffffffffffffff821115610e62576040516393dafdf160e01b815260040160405180910390fd5b5090565b805f03610e7257505050565b5f610e9e60017f6dc13502b9ba2a9e8e42c53a1856d632b29d5aab3bcb4a2476bfec06cbd9cf23611831565b90505f610ecc60017fa88ffc6a483ae852b901fb1c3a0df606e2e4461b493434e6643ebdc3ffabd152611831565b90505f610ed98686610fed565b90505f610ee6858361195a565b9050805f03610efb576001835c03835d610f0a565b815f03610f0a576001835c01835d5b604080516001600160a01b03898116602080840191909152908916828401526060808301889052835180840390910181526080909201909252805191012081815d5050505050505050565b5f6001600160a01b038416610f91575f805f8085875af1905080610f8c57604051633d2cec6f60e21b815260040160405180910390fd5b610fe7565b60405163a9059cbb60e01b5f52836004528260245260205f60445f80895af13d15601f3d1160015f511416171691505f606052806040525080610fe757604051633c9fd93960e21b815260040160405180910390fd5b50505050565b5f8061101a60017f6dc13502b9ba2a9e8e42c53a1856d632b29d5aab3bcb4a2476bfec06cbd9cf23611831565b604080516001600160a01b039687166020808301919091529590961686820152606080870192909252805180870390920182526080909501909452505081519101205c90565b5f80821215610e62576040516393dafdf160e01b815260040160405180910390fd5b80600f0b5f0361109157505050565b5f81600f0b126110ee576001600160a01b038084165f908152600660209081526040808320938616835292905290812080546fffffffffffffffffffffffffffffffff841692906110e3908490611844565b909155506106219050565b6110f781611857565b6001600160a01b038085165f908152600660209081526040808320938716835292905290812080546fffffffffffffffffffffffffffffffff9390931692909190611143908490611831565b9091555050505050565b5f6001600160a01b038216611163575047919050565b6040516370a0823160e01b81523060048201526001600160a01b038316906370a0823190602401602060405180830381865afa1580156111a5573d5f803e3d5ffd5b505050506040513d601f19601f820116820180604052508101906105959190611981565b919050565b6003546001600160a01b03163314610a185760405162461bcd60e51b815260206004820181905260248201527f4f776e61626c653a2063616c6c6572206973206e6f7420746865206f776e65726044820152606401610dde565b600380546001600160a01b038381167fffffffffffffffffffffffff0000000000000000000000000000000000000000831681179093556040519116919082907f8be0079c531659141344cd1fd0a4f28419497f9722a3daafe3b4186f6b6457e0905f90a35050565b5f61129a610dfc565b9050816001600160a01b0316816001600160a01b0316036112b9575050565b6001600160a01b038116158015906112d957506001600160a01b03821615155b156113025760405163c6742a3f60e01b81526001600160a01b0382166004820152602401610dde565b5f61132e60017fedda7c051899c54dd66eaf5e13c031326ab4729812a579bed198ab93fd313d71611831565b905082815d505050565b5f80610e2960017fa88ffc6a483ae852b901fb1c3a0df606e2e4461b493434e6643ebdc3ffabd152611831565b6001600160a01b038084165f9081526001602090815260408083209386168352929052908120805483929061139b908490611831565b909155505060408051338152602081018390526001600160a01b03808516925f92918716917f5b21a3c624a398df3917a0a930f91e3837519b8eab3302b834746433065f295991015b60405180910390a4505050565b6001600160a01b038084165f90815260016020908152604080832093861683529290529081208054839290611427908490611844565b909155505060408051338152602081018390526001600160a01b0380851692908616915f917f5b21a3c624a398df3917a0a930f91e3837519b8eab3302b834746433065f295991016113e4565b5f60208284031215611484575f80fd5b81356001600160e01b031981168114610b14575f80fd5b6001600160a01b0381168114610df0575f80fd5b80356111c98161149b565b5f805f606084860312156114cc575f80fd5b83356114d78161149b565b925060208401356114e78161149b565b929592945050506040919091013590565b5f60208284031215611508575f80fd5b8135610b148161149b565b5f805f8060808587031215611526575f80fd5b84356115318161149b565b935060208501356115418161149b565b925060408501356115518161149b565b9396929550929360600135925050565b634e487b7160e01b5f52604160045260245ffd5b60405160c0810167ffffffffffffffff8111828210171561159857611598611561565b60405290565b5f805f8385036101008112156115b2575f80fd5b60c08112156115bf575f80fd5b506115c8611575565b84356115d38161149b565b815260208501356115e38161149b565b602082015260408501356115f68161149b565b604082015260608501356116098161149b565b6060820152608085013562ffffff81168114611623575f80fd5b608082015260a08581013590820152925060c0840135915061164760e085016114af565b90509250925092565b5f8060408385031215611661575f80fd5b823561166c8161149b565b9150602083013561167c8161149b565b809150509250929050565b5f8060408385031215611698575f80fd5b82356116a38161149b565b91506020830135801515811461167c575f80fd5b5f80602083850312156116c8575f80fd5b823567ffffffffffffffff808211156116df575f80fd5b818501915085601f8301126116f2575f80fd5b813581811115611700575f80fd5b866020828501011115611711575f80fd5b60209290920196919550909350505050565b5f5b8381101561173d578181015183820152602001611725565b50505f910152565b602081525f8251806020840152611763816040850160208701611723565b601f01601f19169190910160400192915050565b5f805f60608486031215611789575f80fd5b83356117948161149b565b925060208401356117a48161149b565b915060408401356117b48161149b565b809150509250925092565b5f80604083850312156117d0575f80fd5b82356117db8161149b565b946020939093013593505050565b5f805f606084860312156117fb575f80fd5b83356118068161149b565b92506020840135915060408401356117b48161149b565b634e487b7160e01b5f52601160045260245ffd5b818103818111156105955761059561181d565b808201808211156105955761059561181d565b5f81600f0b6f7fffffffffffffffffffffffffffffff19810361187c5761187c61181d565b5f0392915050565b60208152816020820152818360408301375f818301604090810191909152601f909201601f19160101919050565b5f602082840312156118c2575f80fd5b815167ffffffffffffffff808211156118d9575f80fd5b818401915084601f8301126118ec575f80fd5b8151818111156118fe576118fe611561565b604051601f8201601f19908116603f0116810190838211818310171561192657611926611561565b8160405282815287602084870101111561193e575f80fd5b61194f836020830160208801611723565b979650505050505050565b8082018281125f8312801582168215821617156119795761197961181d565b505092915050565b5f60208284031215611991575f80fd5b505191905056fea2646970667358221220ec7e0758808efde20995137a1b673f05737577c5d333767f7808803556f89b6f64736f6c63430008180033","linkReferences":{}},"methodIdentifiers":{"accountPoolBalanceDelta((address,address,address,address,uint24,bytes32),int256,address)":"30145154","allowance(address,address,address)":"927da105","approve(address,address,uint256)":"e1f21c67","balanceOf(address,address)":"f7888aec","burn(address,uint256)":"9dc29fac","collectFee(address,uint256,address)":"eb78b435","currencyDelta(address,address)":"a54b2831","getLocker()":"5d4e0ced","getUnsettledDeltasCount()":"fda42892","isOperator(address,address)":"b6363cf2","isPoolManagerRegistered(address)":"36fd6911","lock(bytes)":"81548319","mint(address,address,uint256)":"c6c3bbe6","owner()":"8da5cb5b","registerPoolManager(address)":"bba42130","renounceOwnership()":"715018a6","reservesOfPoolManager(address,address)":"4f412c84","reservesOfVault(address)":"131dfb8b","setOperator(address,bool)":"558a7297","settle(address)":"6a256b29","settleFor(address,address,uint256)":"1d4631a4","supportsInterface(bytes4)":"01ffc9a7","take(address,address,uint256)":"0b0d9c09","transfer(address,address,uint256)":"beabacc8","transferFrom(address,address,address,uint256)":"15dacbea","transferOwnership(address)":"f2fde38b"},"id":45}