{"abi":[{"type":"constructor","inputs":[{"name":"_router","type":"address","internalType":"contract CLSwapRouter"}],"stateMutability":"nonpayable"},{"type":"function","name":"router","inputs":[],"outputs":[{"name":"","type":"address","internalType":"contract CLSwapRouter"}],"stateMutability":"view"},{"type":"function","name":"swap","inputs":[{"name":"params","type":"tuple","internalType":"struct ICLSwapRouterBase.V4CLExactInputParams","components":[{"name":"currencyIn","type":"address","internalType":"Currency"},{"name":"path","type":"tuple[]","internalType":"struct ISwapRouterBase.PathKey[]","components":[{"name":"intermediateCurrency","type":"address","internalType":"Currency"},{"name":"fee","type":"uint24","internalType":"uint24"},{"name":"hooks","type":"address","internalType":"contract IHooks"},{"name":"hookData","type":"bytes","internalType":"bytes"},{"name":"poolManager","type":"address","internalType":"contract IPoolManager"},{"name":"parameters","type":"bytes32","internalType":"bytes32"}]},{"name":"recipient","type":"address","internalType":"address"},{"name":"amountIn","type":"uint128","internalType":"uint128"},{"name":"amountOutMinimum","type":"uint128","internalType":"uint128"}]},{"name":"amount","type":"uint256","internalType":"uint256"},{"name":"permitDeadline","type":"uint256","internalType":"uint256"},{"name":"v","type":"uint8","internalType":"uint8"},{"name":"r","type":"bytes32","internalType":"bytes32"},{"name":"s","type":"bytes32","internalType":"bytes32"}],"outputs":[],"stateMutability":"nonpayable"},{"type":"function","name":"swapSingle","inputs":[{"name":"params","type":"tuple","internalType":"struct ICLSwapRouterBase.V4CLExactInputSingleParams","components":[{"name":"poolKey","type":"tuple","internalType":"struct PoolKey","components":[{"name":"currency0","type":"address","internalType":"Currency"},{"name":"currency1","type":"address","internalType":"Currency"},{"name":"hooks","type":"address","internalType":"contract IHooks"},{"name":"poolManager","type":"address","internalType":"contract IPoolManager"},{"name":"fee","type":"uint24","internalType":"uint24"},{"name":"parameters","type":"bytes32","internalType":"bytes32"}]},{"name":"zeroForOne","type":"bool","internalType":"bool"},{"name":"recipient","type":"address","internalType":"address"},{"name":"amountIn","type":"uint128","internalType":"uint128"},{"name":"amountOutMinimum","type":"uint128","internalType":"uint128"},{"name":"sqrtPriceLimitX96","type":"uint160","internalType":"uint160"},{"name":"hookData","type":"bytes","internalType":"bytes"}]},{"name":"from","type":"address","internalType":"address"},{"name":"amount","type":"uint256","internalType":"uint256"},{"name":"permitDeadline","type":"uint256","internalType":"uint256"},{"name":"v","type":"uint8","internalType":"uint8"},{"name":"r","type":"bytes32","internalType":"bytes32"},{"name":"s","type":"bytes32","internalType":"bytes32"}],"outputs":[],"stateMutability":"nonpayable"}],"bytecode":{"object":"0x60a060405234801561000f575f80fd5b50604051610b29380380610b2983398101604081905261002e9161003f565b6001600160a01b031660805261006c565b5f6020828403121561004f575f80fd5b81516001600160a01b0381168114610065575f80fd5b9392505050565b608051610a916100985f395f81816070015281816101fa0152818161028b015261042a0152610a915ff3fe608060405234801561000f575f80fd5b506004361061003f575f3560e01c806301d54ae014610043578063a10c81fc14610058578063f887ea401461006b575b5f80fd5b6100566100513660046104e2565b6100ae565b005b610056610066366004610568565b61030e565b6100927f000000000000000000000000000000000000000000000000000000000000000081565b6040516001600160a01b03909116815260200160405180910390f35b5f6100bf60e0890160c08a016105f2565b156100d8576100d16020890189610614565b90506100eb565b6100e86040890160208a01610614565b90505b60405163d505accf60e01b81526001600160a01b038881166004830152306024830152604482018890526064820187905260ff8616608483015260a4820185905260c4820184905282169063d505accf9060e4015f604051808303815f87803b158015610156575f80fd5b505af1158015610168573d5f803e3d5ffd5b50506040516323b872dd60e01b81526001600160a01b038a81166004830152306024830152604482018a9052841692506323b872dd91506064016020604051808303815f875af11580156101be573d5f803e3d5ffd5b505050506040513d601f19601f820116820180604052508101906101e2919061062f565b5060405163095ea7b360e01b81526001600160a01b037f0000000000000000000000000000000000000000000000000000000000000000811660048301525f19602483015282169063095ea7b3906044016020604051808303815f875af115801561024f573d5f803e3d5ffd5b505050506040513d601f19601f82011682018060405250810190610273919061062f565b50604051632d4f4f9760e01b81526001600160a01b037f00000000000000000000000000000000000000000000000000000000000000001690632d4f4f97906102c3908b905f19906004016106ec565b6020604051808303815f875af11580156102df573d5f803e3d5ffd5b505050506040513d601f19601f820116820180604052508101906103039190610872565b505050505050505050565b5f61031c6020880188610614565b60405163d505accf60e01b81523360048201523060248201525f1960448201819052606482015260ff8616608482015260a4810185905260c481018490529091506001600160a01b0382169063d505accf9060e4015f604051808303815f87803b158015610388575f80fd5b505af115801561039a573d5f803e3d5ffd5b50506040516323b872dd60e01b8152336004820152306024820152604481018990526001600160a01b03841692506323b872dd91506064016020604051808303815f875af11580156103ee573d5f803e3d5ffd5b505050506040513d601f19601f82011682018060405250810190610412919061062f565b5060405163754ee68d60e11b81526001600160a01b037f0000000000000000000000000000000000000000000000000000000000000000169063ea9dcd1a90610461908a904290600401610972565b6020604051808303815f875af115801561047d573d5f803e3d5ffd5b505050506040513d601f19601f820116820180604052508101906104a19190610872565b5050505050505050565b6001600160a01b03811681146104bf575f80fd5b50565b80356104cd816104ab565b919050565b803560ff811681146104cd575f80fd5b5f805f805f805f60e0888a0312156104f8575f80fd5b873567ffffffffffffffff81111561050e575f80fd5b8801610180818b031215610520575f80fd5b96506020880135610530816104ab565b9550604088013594506060880135935061054c608089016104d2565b925060a0880135915060c0880135905092959891949750929550565b5f805f805f8060c0878903121561057d575f80fd5b863567ffffffffffffffff811115610593575f80fd5b870160a0818a0312156105a4575f80fd5b955060208701359450604087013593506105c0606088016104d2565b92506080870135915060a087013590509295509295509295565b80151581146104bf575f80fd5b80356104cd816105da565b5f60208284031215610602575f80fd5b813561060d816105da565b9392505050565b5f60208284031215610624575f80fd5b813561060d816104ab565b5f6020828403121561063f575f80fd5b815161060d816105da565b803562ffffff811681146104cd575f80fd5b80356fffffffffffffffffffffffffffffffff811681146104cd575f80fd5b5f808335601e19843603018112610690575f80fd5b830160208101925035905067ffffffffffffffff8111156106af575f80fd5b8036038213156106bd575f80fd5b9250929050565b81835281816020850137505f828201602090810191909152601f909101601f19169091010190565b604081525f83356106fc816104ab565b6001600160a01b03908116604084015260208501359061071b826104ab565b9081166060840152604085013590610732826104ab565b1660808301526060840135610746816104ab565b6001600160a01b031660a08301526107606080850161064a565b62ffffff811660c08401525060a084013560e083015261078260c085016105e7565b6101006107928185018315159052565b61079e60e087016104c2565b91506101206107b7818601846001600160a01b03169052565b6107c282880161065c565b925061014091506107e6828601846fffffffffffffffffffffffffffffffff169052565b6107f181880161065c565b925050610160610814818601846fffffffffffffffffffffffffffffffff169052565b61081f8288016104c2565b9250610180915061083a828601846001600160a01b03169052565b6108468188018861067b565b93509050816101a08601526108606101c0860184836106c4565b93505050508260208301529392505050565b5f60208284031215610882575f80fd5b5051919050565b5f8383855260208086019550808560051b830101845f5b8781101561096557848303601f1901895281353688900360be190181126108c5575f80fd5b870160c081356108d4816104ab565b6001600160a01b03808216875262ffffff6108f089860161064a565b16888801526040915081840135610906816104ab565b169086015260606109198382018461067b565b838389015261092b84890182846106c4565b9350505050608061093d8184016104c2565b6001600160a01b03169086015260a091820135919094015297830197908301906001016108a0565b5090979650505050505050565b604081525f8335610982816104ab565b6001600160a01b03166040830152602084013536859003601e190181126109a7575f80fd5b840160208101903567ffffffffffffffff8111156109c3575f80fd5b8060051b36038213156109d4575f80fd5b60a060608501526109e960e085018284610889565b9150506109f8604086016104c2565b6001600160a01b03166080840152610a126060860161065c565b6fffffffffffffffffffffffffffffffff1660a0840152610a356080860161065c565b6fffffffffffffffffffffffffffffffff1660c08401526020909201929092529291505056fea2646970667358221220c907f49150b4f5059a7e65574630c80b82c3c0411a3833555e7566365007df6764736f6c63430008180033","linkReferences":{}},"methodIdentifiers":{"router()":"f887ea40","swap((address,(address,uint24,address,bytes,address,bytes32)[],address,uint128,uint128),uint256,uint256,uint8,bytes32,bytes32)":"a10c81fc","swapSingle(((address,address,address,address,uint24,bytes32),bool,address,uint128,uint128,uint160,bytes),address,uint256,uint256,uint8,bytes32,bytes32)":"01d54ae0"},"id":104}