{"abi":[{"type":"constructor","inputs":[{"name":"_router","type":"address","internalType":"contract CLSwapRouter"}],"stateMutability":"nonpayable"},{"type":"function","name":"router","inputs":[],"outputs":[{"name":"","type":"address","internalType":"contract CLSwapRouter"}],"stateMutability":"view"},{"type":"function","name":"swapSingle","inputs":[{"name":"params","type":"tuple","internalType":"struct ICLSwapRouterBase.V4CLExactInputSingleParams","components":[{"name":"poolKey","type":"tuple","internalType":"struct PoolKey","components":[{"name":"currency0","type":"address","internalType":"Currency"},{"name":"currency1","type":"address","internalType":"Currency"},{"name":"hooks","type":"address","internalType":"contract IHooks"},{"name":"poolManager","type":"address","internalType":"contract IPoolManager"},{"name":"fee","type":"uint24","internalType":"uint24"},{"name":"parameters","type":"bytes32","internalType":"bytes32"}]},{"name":"zeroForOne","type":"bool","internalType":"bool"},{"name":"recipient","type":"address","internalType":"address"},{"name":"amountIn","type":"uint128","internalType":"uint128"},{"name":"amountOutMinimum","type":"uint128","internalType":"uint128"},{"name":"sqrtPriceLimitX96","type":"uint160","internalType":"uint160"},{"name":"hookData","type":"bytes","internalType":"bytes"}]},{"name":"from","type":"address","internalType":"address"},{"name":"amount","type":"uint256","internalType":"uint256"},{"name":"permitDeadline","type":"uint256","internalType":"uint256"},{"name":"v","type":"uint8","internalType":"uint8"},{"name":"r","type":"bytes32","internalType":"bytes32"},{"name":"s","type":"bytes32","internalType":"bytes32"}],"outputs":[],"stateMutability":"nonpayable"}],"bytecode":{"object":"0x60a060405234801561000f575f80fd5b5060405161071b38038061071b83398101604081905261002e9161003f565b6001600160a01b031660805261006c565b5f6020828403121561004f575f80fd5b81516001600160a01b0381168114610065575f80fd5b9392505050565b60805161068a6100915f395f81816052015281816101dc015261026d015261068a5ff3fe608060405234801561000f575f80fd5b5060043610610034575f3560e01c806301d54ae014610038578063f887ea401461004d575b5f80fd5b61004b610046366004610317565b610090565b005b6100747f000000000000000000000000000000000000000000000000000000000000000081565b6040516001600160a01b03909116815260200160405180910390f35b5f6100a160e0890160c08a016103bd565b156100ba576100b360208901896103df565b90506100cd565b6100ca6040890160208a016103df565b90505b60405163d505accf60e01b81526001600160a01b038881166004830152306024830152604482018890526064820187905260ff8616608483015260a4820185905260c4820184905282169063d505accf9060e4015f604051808303815f87803b158015610138575f80fd5b505af115801561014a573d5f803e3d5ffd5b50506040516323b872dd60e01b81526001600160a01b038a81166004830152306024830152604482018a9052841692506323b872dd91506064016020604051808303815f875af11580156101a0573d5f803e3d5ffd5b505050506040513d601f19601f820116820180604052508101906101c491906103fa565b5060405163095ea7b360e01b81526001600160a01b037f0000000000000000000000000000000000000000000000000000000000000000811660048301525f19602483015282169063095ea7b3906044016020604051808303815f875af1158015610231573d5f803e3d5ffd5b505050506040513d601f19601f8201168201806040525081019061025591906103fa565b50604051632d4f4f9760e01b81526001600160a01b037f00000000000000000000000000000000000000000000000000000000000000001690632d4f4f97906102a5908b905f19906004016104b7565b6020604051808303815f875af11580156102c1573d5f803e3d5ffd5b505050506040513d601f19601f820116820180604052508101906102e5919061063d565b505050505050505050565b6001600160a01b0381168114610304575f80fd5b50565b8035610312816102f0565b919050565b5f805f805f805f60e0888a03121561032d575f80fd5b873567ffffffffffffffff811115610343575f80fd5b8801610180818b031215610355575f80fd5b96506020880135610365816102f0565b95506040880135945060608801359350608088013560ff81168114610388575f80fd5b9699959850939692959460a0840135945060c09093013592915050565b8015158114610304575f80fd5b8035610312816103a5565b5f602082840312156103cd575f80fd5b81356103d8816103a5565b9392505050565b5f602082840312156103ef575f80fd5b81356103d8816102f0565b5f6020828403121561040a575f80fd5b81516103d8816103a5565b803562ffffff81168114610312575f80fd5b80356fffffffffffffffffffffffffffffffff81168114610312575f80fd5b5f808335601e1984360301811261045b575f80fd5b830160208101925035905067ffffffffffffffff81111561047a575f80fd5b803603821315610488575f80fd5b9250929050565b81835281816020850137505f828201602090810191909152601f909101601f19169091010190565b604081525f83356104c7816102f0565b6001600160a01b0390811660408401526020850135906104e6826102f0565b90811660608401526040850135906104fd826102f0565b1660808301526060840135610511816102f0565b6001600160a01b031660a083015261052b60808501610415565b62ffffff811660c08401525060a084013560e083015261054d60c085016103b2565b61010061055d8185018315159052565b61056960e08701610307565b9150610120610582818601846001600160a01b03169052565b61058d828801610427565b925061014091506105b1828601846fffffffffffffffffffffffffffffffff169052565b6105bc818801610427565b9250506101606105df818601846fffffffffffffffffffffffffffffffff169052565b6105ea828801610307565b92506101809150610605828601846001600160a01b03169052565b61061181880188610446565b93509050816101a086015261062b6101c08601848361048f565b93505050508260208301529392505050565b5f6020828403121561064d575f80fd5b505191905056fea2646970667358221220c15d0781d4a0eb62c7183cdef5c4c02db78f2e4050cbeac070bd277e226786ac64736f6c63430008180033","linkReferences":{}},"methodIdentifiers":{"router()":"f887ea40","swapSingle(((address,address,address,address,uint24,bytes32),bool,address,uint128,uint128,uint160,bytes),address,uint256,uint256,uint8,bytes32,bytes32)":"01d54ae0"},"id":104}