{"abi":[{"type":"constructor","inputs":[{"name":"_router","type":"address","internalType":"contract CLSwapRouter"}],"stateMutability":"nonpayable"},{"type":"function","name":"router","inputs":[],"outputs":[{"name":"","type":"address","internalType":"contract CLSwapRouter"}],"stateMutability":"view"},{"type":"function","name":"swap","inputs":[{"name":"params","type":"tuple","internalType":"struct ICLSwapRouterBase.V4CLExactInputParams","components":[{"name":"currencyIn","type":"address","internalType":"Currency"},{"name":"path","type":"tuple[]","internalType":"struct ISwapRouterBase.PathKey[]","components":[{"name":"intermediateCurrency","type":"address","internalType":"Currency"},{"name":"fee","type":"uint24","internalType":"uint24"},{"name":"hooks","type":"address","internalType":"contract IHooks"},{"name":"hookData","type":"bytes","internalType":"bytes"},{"name":"poolManager","type":"address","internalType":"contract IPoolManager"},{"name":"parameters","type":"bytes32","internalType":"bytes32"}]},{"name":"recipient","type":"address","internalType":"address"},{"name":"amountIn","type":"uint128","internalType":"uint128"},{"name":"amountOutMinimum","type":"uint128","internalType":"uint128"}]},{"name":"amount","type":"uint256","internalType":"uint256"},{"name":"permitDeadline","type":"uint256","internalType":"uint256"},{"name":"v","type":"uint8","internalType":"uint8"},{"name":"r","type":"bytes32","internalType":"bytes32"},{"name":"s","type":"bytes32","internalType":"bytes32"}],"outputs":[],"stateMutability":"nonpayable"},{"type":"function","name":"swapSingle","inputs":[{"name":"params","type":"tuple","internalType":"struct ICLSwapRouterBase.V4CLExactInputSingleParams","components":[{"name":"poolKey","type":"tuple","internalType":"struct PoolKey","components":[{"name":"currency0","type":"address","internalType":"Currency"},{"name":"currency1","type":"address","internalType":"Currency"},{"name":"hooks","type":"address","internalType":"contract IHooks"},{"name":"poolManager","type":"address","internalType":"contract IPoolManager"},{"name":"fee","type":"uint24","internalType":"uint24"},{"name":"parameters","type":"bytes32","internalType":"bytes32"}]},{"name":"zeroForOne","type":"bool","internalType":"bool"},{"name":"recipient","type":"address","internalType":"address"},{"name":"amountIn","type":"uint128","internalType":"uint128"},{"name":"amountOutMinimum","type":"uint128","internalType":"uint128"},{"name":"sqrtPriceLimitX96","type":"uint160","internalType":"uint160"},{"name":"hookData","type":"bytes","internalType":"bytes"}]},{"name":"amount","type":"uint256","internalType":"uint256"},{"name":"permitDeadline","type":"uint256","internalType":"uint256"},{"name":"v","type":"uint8","internalType":"uint8"},{"name":"r","type":"bytes32","internalType":"bytes32"},{"name":"s","type":"bytes32","internalType":"bytes32"}],"outputs":[],"stateMutability":"nonpayable"}],"bytecode":{"object":"0x60a060405234801561000f575f80fd5b506040516109f83803806109f883398101604081905261002e9161003f565b6001600160a01b031660805261006c565b5f6020828403121561004f575f80fd5b81516001600160a01b0381168114610065575f80fd5b9392505050565b6080516109676100915f395f81816070015281816101f6015261039301526109675ff3fe608060405234801561000f575f80fd5b506004361061003f575f3560e01c80632a47cce414610043578063a10c81fc14610058578063f887ea401461006b575b5f80fd5b6100566100513660046103df565b6100ae565b005b610056610066366004610452565b610277565b6100927f000000000000000000000000000000000000000000000000000000000000000081565b6040516001600160a01b03909116815260200160405180910390f35b5f6100bf60e0880160c089016104a9565b156100d8576100d160208801886104ea565b90506100eb565b6100e860408801602089016104ea565b90505b60405163d505accf60e01b81523360048201523060248201525f1960448201819052606482015260ff8516608482015260a4810184905260c481018390526001600160a01b0382169063d505accf9060e4015f604051808303815f87803b158015610154575f80fd5b505af1158015610166573d5f803e3d5ffd5b50506040516323b872dd60e01b8152336004820152306024820152604481018990526001600160a01b03841692506323b872dd91506064016020604051808303815f875af11580156101ba573d5f803e3d5ffd5b505050506040513d601f19601f820116820180604052508101906101de9190610505565b50604051632d4f4f9760e01b81526001600160a01b037f00000000000000000000000000000000000000000000000000000000000000001690632d4f4f979061022d908a9042906004016105c2565b6020604051808303815f875af1158015610249573d5f803e3d5ffd5b505050506040513d601f19601f8201168201806040525081019061026d9190610748565b5050505050505050565b5f61028560208801886104ea565b60405163d505accf60e01b81523360048201523060248201525f1960448201819052606482015260ff8616608482015260a4810185905260c481018490529091506001600160a01b0382169063d505accf9060e4015f604051808303815f87803b1580156102f1575f80fd5b505af1158015610303573d5f803e3d5ffd5b50506040516323b872dd60e01b8152336004820152306024820152604481018990526001600160a01b03841692506323b872dd91506064016020604051808303815f875af1158015610357573d5f803e3d5ffd5b505050506040513d601f19601f8201168201806040525081019061037b9190610505565b5060405163754ee68d60e11b81526001600160a01b037f0000000000000000000000000000000000000000000000000000000000000000169063ea9dcd1a9061022d908a904290600401610848565b803560ff811681146103da575f80fd5b919050565b5f805f805f8060c087890312156103f4575f80fd5b863567ffffffffffffffff81111561040a575f80fd5b8701610180818a03121561041c575f80fd5b95506020870135945060408701359350610438606088016103ca565b92506080870135915060a087013590509295509295509295565b5f805f805f8060c08789031215610467575f80fd5b863567ffffffffffffffff81111561047d575f80fd5b870160a0818a03121561041c575f80fd5b801515811461049b575f80fd5b50565b80356103da8161048e565b5f602082840312156104b9575f80fd5b81356104c48161048e565b9392505050565b6001600160a01b038116811461049b575f80fd5b80356103da816104cb565b5f602082840312156104fa575f80fd5b81356104c4816104cb565b5f60208284031215610515575f80fd5b81516104c48161048e565b803562ffffff811681146103da575f80fd5b80356fffffffffffffffffffffffffffffffff811681146103da575f80fd5b5f808335601e19843603018112610566575f80fd5b830160208101925035905067ffffffffffffffff811115610585575f80fd5b803603821315610593575f80fd5b9250929050565b81835281816020850137505f828201602090810191909152601f909101601f19169091010190565b604081525f83356105d2816104cb565b6001600160a01b0390811660408401526020850135906105f1826104cb565b9081166060840152604085013590610608826104cb565b166080830152606084013561061c816104cb565b6001600160a01b031660a083015261063660808501610520565b62ffffff811660c08401525060a084013560e083015261065860c0850161049e565b6101006106688185018315159052565b61067460e087016104df565b915061012061068d818601846001600160a01b03169052565b610698828801610532565b925061014091506106bc828601846fffffffffffffffffffffffffffffffff169052565b6106c7818801610532565b9250506101606106ea818601846fffffffffffffffffffffffffffffffff169052565b6106f58288016104df565b92506101809150610710828601846001600160a01b03169052565b61071c81880188610551565b93509050816101a08601526107366101c08601848361059a565b93505050508260208301529392505050565b5f60208284031215610758575f80fd5b5051919050565b5f8383855260208086019550808560051b830101845f5b8781101561083b57848303601f1901895281353688900360be1901811261079b575f80fd5b870160c081356107aa816104cb565b6001600160a01b03808216875262ffffff6107c6898601610520565b168888015260409150818401356107dc816104cb565b169086015260606107ef83820184610551565b8383890152610801848901828461059a565b935050505060806108138184016104df565b6001600160a01b03169086015260a09182013591909401529783019790830190600101610776565b5090979650505050505050565b604081525f8335610858816104cb565b6001600160a01b03166040830152602084013536859003601e1901811261087d575f80fd5b840160208101903567ffffffffffffffff811115610899575f80fd5b8060051b36038213156108aa575f80fd5b60a060608501526108bf60e08501828461075f565b9150506108ce604086016104df565b6001600160a01b031660808401526108e860608601610532565b6fffffffffffffffffffffffffffffffff1660a084015261090b60808601610532565b6fffffffffffffffffffffffffffffffff1660c08401526020909201929092529291505056fea264697066735822122095c40e96e043ee8bed795501f1804145bb3298f568fff281065cc7abf0e7b07b64736f6c63430008180033","linkReferences":{}},"methodIdentifiers":{"router()":"f887ea40","swap((address,(address,uint24,address,bytes,address,bytes32)[],address,uint128,uint128),uint256,uint256,uint8,bytes32,bytes32)":"a10c81fc","swapSingle(((address,address,address,address,uint24,bytes32),bool,address,uint128,uint128,uint160,bytes),uint256,uint256,uint8,bytes32,bytes32)":"2a47cce4"},"id":120}