{"abi":[{"type":"function","name":"setTickSpacing","inputs":[{"name":"params","type":"bytes32","internalType":"bytes32"},{"name":"tickSpacing","type":"int24","internalType":"int24"}],"outputs":[{"name":"","type":"bytes32","internalType":"bytes32"}],"stateMutability":"pure"}],"bytecode":{"object":"0x60d3610034600b8282823980515f1a60731461002857634e487b7160e01b5f525f60045260245ffd5b305f52607381538281f3fe73000000000000000000000000000000000000000030146080604052600436106032575f3560e01c8063467be3eb146036575b5f80fd5b605a6041366004606c565b60101b64ffffff00001664ffffff000019919091161790565b60405190815260200160405180910390f35b5f8060408385031215607c575f80fd5b8235915060208301358060020b81146092575f80fd5b80915050925092905056fea26469706673582212202a351f5a0ea2938df6b36704f5c73db10a3500ec2e85f817183fbd4388900d1c64736f6c63430008180033","linkReferences":{}},"methodIdentifiers":{"setTickSpacing(bytes32,int24)":"467be3eb"},"id":69}