{"abi":[{"type":"constructor","inputs":[{"name":"_poolManager","type":"address","internalType":"contract ICLPoolManager"}],"stateMutability":"nonpayable"},{"type":"function","name":"afterAddLiquidity","inputs":[{"name":"","type":"address","internalType":"address"},{"name":"key","type":"tuple","internalType":"struct PoolKey","components":[{"name":"currency0","type":"address","internalType":"Currency"},{"name":"currency1","type":"address","internalType":"Currency"},{"name":"hooks","type":"address","internalType":"contract IHooks"},{"name":"poolManager","type":"address","internalType":"contract IPoolManager"},{"name":"fee","type":"uint24","internalType":"uint24"},{"name":"parameters","type":"bytes32","internalType":"bytes32"}]},{"name":"","type":"tuple","internalType":"struct ICLPoolManager.ModifyLiquidityParams","components":[{"name":"tickLower","type":"int24","internalType":"int24"},{"name":"tickUpper","type":"int24","internalType":"int24"},{"name":"liquidityDelta","type":"int256","internalType":"int256"}]},{"name":"","type":"int256","internalType":"BalanceDelta"},{"name":"","type":"bytes","internalType":"bytes"}],"outputs":[{"name":"","type":"bytes4","internalType":"bytes4"}],"stateMutability":"nonpayable"},{"type":"function","name":"afterAddLiquidityCount","inputs":[{"name":"","type":"bytes32","internalType":"PoolId"}],"outputs":[{"name":"count","type":"uint256","internalType":"uint256"}],"stateMutability":"view"},{"type":"function","name":"afterDonate","inputs":[{"name":"","type":"address","internalType":"address"},{"name":"","type":"tuple","internalType":"struct PoolKey","components":[{"name":"currency0","type":"address","internalType":"Currency"},{"name":"currency1","type":"address","internalType":"Currency"},{"name":"hooks","type":"address","internalType":"contract IHooks"},{"name":"poolManager","type":"address","internalType":"contract IPoolManager"},{"name":"fee","type":"uint24","internalType":"uint24"},{"name":"parameters","type":"bytes32","internalType":"bytes32"}]},{"name":"","type":"uint256","internalType":"uint256"},{"name":"","type":"uint256","internalType":"uint256"},{"name":"","type":"bytes","internalType":"bytes"}],"outputs":[{"name":"","type":"bytes4","internalType":"bytes4"}],"stateMutability":"nonpayable"},{"type":"function","name":"afterInitialize","inputs":[{"name":"","type":"address","internalType":"address"},{"name":"","type":"tuple","internalType":"struct PoolKey","components":[{"name":"currency0","type":"address","internalType":"Currency"},{"name":"currency1","type":"address","internalType":"Currency"},{"name":"hooks","type":"address","internalType":"contract IHooks"},{"name":"poolManager","type":"address","internalType":"contract IPoolManager"},{"name":"fee","type":"uint24","internalType":"uint24"},{"name":"parameters","type":"bytes32","internalType":"bytes32"}]},{"name":"","type":"uint160","internalType":"uint160"},{"name":"","type":"int24","internalType":"int24"},{"name":"","type":"bytes","internalType":"bytes"}],"outputs":[{"name":"","type":"bytes4","internalType":"bytes4"}],"stateMutability":"nonpayable"},{"type":"function","name":"afterRemoveLiquidity","inputs":[{"name":"","type":"address","internalType":"address"},{"name":"","type":"tuple","internalType":"struct PoolKey","components":[{"name":"currency0","type":"address","internalType":"Currency"},{"name":"currency1","type":"address","internalType":"Currency"},{"name":"hooks","type":"address","internalType":"contract IHooks"},{"name":"poolManager","type":"address","internalType":"contract IPoolManager"},{"name":"fee","type":"uint24","internalType":"uint24"},{"name":"parameters","type":"bytes32","internalType":"bytes32"}]},{"name":"","type":"tuple","internalType":"struct ICLPoolManager.ModifyLiquidityParams","components":[{"name":"tickLower","type":"int24","internalType":"int24"},{"name":"tickUpper","type":"int24","internalType":"int24"},{"name":"liquidityDelta","type":"int256","internalType":"int256"}]},{"name":"","type":"int256","internalType":"BalanceDelta"},{"name":"","type":"bytes","internalType":"bytes"}],"outputs":[{"name":"","type":"bytes4","internalType":"bytes4"}],"stateMutability":"nonpayable"},{"type":"function","name":"afterSwap","inputs":[{"name":"","type":"address","internalType":"address"},{"name":"key","type":"tuple","internalType":"struct PoolKey","components":[{"name":"currency0","type":"address","internalType":"Currency"},{"name":"currency1","type":"address","internalType":"Currency"},{"name":"hooks","type":"address","internalType":"contract IHooks"},{"name":"poolManager","type":"address","internalType":"contract IPoolManager"},{"name":"fee","type":"uint24","internalType":"uint24"},{"name":"parameters","type":"bytes32","internalType":"bytes32"}]},{"name":"","type":"tuple","internalType":"struct ICLPoolManager.SwapParams","components":[{"name":"zeroForOne","type":"bool","internalType":"bool"},{"name":"amountSpecified","type":"int256","internalType":"int256"},{"name":"sqrtPriceLimitX96","type":"uint160","internalType":"uint160"}]},{"name":"","type":"int256","internalType":"BalanceDelta"},{"name":"","type":"bytes","internalType":"bytes"}],"outputs":[{"name":"","type":"bytes4","internalType":"bytes4"}],"stateMutability":"nonpayable"},{"type":"function","name":"afterSwapCount","inputs":[{"name":"","type":"bytes32","internalType":"PoolId"}],"outputs":[{"name":"count","type":"uint256","internalType":"uint256"}],"stateMutability":"view"},{"type":"function","name":"beforeAddLiquidity","inputs":[{"name":"","type":"address","internalType":"address"},{"name":"key","type":"tuple","internalType":"struct PoolKey","components":[{"name":"currency0","type":"address","internalType":"Currency"},{"name":"currency1","type":"address","internalType":"Currency"},{"name":"hooks","type":"address","internalType":"contract IHooks"},{"name":"poolManager","type":"address","internalType":"contract IPoolManager"},{"name":"fee","type":"uint24","internalType":"uint24"},{"name":"parameters","type":"bytes32","internalType":"bytes32"}]},{"name":"","type":"tuple","internalType":"struct ICLPoolManager.ModifyLiquidityParams","components":[{"name":"tickLower","type":"int24","internalType":"int24"},{"name":"tickUpper","type":"int24","internalType":"int24"},{"name":"liquidityDelta","type":"int256","internalType":"int256"}]},{"name":"","type":"bytes","internalType":"bytes"}],"outputs":[{"name":"","type":"bytes4","internalType":"bytes4"}],"stateMutability":"nonpayable"},{"type":"function","name":"beforeAddLiquidityCount","inputs":[{"name":"","type":"bytes32","internalType":"PoolId"}],"outputs":[{"name":"count","type":"uint256","internalType":"uint256"}],"stateMutability":"view"},{"type":"function","name":"beforeDonate","inputs":[{"name":"","type":"address","internalType":"address"},{"name":"","type":"tuple","internalType":"struct PoolKey","components":[{"name":"currency0","type":"address","internalType":"Currency"},{"name":"currency1","type":"address","internalType":"Currency"},{"name":"hooks","type":"address","internalType":"contract IHooks"},{"name":"poolManager","type":"address","internalType":"contract IPoolManager"},{"name":"fee","type":"uint24","internalType":"uint24"},{"name":"parameters","type":"bytes32","internalType":"bytes32"}]},{"name":"","type":"uint256","internalType":"uint256"},{"name":"","type":"uint256","internalType":"uint256"},{"name":"","type":"bytes","internalType":"bytes"}],"outputs":[{"name":"","type":"bytes4","internalType":"bytes4"}],"stateMutability":"nonpayable"},{"type":"function","name":"beforeInitialize","inputs":[{"name":"","type":"address","internalType":"address"},{"name":"","type":"tuple","internalType":"struct PoolKey","components":[{"name":"currency0","type":"address","internalType":"Currency"},{"name":"currency1","type":"address","internalType":"Currency"},{"name":"hooks","type":"address","internalType":"contract IHooks"},{"name":"poolManager","type":"address","internalType":"contract IPoolManager"},{"name":"fee","type":"uint24","internalType":"uint24"},{"name":"parameters","type":"bytes32","internalType":"bytes32"}]},{"name":"","type":"uint160","internalType":"uint160"},{"name":"","type":"bytes","internalType":"bytes"}],"outputs":[{"name":"","type":"bytes4","internalType":"bytes4"}],"stateMutability":"nonpayable"},{"type":"function","name":"beforeRemoveLiquidity","inputs":[{"name":"","type":"address","internalType":"address"},{"name":"","type":"tuple","internalType":"struct PoolKey","components":[{"name":"currency0","type":"address","internalType":"Currency"},{"name":"currency1","type":"address","internalType":"Currency"},{"name":"hooks","type":"address","internalType":"contract IHooks"},{"name":"poolManager","type":"address","internalType":"contract IPoolManager"},{"name":"fee","type":"uint24","internalType":"uint24"},{"name":"parameters","type":"bytes32","internalType":"bytes32"}]},{"name":"","type":"tuple","internalType":"struct ICLPoolManager.ModifyLiquidityParams","components":[{"name":"tickLower","type":"int24","internalType":"int24"},{"name":"tickUpper","type":"int24","internalType":"int24"},{"name":"liquidityDelta","type":"int256","internalType":"int256"}]},{"name":"","type":"bytes","internalType":"bytes"}],"outputs":[{"name":"","type":"bytes4","internalType":"bytes4"}],"stateMutability":"nonpayable"},{"type":"function","name":"beforeSwap","inputs":[{"name":"","type":"address","internalType":"address"},{"name":"key","type":"tuple","internalType":"struct PoolKey","components":[{"name":"currency0","type":"address","internalType":"Currency"},{"name":"currency1","type":"address","internalType":"Currency"},{"name":"hooks","type":"address","internalType":"contract IHooks"},{"name":"poolManager","type":"address","internalType":"contract IPoolManager"},{"name":"fee","type":"uint24","internalType":"uint24"},{"name":"parameters","type":"bytes32","internalType":"bytes32"}]},{"name":"","type":"tuple","internalType":"struct ICLPoolManager.SwapParams","components":[{"name":"zeroForOne","type":"bool","internalType":"bool"},{"name":"amountSpecified","type":"int256","internalType":"int256"},{"name":"sqrtPriceLimitX96","type":"uint160","internalType":"uint160"}]},{"name":"","type":"bytes","internalType":"bytes"}],"outputs":[{"name":"","type":"bytes4","internalType":"bytes4"}],"stateMutability":"nonpayable"},{"type":"function","name":"beforeSwapCount","inputs":[{"name":"","type":"bytes32","internalType":"PoolId"}],"outputs":[{"name":"count","type":"uint256","internalType":"uint256"}],"stateMutability":"view"},{"type":"function","name":"getHooksRegistrationBitmap","inputs":[],"outputs":[{"name":"","type":"uint16","internalType":"uint16"}],"stateMutability":"pure"},{"type":"function","name":"lockAcquired","inputs":[{"name":"data","type":"bytes","internalType":"bytes"}],"outputs":[{"name":"","type":"bytes","internalType":"bytes"}],"stateMutability":"nonpayable"},{"type":"function","name":"poolManager","inputs":[],"outputs":[{"name":"","type":"address","internalType":"contract ICLPoolManager"}],"stateMutability":"view"},{"type":"function","name":"vault","inputs":[],"outputs":[{"name":"","type":"address","internalType":"contract IVault"}],"stateMutability":"view"},{"type":"error","name":"HookNotImplemented","inputs":[]},{"type":"error","name":"InvalidPool","inputs":[]},{"type":"error","name":"LockFailure","inputs":[]},{"type":"error","name":"NotPoolManager","inputs":[]},{"type":"error","name":"NotSelf","inputs":[]},{"type":"error","name":"NotVault","inputs":[]}],"bytecode":{"object":"0x60c060405234801561000f575f80fd5b50604051610de6380380610de683398101604081905261002e916100c7565b6001600160a01b03811660808190526040805163fbfa77cf60e01b8152905183929163fbfa77cf9160048083019260209291908290030181865afa158015610078573d5f803e3d5ffd5b505050506040513d601f19601f8201168201806040525081019061009c91906100c7565b6001600160a01b031660a052506100e99050565b6001600160a01b03811681146100c4575f80fd5b50565b5f602082840312156100d7575f80fd5b81516100e2816100b0565b9392505050565b60805160a051610cb961012d5f395f81816102fb015261047f01525f818161028e01528181610337015281816103ea0152818161056601526105f80152610cb95ff3fe608060405234801561000f575f80fd5b506004361061012f575f3560e01c8063b23855d3116100ad578063dc4c90d31161007d578063f961d1f411610063578063f961d1f4146102db578063fbfa77cf146102f6578063ff9cc8e61461031d575f80fd5b8063dc4c90d314610289578063e592dc93146102c8575f80fd5b8063b23855d31461022a578063c089fa7c14610238578063c69399571461024b578063dacdbe771461026a575f80fd5b80635304d44e116101025780636f6657cb116100e85780636f6657cb146101e9578063972e19a2146101fc578063ab6291fe1461020a575f80fd5b80635304d44e146101bc5780635c338d32146101ca575f80fd5b80631124f428146101335780631e3b7a83146101655780631ffe6a58146101a95780634b6a682d146101bc575b5f80fd5b610152610141366004610844565b60016020525f908152604090205481565b6040519081526020015b60405180910390f35b6101786101733660046108ed565b61032b565b6040517fffffffff00000000000000000000000000000000000000000000000000000000909116815260200161015c565b6101786101b736600461096e565b6103c4565b6101786101b73660046109e1565b6101526101d8366004610844565b60026020525f908152604090205481565b6101786101f73660046108ed565b6103de565b6101786101b7366004610a3c565b61021d610218366004610ab4565b610472565b60405161015c9190610af3565b6101786101b73660046108ed565b610178610246366004610b3f565b61055a565b610152610259366004610844565b5f6020819052908152604090205481565b610152610278366004610844565b60036020525f908152604090205481565b6102b07f000000000000000000000000000000000000000000000000000000000000000081565b6040516001600160a01b03909116815260200161015c565b6101786102d6366004610b3f565b6105ec565b6102e361067f565b60405161ffff909116815260200161015c565b6102b07f000000000000000000000000000000000000000000000000000000000000000081565b6101786101b7366004610b3f565b5f336001600160a01b037f000000000000000000000000000000000000000000000000000000000000000016146103755760405163570c108560e11b815260040160405180910390fd5b60015f61038f61038a368a90038a018a610bab565b6106e7565b81526020019081526020015f205f8154809291906103ac90610c50565b90915550631e3b7a8360e01b98975050505050505050565b5f604051630a85dc2960e01b815260040160405180910390fd5b5f336001600160a01b037f000000000000000000000000000000000000000000000000000000000000000016146104285760405163570c108560e11b815260040160405180910390fd5b60035f61043d61038a368a90038a018a610bab565b81526020019081526020015f205f81548092919061045a90610c50565b90915550636f6657cb60e01b98975050505050505050565b6060336001600160a01b037f000000000000000000000000000000000000000000000000000000000000000016146104bd576040516362df054560e01b815260040160405180910390fd5b5f80306001600160a01b031685856040516104d9929190610c74565b5f604051808303815f865af19150503d805f8114610512576040519150601f19603f3d011682016040523d82523d5f602084013e610517565b606091505b5091509150811561052b5791506105549050565b80515f0361054c576040516314815f4760e31b815260040160405180910390fd5b805160208201fd5b92915050565b5f336001600160a01b037f000000000000000000000000000000000000000000000000000000000000000016146105a45760405163570c108560e11b815260040160405180910390fd5b5f806105b861038a36899003890189610bab565b81526020019081526020015f205f8154809291906105d590610c50565b909155506330227e9f60e21b979650505050505050565b5f336001600160a01b037f000000000000000000000000000000000000000000000000000000000000000016146106365760405163570c108560e11b815260040160405180910390fd5b60025f61064b61038a36899003890189610bab565b81526020019081526020015f205f81548092919061066890610c50565b9091555063e592dc9360e01b979650505050505050565b60408051610160810182525f808252602082018190526001928201839052606082018390526080820181905260a0820181905260c0820183905260e08201929092526101008101829052610120810182905261014081018290526106e29061076a565b905090565b5f8160405160200161074d91905f60c0820190506001600160a01b038084511683528060208501511660208401528060408501511660408401528060608501511660608401525062ffffff608084015116608083015260a083015160a083015292915050565b604051602081830303815290604052805190602001209050919050565b5f81610140015161077b575f61077f565b6104005b82610120015161078f575f610793565b6102005b8361010001516107a3575f6107a7565b6101005b8460e001516107b6575f6107b9565b60805b8560c001516107c8575f6107cb565b60405b8660a001516107da575f6107dd565b60205b87608001516107ec575f6107ef565b60105b88606001516107fe575f610801565b60085b8960400151610810575f610813565b60045b8a60200151610822575f610825565b60025b8b51610831575f610834565b60015b1717171717171717171792915050565b5f60208284031215610854575f80fd5b5035919050565b6001600160a01b038116811461086f575f80fd5b50565b803561087d8161085b565b919050565b5f60c08284031215610892575f80fd5b50919050565b5f60608284031215610892575f80fd5b5f8083601f8401126108b8575f80fd5b50813567ffffffffffffffff8111156108cf575f80fd5b6020830191508360208285010111156108e6575f80fd5b9250929050565b5f805f805f806101808789031215610903575f80fd5b863561090e8161085b565b955061091d8860208901610882565b945061092c8860e08901610898565b9350610140870135925061016087013567ffffffffffffffff811115610950575f80fd5b61095c89828a016108a8565b979a9699509497509295939492505050565b5f805f805f806101408789031215610984575f80fd5b863561098f8161085b565b955061099e8860208901610882565b945060e08701356109ae8161085b565b9350610100870135600281900b81146109c5575f80fd5b925061012087013567ffffffffffffffff811115610950575f80fd5b5f805f805f8061014087890312156109f7575f80fd5b8635610a028161085b565b9550610a118860208901610882565b945060e08701359350610100870135925061012087013567ffffffffffffffff811115610950575f80fd5b5f805f805f6101208688031215610a51575f80fd5b8535610a5c8161085b565b9450610a6b8760208801610882565b935060e0860135610a7b8161085b565b925061010086013567ffffffffffffffff811115610a97575f80fd5b610aa3888289016108a8565b969995985093965092949392505050565b5f8060208385031215610ac5575f80fd5b823567ffffffffffffffff811115610adb575f80fd5b610ae7858286016108a8565b90969095509350505050565b5f602080835283518060208501525f5b81811015610b1f57858101830151858201604001528201610b03565b505f604082860101526040601f19601f8301168501019250505092915050565b5f805f805f6101608688031215610b54575f80fd5b8535610b5f8161085b565b9450610b6e8760208801610882565b9350610b7d8760e08801610898565b925061014086013567ffffffffffffffff811115610a97575f80fd5b803562ffffff8116811461087d575f80fd5b5f60c08284031215610bbb575f80fd5b60405160c0810181811067ffffffffffffffff82111715610bea57634e487b7160e01b5f52604160045260245ffd5b604052610bf683610872565b8152610c0460208401610872565b6020820152610c1560408401610872565b6040820152610c2660608401610872565b6060820152610c3760808401610b99565b608082015260a083013560a08201528091505092915050565b5f60018201610c6d57634e487b7160e01b5f52601160045260245ffd5b5060010190565b818382375f910190815291905056fea2646970667358221220ad8b2e996f123e363b544dc9412a8be5f9bf42baef6e9b21857a8c81c0d2e45a64736f6c63430008180033","linkReferences":{}},"methodIdentifiers":{"afterAddLiquidity(address,(address,address,address,address,uint24,bytes32),(int24,int24,int256),int256,bytes)":"1e3b7a83","afterAddLiquidityCount(bytes32)":"1124f428","afterDonate(address,(address,address,address,address,uint24,bytes32),uint256,uint256,bytes)":"5304d44e","afterInitialize(address,(address,address,address,address,uint24,bytes32),uint160,int24,bytes)":"1ffe6a58","afterRemoveLiquidity(address,(address,address,address,address,uint24,bytes32),(int24,int24,int256),int256,bytes)":"b23855d3","afterSwap(address,(address,address,address,address,uint24,bytes32),(bool,int256,uint160),int256,bytes)":"6f6657cb","afterSwapCount(bytes32)":"dacdbe77","beforeAddLiquidity(address,(address,address,address,address,uint24,bytes32),(int24,int24,int256),bytes)":"c089fa7c","beforeAddLiquidityCount(bytes32)":"c6939957","beforeDonate(address,(address,address,address,address,uint24,bytes32),uint256,uint256,bytes)":"4b6a682d","beforeInitialize(address,(address,address,address,address,uint24,bytes32),uint160,bytes)":"972e19a2","beforeRemoveLiquidity(address,(address,address,address,address,uint24,bytes32),(int24,int24,int256),bytes)":"ff9cc8e6","beforeSwap(address,(address,address,address,address,uint24,bytes32),(bool,int256,uint160),bytes)":"e592dc93","beforeSwapCount(bytes32)":"5c338d32","getHooksRegistrationBitmap()":"f961d1f4","lockAcquired(bytes)":"ab6291fe","poolManager()":"dc4c90d3","vault()":"fbfa77cf"},"id":105}