{"abi":[{"type":"constructor","inputs":[{"name":"_poolManager","type":"address","internalType":"contract ICLPoolManager"}],"stateMutability":"nonpayable"},{"type":"function","name":"afterAddLiquidity","inputs":[{"name":"","type":"address","internalType":"address"},{"name":"","type":"tuple","internalType":"struct PoolKey","components":[{"name":"currency0","type":"address","internalType":"Currency"},{"name":"currency1","type":"address","internalType":"Currency"},{"name":"hooks","type":"address","internalType":"contract IHooks"},{"name":"poolManager","type":"address","internalType":"contract IPoolManager"},{"name":"fee","type":"uint24","internalType":"uint24"},{"name":"parameters","type":"bytes32","internalType":"bytes32"}]},{"name":"","type":"tuple","internalType":"struct ICLPoolManager.ModifyLiquidityParams","components":[{"name":"tickLower","type":"int24","internalType":"int24"},{"name":"tickUpper","type":"int24","internalType":"int24"},{"name":"liquidityDelta","type":"int256","internalType":"int256"}]},{"name":"","type":"int256","internalType":"BalanceDelta"},{"name":"","type":"bytes","internalType":"bytes"}],"outputs":[{"name":"","type":"bytes4","internalType":"bytes4"}],"stateMutability":"nonpayable"},{"type":"function","name":"afterDonate","inputs":[{"name":"","type":"address","internalType":"address"},{"name":"","type":"tuple","internalType":"struct PoolKey","components":[{"name":"currency0","type":"address","internalType":"Currency"},{"name":"currency1","type":"address","internalType":"Currency"},{"name":"hooks","type":"address","internalType":"contract IHooks"},{"name":"poolManager","type":"address","internalType":"contract IPoolManager"},{"name":"fee","type":"uint24","internalType":"uint24"},{"name":"parameters","type":"bytes32","internalType":"bytes32"}]},{"name":"","type":"uint256","internalType":"uint256"},{"name":"","type":"uint256","internalType":"uint256"},{"name":"","type":"bytes","internalType":"bytes"}],"outputs":[{"name":"","type":"bytes4","internalType":"bytes4"}],"stateMutability":"nonpayable"},{"type":"function","name":"afterInitialize","inputs":[{"name":"","type":"address","internalType":"address"},{"name":"","type":"tuple","internalType":"struct PoolKey","components":[{"name":"currency0","type":"address","internalType":"Currency"},{"name":"currency1","type":"address","internalType":"Currency"},{"name":"hooks","type":"address","internalType":"contract IHooks"},{"name":"poolManager","type":"address","internalType":"contract IPoolManager"},{"name":"fee","type":"uint24","internalType":"uint24"},{"name":"parameters","type":"bytes32","internalType":"bytes32"}]},{"name":"","type":"uint160","internalType":"uint160"},{"name":"","type":"int24","internalType":"int24"},{"name":"","type":"bytes","internalType":"bytes"}],"outputs":[{"name":"","type":"bytes4","internalType":"bytes4"}],"stateMutability":"nonpayable"},{"type":"function","name":"afterRemoveLiquidity","inputs":[{"name":"","type":"address","internalType":"address"},{"name":"","type":"tuple","internalType":"struct PoolKey","components":[{"name":"currency0","type":"address","internalType":"Currency"},{"name":"currency1","type":"address","internalType":"Currency"},{"name":"hooks","type":"address","internalType":"contract IHooks"},{"name":"poolManager","type":"address","internalType":"contract IPoolManager"},{"name":"fee","type":"uint24","internalType":"uint24"},{"name":"parameters","type":"bytes32","internalType":"bytes32"}]},{"name":"","type":"tuple","internalType":"struct ICLPoolManager.ModifyLiquidityParams","components":[{"name":"tickLower","type":"int24","internalType":"int24"},{"name":"tickUpper","type":"int24","internalType":"int24"},{"name":"liquidityDelta","type":"int256","internalType":"int256"}]},{"name":"","type":"int256","internalType":"BalanceDelta"},{"name":"","type":"bytes","internalType":"bytes"}],"outputs":[{"name":"","type":"bytes4","internalType":"bytes4"}],"stateMutability":"nonpayable"},{"type":"function","name":"afterSwap","inputs":[{"name":"","type":"address","internalType":"address"},{"name":"key","type":"tuple","internalType":"struct PoolKey","components":[{"name":"currency0","type":"address","internalType":"Currency"},{"name":"currency1","type":"address","internalType":"Currency"},{"name":"hooks","type":"address","internalType":"contract IHooks"},{"name":"poolManager","type":"address","internalType":"contract IPoolManager"},{"name":"fee","type":"uint24","internalType":"uint24"},{"name":"parameters","type":"bytes32","internalType":"bytes32"}]},{"name":"","type":"tuple","internalType":"struct ICLPoolManager.SwapParams","components":[{"name":"zeroForOne","type":"bool","internalType":"bool"},{"name":"amountSpecified","type":"int256","internalType":"int256"},{"name":"sqrtPriceLimitX96","type":"uint160","internalType":"uint160"}]},{"name":"","type":"int256","internalType":"BalanceDelta"},{"name":"","type":"bytes","internalType":"bytes"}],"outputs":[{"name":"","type":"bytes4","internalType":"bytes4"}],"stateMutability":"nonpayable"},{"type":"function","name":"beforeAddLiquidity","inputs":[{"name":"","type":"address","internalType":"address"},{"name":"","type":"tuple","internalType":"struct PoolKey","components":[{"name":"currency0","type":"address","internalType":"Currency"},{"name":"currency1","type":"address","internalType":"Currency"},{"name":"hooks","type":"address","internalType":"contract IHooks"},{"name":"poolManager","type":"address","internalType":"contract IPoolManager"},{"name":"fee","type":"uint24","internalType":"uint24"},{"name":"parameters","type":"bytes32","internalType":"bytes32"}]},{"name":"","type":"tuple","internalType":"struct ICLPoolManager.ModifyLiquidityParams","components":[{"name":"tickLower","type":"int24","internalType":"int24"},{"name":"tickUpper","type":"int24","internalType":"int24"},{"name":"liquidityDelta","type":"int256","internalType":"int256"}]},{"name":"","type":"bytes","internalType":"bytes"}],"outputs":[{"name":"","type":"bytes4","internalType":"bytes4"}],"stateMutability":"nonpayable"},{"type":"function","name":"beforeDonate","inputs":[{"name":"","type":"address","internalType":"address"},{"name":"","type":"tuple","internalType":"struct PoolKey","components":[{"name":"currency0","type":"address","internalType":"Currency"},{"name":"currency1","type":"address","internalType":"Currency"},{"name":"hooks","type":"address","internalType":"contract IHooks"},{"name":"poolManager","type":"address","internalType":"contract IPoolManager"},{"name":"fee","type":"uint24","internalType":"uint24"},{"name":"parameters","type":"bytes32","internalType":"bytes32"}]},{"name":"","type":"uint256","internalType":"uint256"},{"name":"","type":"uint256","internalType":"uint256"},{"name":"","type":"bytes","internalType":"bytes"}],"outputs":[{"name":"","type":"bytes4","internalType":"bytes4"}],"stateMutability":"nonpayable"},{"type":"function","name":"beforeInitialize","inputs":[{"name":"","type":"address","internalType":"address"},{"name":"","type":"tuple","internalType":"struct PoolKey","components":[{"name":"currency0","type":"address","internalType":"Currency"},{"name":"currency1","type":"address","internalType":"Currency"},{"name":"hooks","type":"address","internalType":"contract IHooks"},{"name":"poolManager","type":"address","internalType":"contract IPoolManager"},{"name":"fee","type":"uint24","internalType":"uint24"},{"name":"parameters","type":"bytes32","internalType":"bytes32"}]},{"name":"","type":"uint160","internalType":"uint160"},{"name":"","type":"bytes","internalType":"bytes"}],"outputs":[{"name":"","type":"bytes4","internalType":"bytes4"}],"stateMutability":"nonpayable"},{"type":"function","name":"beforeRemoveLiquidity","inputs":[{"name":"","type":"address","internalType":"address"},{"name":"","type":"tuple","internalType":"struct PoolKey","components":[{"name":"currency0","type":"address","internalType":"Currency"},{"name":"currency1","type":"address","internalType":"Currency"},{"name":"hooks","type":"address","internalType":"contract IHooks"},{"name":"poolManager","type":"address","internalType":"contract IPoolManager"},{"name":"fee","type":"uint24","internalType":"uint24"},{"name":"parameters","type":"bytes32","internalType":"bytes32"}]},{"name":"","type":"tuple","internalType":"struct ICLPoolManager.ModifyLiquidityParams","components":[{"name":"tickLower","type":"int24","internalType":"int24"},{"name":"tickUpper","type":"int24","internalType":"int24"},{"name":"liquidityDelta","type":"int256","internalType":"int256"}]},{"name":"","type":"bytes","internalType":"bytes"}],"outputs":[{"name":"","type":"bytes4","internalType":"bytes4"}],"stateMutability":"nonpayable"},{"type":"function","name":"beforeSwap","inputs":[{"name":"","type":"address","internalType":"address"},{"name":"key","type":"tuple","internalType":"struct PoolKey","components":[{"name":"currency0","type":"address","internalType":"Currency"},{"name":"currency1","type":"address","internalType":"Currency"},{"name":"hooks","type":"address","internalType":"contract IHooks"},{"name":"poolManager","type":"address","internalType":"contract IPoolManager"},{"name":"fee","type":"uint24","internalType":"uint24"},{"name":"parameters","type":"bytes32","internalType":"bytes32"}]},{"name":"","type":"tuple","internalType":"struct ICLPoolManager.SwapParams","components":[{"name":"zeroForOne","type":"bool","internalType":"bool"},{"name":"amountSpecified","type":"int256","internalType":"int256"},{"name":"sqrtPriceLimitX96","type":"uint160","internalType":"uint160"}]},{"name":"","type":"bytes","internalType":"bytes"}],"outputs":[{"name":"","type":"bytes4","internalType":"bytes4"}],"stateMutability":"nonpayable"},{"type":"function","name":"gasTracker","inputs":[],"outputs":[{"name":"","type":"uint256","internalType":"uint256"}],"stateMutability":"view"},{"type":"function","name":"getHooksRegistrationBitmap","inputs":[],"outputs":[{"name":"","type":"uint16","internalType":"uint16"}],"stateMutability":"pure"},{"type":"function","name":"lockAcquired","inputs":[{"name":"data","type":"bytes","internalType":"bytes"}],"outputs":[{"name":"","type":"bytes","internalType":"bytes"}],"stateMutability":"nonpayable"},{"type":"function","name":"poolManager","inputs":[],"outputs":[{"name":"","type":"address","internalType":"contract ICLPoolManager"}],"stateMutability":"view"},{"type":"function","name":"vault","inputs":[],"outputs":[{"name":"","type":"address","internalType":"contract IVault"}],"stateMutability":"view"},{"type":"error","name":"HookNotImplemented","inputs":[]},{"type":"error","name":"InvalidPool","inputs":[]},{"type":"error","name":"LockFailure","inputs":[]},{"type":"error","name":"NotPoolManager","inputs":[]},{"type":"error","name":"NotSelf","inputs":[]},{"type":"error","name":"NotVault","inputs":[]}],"bytecode":{"object":"0x60c060405234801561000f575f80fd5b50604051610a0f380380610a0f83398101604081905261002e916100c7565b6001600160a01b03811660808190526040805163fbfa77cf60e01b8152905183929163fbfa77cf9160048083019260209291908290030181865afa158015610078573d5f803e3d5ffd5b505050506040513d601f19601f8201168201806040525081019061009c91906100c7565b6001600160a01b031660a052506100e99050565b6001600160a01b03811681146100c4575f80fd5b50565b5f602082840312156100d7575f80fd5b81516100e2816100b0565b9392505050565b60805160a0516108f061011f5f395f818161023001526102e501525f81816101c30152818161027801526103cc01526108f05ff3fe608060405234801561000f575f80fd5b50600436106100f0575f3560e01c8063ab6291fe11610093578063e592dc9311610063578063e592dc93146101fd578063f961d1f414610210578063fbfa77cf1461022b578063ff9cc8e6146101b0575f80fd5b8063ab6291fe14610190578063b23855d31461010f578063c089fa7c146101b0578063dc4c90d3146101be575f80fd5b80634b6a682d116100ce5780634b6a682d146101615780635304d44e146101615780636f6657cb1461016f578063972e19a214610182575f80fd5b806316418e2d146100f45780631e3b7a831461010f5780631ffe6a5814610153575b5f80fd5b6100fc5f5481565b6040519081526020015b60405180910390f35b61012261011d3660046105e0565b610252565b6040517fffffffff000000000000000000000000000000000000000000000000000000009091168152602001610106565b61012261011d366004610661565b61012261011d3660046106d4565b61012261017d3660046105e0565b61026c565b61012261011d36600461072f565b6101a361019e3660046107a7565b6102d8565b60405161010691906107e6565b61012261011d366004610832565b6101e57f000000000000000000000000000000000000000000000000000000000000000081565b6040516001600160a01b039091168152602001610106565b61012261020b366004610832565b6103c0565b61021861041f565b60405161ffff9091168152602001610106565b6101e57f000000000000000000000000000000000000000000000000000000000000000081565b5f604051630a85dc2960e01b815260040160405180910390fd5b5f336001600160a01b037f000000000000000000000000000000000000000000000000000000000000000016146102b65760405163570c108560e11b815260040160405180910390fd5b5a5f546102c3919061088c565b5f5550636f6657cb60e01b9695505050505050565b6060336001600160a01b037f00000000000000000000000000000000000000000000000000000000000000001614610323576040516362df054560e01b815260040160405180910390fd5b5f80306001600160a01b0316858560405161033f9291906108ab565b5f604051808303815f865af19150503d805f8114610378576040519150601f19603f3d011682016040523d82523d5f602084013e61037d565b606091505b509150915081156103915791506103ba9050565b80515f036103b2576040516314815f4760e31b815260040160405180910390fd5b805160208201fd5b92915050565b5f336001600160a01b037f0000000000000000000000000000000000000000000000000000000000000000161461040a5760405163570c108560e11b815260040160405180910390fd5b5a5f555063e592dc9360e01b95945050505050565b60408051610160810182525f80825260208201819052918101829052606081018290526080810182905260a08101829052600160c0820181905260e082015261010081018290526101208101829052610140810182905261047f90610484565b905090565b5f816101400151610495575f610499565b6104005b8261012001516104a9575f6104ad565b6102005b8361010001516104bd575f6104c1565b6101005b8460e001516104d0575f6104d3565b60805b8560c001516104e2575f6104e5565b60405b8660a001516104f4575f6104f7565b60205b8760800151610506575f610509565b60105b8860600151610518575f61051b565b60085b896040015161052a575f61052d565b60045b8a6020015161053c575f61053f565b60025b8b5161054b575f61054e565b60015b1717171717171717171792915050565b6001600160a01b0381168114610572575f80fd5b50565b5f60c08284031215610585575f80fd5b50919050565b5f60608284031215610585575f80fd5b5f8083601f8401126105ab575f80fd5b50813567ffffffffffffffff8111156105c2575f80fd5b6020830191508360208285010111156105d9575f80fd5b9250929050565b5f805f805f8061018087890312156105f6575f80fd5b86356106018161055e565b95506106108860208901610575565b945061061f8860e0890161058b565b9350610140870135925061016087013567ffffffffffffffff811115610643575f80fd5b61064f89828a0161059b565b979a9699509497509295939492505050565b5f805f805f806101408789031215610677575f80fd5b86356106828161055e565b95506106918860208901610575565b945060e08701356106a18161055e565b9350610100870135600281900b81146106b8575f80fd5b925061012087013567ffffffffffffffff811115610643575f80fd5b5f805f805f8061014087890312156106ea575f80fd5b86356106f58161055e565b95506107048860208901610575565b945060e08701359350610100870135925061012087013567ffffffffffffffff811115610643575f80fd5b5f805f805f6101208688031215610744575f80fd5b853561074f8161055e565b945061075e8760208801610575565b935060e086013561076e8161055e565b925061010086013567ffffffffffffffff81111561078a575f80fd5b6107968882890161059b565b969995985093965092949392505050565b5f80602083850312156107b8575f80fd5b823567ffffffffffffffff8111156107ce575f80fd5b6107da8582860161059b565b90969095509350505050565b5f602080835283518060208501525f5b81811015610812578581018301518582016040015282016107f6565b505f604082860101526040601f19601f8301168501019250505092915050565b5f805f805f6101608688031215610847575f80fd5b85356108528161055e565b94506108618760208801610575565b93506108708760e0880161058b565b925061014086013567ffffffffffffffff81111561078a575f80fd5b818103818111156103ba57634e487b7160e01b5f52601160045260245ffd5b818382375f910190815291905056fea264697066735822122057b47c829b56fab602ef2baeab8c3b1f9a55bbfe7fa82d64389a3107446afd9364736f6c63430008180033","linkReferences":{}},"methodIdentifiers":{"afterAddLiquidity(address,(address,address,address,address,uint24,bytes32),(int24,int24,int256),int256,bytes)":"1e3b7a83","afterDonate(address,(address,address,address,address,uint24,bytes32),uint256,uint256,bytes)":"5304d44e","afterInitialize(address,(address,address,address,address,uint24,bytes32),uint160,int24,bytes)":"1ffe6a58","afterRemoveLiquidity(address,(address,address,address,address,uint24,bytes32),(int24,int24,int256),int256,bytes)":"b23855d3","afterSwap(address,(address,address,address,address,uint24,bytes32),(bool,int256,uint160),int256,bytes)":"6f6657cb","beforeAddLiquidity(address,(address,address,address,address,uint24,bytes32),(int24,int24,int256),bytes)":"c089fa7c","beforeDonate(address,(address,address,address,address,uint24,bytes32),uint256,uint256,bytes)":"4b6a682d","beforeInitialize(address,(address,address,address,address,uint24,bytes32),uint160,bytes)":"972e19a2","beforeRemoveLiquidity(address,(address,address,address,address,uint24,bytes32),(int24,int24,int256),bytes)":"ff9cc8e6","beforeSwap(address,(address,address,address,address,uint24,bytes32),(bool,int256,uint160),bytes)":"e592dc93","gasTracker()":"16418e2d","getHooksRegistrationBitmap()":"f961d1f4","lockAcquired(bytes)":"ab6291fe","poolManager()":"dc4c90d3","vault()":"fbfa77cf"},"id":103}