{"abi":[{"type":"constructor","inputs":[{"name":"name","type":"string","internalType":"string"},{"name":"symbol","type":"string","internalType":"string"}],"stateMutability":"nonpayable"},{"type":"function","name":"DOMAIN_SEPARATOR","inputs":[],"outputs":[{"name":"","type":"bytes32","internalType":"bytes32"}],"stateMutability":"view"},{"type":"function","name":"allowance","inputs":[{"name":"owner","type":"address","internalType":"address"},{"name":"spender","type":"address","internalType":"address"}],"outputs":[{"name":"","type":"uint256","internalType":"uint256"}],"stateMutability":"view"},{"type":"function","name":"approve","inputs":[{"name":"spender","type":"address","internalType":"address"},{"name":"amount","type":"uint256","internalType":"uint256"}],"outputs":[{"name":"","type":"bool","internalType":"bool"}],"stateMutability":"nonpayable"},{"type":"function","name":"balanceOf","inputs":[{"name":"account","type":"address","internalType":"address"}],"outputs":[{"name":"","type":"uint256","internalType":"uint256"}],"stateMutability":"view"},{"type":"function","name":"decimals","inputs":[],"outputs":[{"name":"","type":"uint8","internalType":"uint8"}],"stateMutability":"pure"},{"type":"function","name":"decreaseAllowance","inputs":[{"name":"spender","type":"address","internalType":"address"},{"name":"subtractedValue","type":"uint256","internalType":"uint256"}],"outputs":[{"name":"","type":"bool","internalType":"bool"}],"stateMutability":"nonpayable"},{"type":"function","name":"eip712Domain","inputs":[],"outputs":[{"name":"fields","type":"bytes1","internalType":"bytes1"},{"name":"name","type":"string","internalType":"string"},{"name":"version","type":"string","internalType":"string"},{"name":"chainId","type":"uint256","internalType":"uint256"},{"name":"verifyingContract","type":"address","internalType":"address"},{"name":"salt","type":"bytes32","internalType":"bytes32"},{"name":"extensions","type":"uint256[]","internalType":"uint256[]"}],"stateMutability":"view"},{"type":"function","name":"increaseAllowance","inputs":[{"name":"spender","type":"address","internalType":"address"},{"name":"addedValue","type":"uint256","internalType":"uint256"}],"outputs":[{"name":"","type":"bool","internalType":"bool"}],"stateMutability":"nonpayable"},{"type":"function","name":"mint","inputs":[{"name":"to","type":"address","internalType":"address"},{"name":"amount","type":"uint256","internalType":"uint256"}],"outputs":[],"stateMutability":"nonpayable"},{"type":"function","name":"name","inputs":[],"outputs":[{"name":"","type":"string","internalType":"string"}],"stateMutability":"view"},{"type":"function","name":"nonces","inputs":[{"name":"owner","type":"address","internalType":"address"}],"outputs":[{"name":"","type":"uint256","internalType":"uint256"}],"stateMutability":"view"},{"type":"function","name":"permit","inputs":[{"name":"owner","type":"address","internalType":"address"},{"name":"spender","type":"address","internalType":"address"},{"name":"value","type":"uint256","internalType":"uint256"},{"name":"deadline","type":"uint256","internalType":"uint256"},{"name":"v","type":"uint8","internalType":"uint8"},{"name":"r","type":"bytes32","internalType":"bytes32"},{"name":"s","type":"bytes32","internalType":"bytes32"}],"outputs":[],"stateMutability":"nonpayable"},{"type":"function","name":"symbol","inputs":[],"outputs":[{"name":"","type":"string","internalType":"string"}],"stateMutability":"view"},{"type":"function","name":"totalSupply","inputs":[],"outputs":[{"name":"","type":"uint256","internalType":"uint256"}],"stateMutability":"view"},{"type":"function","name":"transfer","inputs":[{"name":"to","type":"address","internalType":"address"},{"name":"amount","type":"uint256","internalType":"uint256"}],"outputs":[{"name":"","type":"bool","internalType":"bool"}],"stateMutability":"nonpayable"},{"type":"function","name":"transferFrom","inputs":[{"name":"from","type":"address","internalType":"address"},{"name":"to","type":"address","internalType":"address"},{"name":"amount","type":"uint256","internalType":"uint256"}],"outputs":[{"name":"","type":"bool","internalType":"bool"}],"stateMutability":"nonpayable"},{"type":"event","name":"Approval","inputs":[{"name":"owner","type":"address","indexed":true,"internalType":"address"},{"name":"spender","type":"address","indexed":true,"internalType":"address"},{"name":"value","type":"uint256","indexed":false,"internalType":"uint256"}],"anonymous":false},{"type":"event","name":"EIP712DomainChanged","inputs":[],"anonymous":false},{"type":"event","name":"Transfer","inputs":[{"name":"from","type":"address","indexed":true,"internalType":"address"},{"name":"to","type":"address","indexed":true,"internalType":"address"},{"name":"value","type":"uint256","indexed":false,"internalType":"uint256"}],"anonymous":false},{"type":"error","name":"InvalidShortString","inputs":[]},{"type":"error","name":"StringTooLong","inputs":[{"name":"str","type":"string","internalType":"string"}]}],"bytecode":{"object":"0x61016060405234801562000011575f80fd5b50604051620017033803806200170383398101604081905262000034916200027b565b6040805180820190915260018152603160f81b602082015282908190818460036200006083826200036b565b5060046200006f82826200036b565b50620000819150839050600562000132565b610120526200009281600662000132565b61014052815160208084019190912060e052815190820120610100524660a0526200011f60e05161010051604080517f8b73c3c69bb8fe3d512ecc4cf759cc79239f7b179b0ffacaa9a75d522b39400f60208201529081019290925260608201524660808201523060a08201525f9060c00160405160208183030381529060405280519060200120905090565b60805250503060c052506200048f915050565b5f602083511015620001515762000149836200016a565b905062000164565b816200015e84826200036b565b5060ff90505b92915050565b5f80829050601f81511115620001a0578260405163305a27a960e01b815260040162000197919062000437565b60405180910390fd5b8051620001ad826200046b565b179392505050565b634e487b7160e01b5f52604160045260245ffd5b5f5b83811015620001e5578181015183820152602001620001cb565b50505f910152565b5f82601f830112620001fd575f80fd5b81516001600160401b03808211156200021a576200021a620001b5565b604051601f8301601f19908116603f01168101908282118183101715620002455762000245620001b5565b816040528381528660208588010111156200025e575f80fd5b62000271846020830160208901620001c9565b9695505050505050565b5f80604083850312156200028d575f80fd5b82516001600160401b0380821115620002a4575f80fd5b620002b286838701620001ed565b93506020850151915080821115620002c8575f80fd5b50620002d785828601620001ed565b9150509250929050565b600181811c90821680620002f657607f821691505b6020821081036200031557634e487b7160e01b5f52602260045260245ffd5b50919050565b601f8211156200036657805f5260205f20601f840160051c81016020851015620003425750805b601f840160051c820191505b8181101562000363575f81556001016200034e565b50505b505050565b81516001600160401b03811115620003875762000387620001b5565b6200039f81620003988454620002e1565b846200031b565b602080601f831160018114620003d5575f8415620003bd5750858301515b5f19600386901b1c1916600185901b1785556200042f565b5f85815260208120601f198616915b828110156200040557888601518255948401946001909101908401620003e4565b50858210156200042357878501515f19600388901b60f8161c191681555b505060018460011b0185555b505050505050565b602081525f825180602084015262000457816040850160208701620001c9565b601f01601f19169190910160400192915050565b8051602080830151919081101562000315575f1960209190910360031b1b16919050565b60805160a05160c05160e051610100516101205161014051611222620004e15f395f6103ee01525f6103c301525f610ac501525f610a9d01525f6109f801525f610a2201525f610a4c01526112225ff3fe608060405234801561000f575f80fd5b50600436106100fb575f3560e01c806370a0823111610093578063a457c2d711610063578063a457c2d714610202578063a9059cbb14610215578063d505accf14610228578063dd62ed3e1461023b575f80fd5b806370a08231146101a45780637ecebe00146101cc57806384b0196e146101df57806395d89b41146101fa575f80fd5b8063313ce567116100ce578063313ce567146101655780633644e51514610174578063395093511461017c57806340c10f191461018f575f80fd5b806306fdde03146100ff578063095ea7b31461011d57806318160ddd1461014057806323b872dd14610152575b5f80fd5b610107610273565b6040516101149190610fa4565b60405180910390f35b61013061012b366004610fd8565b610303565b6040519015158152602001610114565b6002545b604051908152602001610114565b610130610160366004611000565b61031c565b60405160068152602001610114565b61014461033f565b61013061018a366004610fd8565b61034d565b6101a261019d366004610fd8565b61038b565b005b6101446101b2366004611039565b6001600160a01b03165f9081526020819052604090205490565b6101446101da366004611039565b610399565b6101e76103b6565b6040516101149796959493929190611052565b61010761043d565b610130610210366004610fd8565b61044c565b610130610223366004610fd8565b6104fa565b6101a26102363660046110e9565b610507565b610144610249366004611156565b6001600160a01b039182165f90815260016020908152604080832093909416825291909152205490565b60606003805461028290611187565b80601f01602080910402602001604051908101604052809291908181526020018280546102ae90611187565b80156102f95780601f106102d0576101008083540402835291602001916102f9565b820191905f5260205f20905b8154815290600101906020018083116102dc57829003601f168201915b5050505050905090565b5f33610310818585610668565b60019150505b92915050565b5f3361032985828561078b565b61033485858561081b565b506001949350505050565b5f6103486109ec565b905090565b335f8181526001602090815260408083206001600160a01b038716845290915281205490919061031090829086906103869087906111b9565b610668565b6103958282610b15565b5050565b6001600160a01b0381165f90815260076020526040812054610316565b5f606080828080836103e97f00000000000000000000000000000000000000000000000000000000000000006005610bd2565b6104147f00000000000000000000000000000000000000000000000000000000000000006006610bd2565b604080515f80825260208201909252600f60f81b9b939a50919850469750309650945092509050565b60606004805461028290611187565b335f8181526001602090815260408083206001600160a01b0387168452909152812054909190838110156104ed5760405162461bcd60e51b815260206004820152602560248201527f45524332303a2064656372656173656420616c6c6f77616e63652062656c6f7760448201527f207a65726f00000000000000000000000000000000000000000000000000000060648201526084015b60405180910390fd5b6103348286868403610668565b5f3361031081858561081b565b834211156105575760405162461bcd60e51b815260206004820152601d60248201527f45524332305065726d69743a206578706972656420646561646c696e6500000060448201526064016104e4565b5f7f6e71edae12b1b97f4d1f60370fef10105fa2faae0126114a169c64845d6126c98888886105858c610c7b565b6040805160208101969096526001600160a01b0394851690860152929091166060840152608083015260a082015260c0810186905260e0016040516020818303038152906040528051906020012090505f6105df82610ca2565b90505f6105ee82878787610cce565b9050896001600160a01b0316816001600160a01b0316146106515760405162461bcd60e51b815260206004820152601e60248201527f45524332305065726d69743a20696e76616c6964207369676e6174757265000060448201526064016104e4565b61065c8a8a8a610668565b50505050505050505050565b6001600160a01b0383166106ca5760405162461bcd60e51b8152602060048201526024808201527f45524332303a20617070726f76652066726f6d20746865207a65726f206164646044820152637265737360e01b60648201526084016104e4565b6001600160a01b03821661072b5760405162461bcd60e51b815260206004820152602260248201527f45524332303a20617070726f766520746f20746865207a65726f206164647265604482015261737360f01b60648201526084016104e4565b6001600160a01b038381165f8181526001602090815260408083209487168084529482529182902085905590518481527f8c5be1e5ebec7d5bd14f71427d1e84f3dd0314c0f7b2291e5b200ac8c7c3b925910160405180910390a3505050565b6001600160a01b038381165f908152600160209081526040808320938616835292905220545f19811461081557818110156108085760405162461bcd60e51b815260206004820152601d60248201527f45524332303a20696e73756666696369656e7420616c6c6f77616e636500000060448201526064016104e4565b6108158484848403610668565b50505050565b6001600160a01b0383166108975760405162461bcd60e51b815260206004820152602560248201527f45524332303a207472616e736665722066726f6d20746865207a65726f20616460448201527f647265737300000000000000000000000000000000000000000000000000000060648201526084016104e4565b6001600160a01b0382166108f95760405162461bcd60e51b815260206004820152602360248201527f45524332303a207472616e7366657220746f20746865207a65726f206164647260448201526265737360e81b60648201526084016104e4565b6001600160a01b0383165f90815260208190526040902054818110156109875760405162461bcd60e51b815260206004820152602660248201527f45524332303a207472616e7366657220616d6f756e742065786365656473206260448201527f616c616e6365000000000000000000000000000000000000000000000000000060648201526084016104e4565b6001600160a01b038481165f81815260208181526040808320878703905593871680835291849020805487019055925185815290927fddf252ad1be2c89b69c2b068fc378daa952ba7f163c4a11628f55a4df523b3ef910160405180910390a3610815565b5f306001600160a01b037f000000000000000000000000000000000000000000000000000000000000000016148015610a4457507f000000000000000000000000000000000000000000000000000000000000000046145b15610a6e57507f000000000000000000000000000000000000000000000000000000000000000090565b610348604080517f8b73c3c69bb8fe3d512ecc4cf759cc79239f7b179b0ffacaa9a75d522b39400f60208201527f0000000000000000000000000000000000000000000000000000000000000000918101919091527f000000000000000000000000000000000000000000000000000000000000000060608201524660808201523060a08201525f9060c00160405160208183030381529060405280519060200120905090565b6001600160a01b038216610b6b5760405162461bcd60e51b815260206004820152601f60248201527f45524332303a206d696e7420746f20746865207a65726f20616464726573730060448201526064016104e4565b8060025f828254610b7c91906111b9565b90915550506001600160a01b0382165f81815260208181526040808320805486019055518481527fddf252ad1be2c89b69c2b068fc378daa952ba7f163c4a11628f55a4df523b3ef910160405180910390a35050565b606060ff8314610bec57610be583610cf4565b9050610316565b818054610bf890611187565b80601f0160208091040260200160405190810160405280929190818152602001828054610c2490611187565b8015610c6f5780601f10610c4657610100808354040283529160200191610c6f565b820191905f5260205f20905b815481529060010190602001808311610c5257829003601f168201915b50505050509050610316565b6001600160a01b0381165f9081526007602052604090208054600181018255905b50919050565b5f610316610cae6109ec565b8360405161190160f01b8152600281019290925260228201526042902090565b5f805f610cdd87878787610d31565b91509150610cea81610dee565b5095945050505050565b60605f610d0083610f3a565b6040805160208082528183019092529192505f91906020820181803683375050509182525060208101929092525090565b5f807f7fffffffffffffffffffffffffffffff5d576e7357a4501ddfe92f46681b20a0831115610d6657505f90506003610de5565b604080515f8082526020820180845289905260ff881692820192909252606081018690526080810185905260019060a0016020604051602081039080840390855afa158015610db7573d5f803e3d5ffd5b5050604051601f1901519150506001600160a01b038116610ddf575f60019250925050610de5565b91505f90505b94509492505050565b5f816004811115610e0157610e016111d8565b03610e095750565b6001816004811115610e1d57610e1d6111d8565b03610e6a5760405162461bcd60e51b815260206004820152601860248201527f45434453413a20696e76616c6964207369676e6174757265000000000000000060448201526064016104e4565b6002816004811115610e7e57610e7e6111d8565b03610ecb5760405162461bcd60e51b815260206004820152601f60248201527f45434453413a20696e76616c6964207369676e6174757265206c656e6774680060448201526064016104e4565b6003816004811115610edf57610edf6111d8565b03610f375760405162461bcd60e51b815260206004820152602260248201527f45434453413a20696e76616c6964207369676e6174757265202773272076616c604482015261756560f01b60648201526084016104e4565b50565b5f60ff8216601f81111561031657604051632cd44ac360e21b815260040160405180910390fd5b5f81518084525f5b81811015610f8557602081850181015186830182015201610f69565b505f602082860101526020601f19601f83011685010191505092915050565b602081525f610fb66020830184610f61565b9392505050565b80356001600160a01b0381168114610fd3575f80fd5b919050565b5f8060408385031215610fe9575f80fd5b610ff283610fbd565b946020939093013593505050565b5f805f60608486031215611012575f80fd5b61101b84610fbd565b925061102960208501610fbd565b9150604084013590509250925092565b5f60208284031215611049575f80fd5b610fb682610fbd565b60ff60f81b881681525f602060e0602084015261107260e084018a610f61565b8381036040850152611084818a610f61565b606085018990526001600160a01b038816608086015260a0850187905284810360c0860152855180825260208088019350909101905f5b818110156110d7578351835292840192918401916001016110bb565b50909c9b505050505050505050505050565b5f805f805f805f60e0888a0312156110ff575f80fd5b61110888610fbd565b965061111660208901610fbd565b95506040880135945060608801359350608088013560ff81168114611139575f80fd5b9699959850939692959460a0840135945060c09093013592915050565b5f8060408385031215611167575f80fd5b61117083610fbd565b915061117e60208401610fbd565b90509250929050565b600181811c9082168061119b57607f821691505b602082108103610c9c57634e487b7160e01b5f52602260045260245ffd5b8082018082111561031657634e487b7160e01b5f52601160045260245ffd5b634e487b7160e01b5f52602160045260245ffdfea26469706673582212208f40c30fdd56be371f2d33aba1a47555cefb6c2b5a426b0d082f421684cc1ec264736f6c63430008180033","linkReferences":{}},"methodIdentifiers":{"DOMAIN_SEPARATOR()":"3644e515","allowance(address,address)":"dd62ed3e","approve(address,uint256)":"095ea7b3","balanceOf(address)":"70a08231","decimals()":"313ce567","decreaseAllowance(address,uint256)":"a457c2d7","eip712Domain()":"84b0196e","increaseAllowance(address,uint256)":"39509351","mint(address,uint256)":"40c10f19","name()":"06fdde03","nonces(address)":"7ecebe00","permit(address,address,uint256,uint256,uint8,bytes32,bytes32)":"d505accf","symbol()":"95d89b41","totalSupply()":"18160ddd","transfer(address,uint256)":"a9059cbb","transferFrom(address,address,uint256)":"23b872dd"},"id":109}