{"abi":[{"type":"constructor","inputs":[{"name":"_vault","type":"address","internalType":"contract IVault"},{"name":"_poolManager","type":"address","internalType":"contract ICLPoolManager"},{"name":"_WETH9","type":"address","internalType":"address"}],"stateMutability":"nonpayable"},{"type":"receive","stateMutability":"payable"},{"type":"function","name":"WETH9","inputs":[],"outputs":[{"name":"","type":"address","internalType":"address"}],"stateMutability":"view"},{"type":"function","name":"exactInput","inputs":[{"name":"params","type":"tuple","internalType":"struct ICLSwapRouterBase.V4CLExactInputParams","components":[{"name":"currencyIn","type":"address","internalType":"Currency"},{"name":"path","type":"tuple[]","internalType":"struct ISwapRouterBase.PathKey[]","components":[{"name":"intermediateCurrency","type":"address","internalType":"Currency"},{"name":"fee","type":"uint24","internalType":"uint24"},{"name":"hooks","type":"address","internalType":"contract IHooks"},{"name":"hookData","type":"bytes","internalType":"bytes"},{"name":"poolManager","type":"address","internalType":"contract IPoolManager"},{"name":"parameters","type":"bytes32","internalType":"bytes32"}]},{"name":"recipient","type":"address","internalType":"address"},{"name":"amountIn","type":"uint128","internalType":"uint128"},{"name":"amountOutMinimum","type":"uint128","internalType":"uint128"}]},{"name":"deadline","type":"uint256","internalType":"uint256"}],"outputs":[{"name":"amountOut","type":"uint256","internalType":"uint256"}],"stateMutability":"payable"},{"type":"function","name":"exactInputSingle","inputs":[{"name":"params","type":"tuple","internalType":"struct ICLSwapRouterBase.V4CLExactInputSingleParams","components":[{"name":"poolKey","type":"tuple","internalType":"struct PoolKey","components":[{"name":"currency0","type":"address","internalType":"Currency"},{"name":"currency1","type":"address","internalType":"Currency"},{"name":"hooks","type":"address","internalType":"contract IHooks"},{"name":"poolManager","type":"address","internalType":"contract IPoolManager"},{"name":"fee","type":"uint24","internalType":"uint24"},{"name":"parameters","type":"bytes32","internalType":"bytes32"}]},{"name":"zeroForOne","type":"bool","internalType":"bool"},{"name":"recipient","type":"address","internalType":"address"},{"name":"amountIn","type":"uint128","internalType":"uint128"},{"name":"amountOutMinimum","type":"uint128","internalType":"uint128"},{"name":"sqrtPriceLimitX96","type":"uint160","internalType":"uint160"},{"name":"hookData","type":"bytes","internalType":"bytes"}]},{"name":"deadline","type":"uint256","internalType":"uint256"}],"outputs":[{"name":"amountOut","type":"uint256","internalType":"uint256"}],"stateMutability":"payable"},{"type":"function","name":"exactOutput","inputs":[{"name":"params","type":"tuple","internalType":"struct ICLSwapRouterBase.V4CLExactOutputParams","components":[{"name":"currencyOut","type":"address","internalType":"Currency"},{"name":"path","type":"tuple[]","internalType":"struct ISwapRouterBase.PathKey[]","components":[{"name":"intermediateCurrency","type":"address","internalType":"Currency"},{"name":"fee","type":"uint24","internalType":"uint24"},{"name":"hooks","type":"address","internalType":"contract IHooks"},{"name":"hookData","type":"bytes","internalType":"bytes"},{"name":"poolManager","type":"address","internalType":"contract IPoolManager"},{"name":"parameters","type":"bytes32","internalType":"bytes32"}]},{"name":"recipient","type":"address","internalType":"address"},{"name":"amountOut","type":"uint128","internalType":"uint128"},{"name":"amountInMaximum","type":"uint128","internalType":"uint128"}]},{"name":"deadline","type":"uint256","internalType":"uint256"}],"outputs":[{"name":"amountIn","type":"uint256","internalType":"uint256"}],"stateMutability":"payable"},{"type":"function","name":"exactOutputSingle","inputs":[{"name":"params","type":"tuple","internalType":"struct ICLSwapRouterBase.V4CLExactOutputSingleParams","components":[{"name":"poolKey","type":"tuple","internalType":"struct PoolKey","components":[{"name":"currency0","type":"address","internalType":"Currency"},{"name":"currency1","type":"address","internalType":"Currency"},{"name":"hooks","type":"address","internalType":"contract IHooks"},{"name":"poolManager","type":"address","internalType":"contract IPoolManager"},{"name":"fee","type":"uint24","internalType":"uint24"},{"name":"parameters","type":"bytes32","internalType":"bytes32"}]},{"name":"zeroForOne","type":"bool","internalType":"bool"},{"name":"recipient","type":"address","internalType":"address"},{"name":"amountOut","type":"uint128","internalType":"uint128"},{"name":"amountInMaximum","type":"uint128","internalType":"uint128"},{"name":"sqrtPriceLimitX96","type":"uint160","internalType":"uint160"},{"name":"hookData","type":"bytes","internalType":"bytes"}]},{"name":"deadline","type":"uint256","internalType":"uint256"}],"outputs":[{"name":"amountIn","type":"uint256","internalType":"uint256"}],"stateMutability":"payable"},{"type":"function","name":"lockAcquired","inputs":[{"name":"encodedSwapInfo","type":"bytes","internalType":"bytes"}],"outputs":[{"name":"","type":"bytes","internalType":"bytes"}],"stateMutability":"nonpayable"},{"type":"function","name":"multicall","inputs":[{"name":"data","type":"bytes[]","internalType":"bytes[]"}],"outputs":[{"name":"results","type":"bytes[]","internalType":"bytes[]"}],"stateMutability":"payable"},{"type":"function","name":"poolManager","inputs":[],"outputs":[{"name":"","type":"address","internalType":"contract ICLPoolManager"}],"stateMutability":"view"},{"type":"function","name":"refundETH","inputs":[],"outputs":[],"stateMutability":"payable"},{"type":"function","name":"selfPermit","inputs":[{"name":"token","type":"address","internalType":"address"},{"name":"value","type":"uint256","internalType":"uint256"},{"name":"deadline","type":"uint256","internalType":"uint256"},{"name":"v","type":"uint8","internalType":"uint8"},{"name":"r","type":"bytes32","internalType":"bytes32"},{"name":"s","type":"bytes32","internalType":"bytes32"}],"outputs":[],"stateMutability":"payable"},{"type":"function","name":"selfPermitAllowed","inputs":[{"name":"token","type":"address","internalType":"address"},{"name":"nonce","type":"uint256","internalType":"uint256"},{"name":"expiry","type":"uint256","internalType":"uint256"},{"name":"v","type":"uint8","internalType":"uint8"},{"name":"r","type":"bytes32","internalType":"bytes32"},{"name":"s","type":"bytes32","internalType":"bytes32"}],"outputs":[],"stateMutability":"payable"},{"type":"function","name":"selfPermitAllowedIfNecessary","inputs":[{"name":"token","type":"address","internalType":"address"},{"name":"nonce","type":"uint256","internalType":"uint256"},{"name":"expiry","type":"uint256","internalType":"uint256"},{"name":"v","type":"uint8","internalType":"uint8"},{"name":"r","type":"bytes32","internalType":"bytes32"},{"name":"s","type":"bytes32","internalType":"bytes32"}],"outputs":[],"stateMutability":"payable"},{"type":"function","name":"selfPermitIfNecessary","inputs":[{"name":"token","type":"address","internalType":"address"},{"name":"value","type":"uint256","internalType":"uint256"},{"name":"deadline","type":"uint256","internalType":"uint256"},{"name":"v","type":"uint8","internalType":"uint8"},{"name":"r","type":"bytes32","internalType":"bytes32"},{"name":"s","type":"bytes32","internalType":"bytes32"}],"outputs":[],"stateMutability":"payable"},{"type":"function","name":"sweepToken","inputs":[{"name":"currency","type":"address","internalType":"Currency"},{"name":"amountMinimum","type":"uint256","internalType":"uint256"},{"name":"recipient","type":"address","internalType":"address"}],"outputs":[],"stateMutability":"payable"},{"type":"function","name":"unwrapWETH9","inputs":[{"name":"amountMinimum","type":"uint256","internalType":"uint256"},{"name":"recipient","type":"address","internalType":"address"}],"outputs":[],"stateMutability":"payable"},{"type":"function","name":"vault","inputs":[],"outputs":[{"name":"","type":"address","internalType":"contract IVault"}],"stateMutability":"view"},{"type":"error","name":"DeadlineExceeded","inputs":[{"name":"deladline","type":"uint256","internalType":"uint256"},{"name":"now","type":"uint256","internalType":"uint256"}]},{"type":"error","name":"ERC20TransferFailed","inputs":[]},{"type":"error","name":"InsufficientToken","inputs":[]},{"type":"error","name":"InvalidSwapType","inputs":[]},{"type":"error","name":"NativeTransferFailed","inputs":[]},{"type":"error","name":"NotVault","inputs":[]},{"type":"error","name":"TooLittleReceived","inputs":[]},{"type":"error","name":"TooMuchRequested","inputs":[]},{"type":"error","name":"TransactionTooOld","inputs":[]}],"bytecode":{"object":"0x60e060405234801562000010575f80fd5b506040516200270738038062002707833981016040819052620000339162000069565b6001600160a01b0392831660805290821660a0521660c052620000ba565b6001600160a01b038116811462000066575f80fd5b50565b5f805f606084860312156200007c575f80fd5b8351620000898162000051565b60208501519093506200009c8162000051565b6040850151909250620000af8162000051565b809150509250925092565b60805160a05160c0516125ce620001395f395f8181610164015281816104cc015261057c01525f818161024701526111f001525f81816102b30152818161030d015281816106860152818161099201528181610aa901528181610b6e015281816113370152818161143a01528181611518015261156501526125ce5ff3fe6080604052600436106100f2575f3560e01c8063b4b4ba0d11610087578063df2ab5bb11610057578063df2ab5bb14610269578063ea9dcd1a1461027c578063f3995c671461028f578063fbfa77cf146102a2575f80fd5b8063b4b4ba0d146101fd578063c2e3140a14610210578063d718f18514610223578063dc4c90d314610236575f80fd5b80634aa4a4fc116100c25780634aa4a4fc14610153578063a4a78f0c1461019e578063ab6291fe146101b1578063ac9650d8146101dd575f80fd5b806312210e8a146100fd5780632d4f4f97146101075780634659a4941461012d57806349404b7c14610140575f80fd5b366100f957005b5f80fd5b6101056102d5565b005b61011a6101153660046116d5565b6102e8565b6040519081526020015b60405180910390f35b61010561013b366004611739565b610425565b61010561014e366004611796565b6104b5565b34801561015e575f80fd5b506101867f000000000000000000000000000000000000000000000000000000000000000081565b6040516001600160a01b039091168152602001610124565b6101056101ac366004611739565b6105ee565b3480156101bc575f80fd5b506101d06101cb3660046117c4565b610679565b604051610124919061187d565b6101f06101eb366004611896565b610824565b60405161012491906118f3565b61011a61020b366004611965565b61096d565b61010561021e366004611739565b610a02565b61011a6102313660046116d5565b610a84565b348015610241575f80fd5b506101867f000000000000000000000000000000000000000000000000000000000000000081565b610105610277366004611998565b610af3565b61011a61028a366004611965565b610b49565b61010561029d366004611739565b610bb8565b3480156102ad575f80fd5b506101867f000000000000000000000000000000000000000000000000000000000000000081565b47156102e6576102e65f3347610c0f565b565b5f818042111561030b57604051632a0c45bf60e21b815260040160405180910390fd5b7f00000000000000000000000000000000000000000000000000000000000000006001600160a01b03166381548319604051806060016040528060016003811115610358576103586119d7565b8152602001336001600160a01b031681526020018760405160200161037d9190611bdc565b60408051601f1981840301815291815291525161039d9190602001611bee565b6040516020818303038152906040526040518263ffffffff1660e01b81526004016103c8919061187d565b5f604051808303815f875af11580156103e3573d5f803e3d5ffd5b505050506040513d5f823e601f3d908101601f1916820160405261040a9190810190611d92565b80602001905181019061041d9190611dc4565b949350505050565b6040516323f2ebc360e21b815233600482015230602482015260448101869052606481018590526001608482015260ff841660a482015260c4810183905260e481018290526001600160a01b03871690638fcbaf0c90610104015b5f604051808303815f87803b158015610497575f80fd5b505af11580156104a9573d5f803e3d5ffd5b50505050505050505050565b6040516370a0823160e01b81523060048201525f907f00000000000000000000000000000000000000000000000000000000000000006001600160a01b0316906370a0823190602401602060405180830381865afa158015610519573d5f803e3d5ffd5b505050506040513d601f19601f8201168201806040525081019061053d9190611dc4565b90508281101561056057604051630ceb95c760e31b815260040160405180910390fd5b80156105e957604051632e1a7d4d60e01b8152600481018290527f00000000000000000000000000000000000000000000000000000000000000006001600160a01b031690632e1a7d4d906024015f604051808303815f87803b1580156105c5575f80fd5b505af11580156105d7573d5f803e3d5ffd5b506105e992505f915084905083610c0f565b505050565b604051636eb1769f60e11b81523360048201523060248201525f19906001600160a01b0388169063dd62ed3e90604401602060405180830381865afa158015610639573d5f803e3d5ffd5b505050506040513d601f19601f8201168201806040525081019061065d9190611dc4565b101561067157610671868686868686610425565b505050505050565b6060336001600160a01b037f000000000000000000000000000000000000000000000000000000000000000016146106c4576040516362df054560e01b815260040160405180910390fd5b5f6106d183850185611ddb565b90505f815160038111156106e7576106e76119d7565b0361073d5761071481604001518060200190518101906107079190612057565b8260200151600180610ca1565b60405160200161072691815260200190565b60405160208183030381529060405291505061081e565b600181516003811115610752576107526119d7565b0361077f57610714816040015180602001905181019061077291906121ca565b8260200151600180610e3e565b600281516003811115610794576107946119d7565b036107c15761071481604001518060200190518101906107b49190612057565b8260200151600180610eac565b6003815160038111156107d6576107d66119d7565b036108035761071481604001518060200190518101906107f691906121ca565b8260200151600180611018565b60405163a44acb9160e01b815260040160405180910390fd5b505b92915050565b60608167ffffffffffffffff81111561083f5761083f611c43565b60405190808252806020026020018201604052801561087257816020015b606081526020019060019003908161085d5790505b5090505f5b8281101561081c575f8030868685818110610894576108946121fc565b90506020028101906108a69190612210565b6040516108b4929190612253565b5f60405180830381855af49150503d805f81146108ec576040519150601f19603f3d011682016040523d82523d5f602084013e6108f1565b606091505b50915091508161094557604481511015610909575f80fd5b600481019050808060200190518101906109239190612262565b60405162461bcd60e51b815260040161093c919061187d565b60405180910390fd5b80848481518110610958576109586121fc565b60209081029190910101525050600101610877565b5f818042111561099057604051632a0c45bf60e21b815260040160405180910390fd5b7f00000000000000000000000000000000000000000000000000000000000000006001600160a01b031663815483196040518060600160405280600260038111156109dd576109dd6119d7565b8152602001336001600160a01b031681526020018760405160200161037d919061245e565b604051636eb1769f60e11b815233600482015230602482015285906001600160a01b0388169063dd62ed3e90604401602060405180830381865afa158015610a4c573d5f803e3d5ffd5b505050506040513d601f19601f82011682018060405250810190610a709190611dc4565b101561067157610671868686868686610bb8565b5f8180421115610aa757604051632a0c45bf60e21b815260040160405180910390fd5b7f00000000000000000000000000000000000000000000000000000000000000006001600160a01b031663815483196040518060600160405280600380811115610358576103586119d7565b5f610b06846001600160a01b0316611086565b905082811015610b2957604051630ceb95c760e31b815260040160405180910390fd5b8015610b4357610b436001600160a01b0385168383610c0f565b50505050565b5f8180421115610b6c57604051632a0c45bf60e21b815260040160405180910390fd5b7f00000000000000000000000000000000000000000000000000000000000000006001600160a01b0316638154831960405180606001604052805f60038111156109dd576109dd6119d7565b60405163d505accf60e01b8152336004820152306024820152604481018690526064810185905260ff8416608482015260a4810183905260c481018290526001600160a01b0387169063d505accf9060e401610480565b5f6001600160a01b038416610c4b575f805f8085875af1905080610c4657604051633d2cec6f60e21b815260040160405180910390fd5b610b43565b60405163a9059cbb60e01b5f52836004528260245260205f60445f80895af13d15601f3d1160015f511416171691505f606052806040525080610b4357604051633c9fd93960e21b815260040160405180910390fd5b5f610cf660408051608080820183525f8083526020808401829052845160c0810186528281529081018290528085018290526060810182905291820181905260a0820152909182019081525f60209091015290565b60208601515181525f5b8151811015610dec57610d3387602001518281518110610d2257610d226121fc565b6020026020010151885f0151611107565b151560608085018290526040808601849052908a0151908a0151610d9d939291600f0b905f908b9087158015610d6657508b5b89515f190189148015610d7657508b5b8f602001518a81518110610d8c57610d8c6121fc565b6020026020010151606001516111ec565b5f036001600160801b031660208381018290526060890191909152870151805182908110610dcd57610dcd6121fc565b6020908102919091010151516001600160a01b03168752600101610d00565b5085608001516001600160801b031681602001516001600160801b03161015610e285760405163c9f52c7160e01b815260040160405180910390fd5b602001516001600160801b031695945050505050565b5f610e6a855f015186602001518760600151600f0b8860a00151888a6040015189898d60c001516111ec565b610e7390612484565b6001600160801b0316905084608001516001600160801b031681101561041d5760405163c9f52c7160e01b815260040160405180910390fd5b5f610f0160408051608080820183525f8083526020808401829052845160c0810186528281529081018290528085018290526060810182905291820181905260a0820152909182019081525f60209091015290565b6020860151518082525b8015610fdc57610f2d87602001516001830381518110610d2257610d226121fc565b1580156060808601919091526040808601849052908a0151908a0151610f8c939291600f0b5f908103918b90600188148015610f6657508b5b895189148015610f7357508b5b8f6020015160018b0381518110610d8c57610d8c6121fc565b6001600160801b03166020808401829052606089019190915287015180515f198301908110610fbd57610fbd6121fc565b6020908102919091010151516001600160a01b031687525f1901610f0b565b5085608001516001600160801b031681602001516001600160801b03161115610e28576040516324df576f60e01b815260040160405180910390fd5b5f61104d855f015186602001518760600151600f0b611036906124b1565b8860a00151888a6040015189898d60c001516111ec565b6001600160801b0316905084608001516001600160801b031681111561041d576040516324df576f60e01b815260040160405180910390fd5b5f6001600160a01b03821661109c575047919050565b6040516370a0823160e01b81523060048201526001600160a01b038316906370a0823190602401602060405180830381865afa1580156110de573d5f803e3d5ffd5b505050506040513d601f19601f8201168201806040525081019061081e9190611dc4565b919050565b6040805160c0810182525f80825260208201819052918101829052606081018290526080810182905260a08101919091525f805f61115485875f01516001600160a01b0390811691161090565b61116057855185611165565b855185905b90925090506001600160a01b038086169083161492506040518060c00160405280836001600160a01b03168152602001826001600160a01b0316815260200187604001516001600160a01b0316815260200187608001516001600160a01b03168152602001876020015162ffffff1681526020018760a00151815250935050509250929050565b5f807f00000000000000000000000000000000000000000000000000000000000000006001600160a01b031663cd0cc1ce8c60405180606001604052808e151581526020018d81526020018c6001600160a01b03165f1461124d578c611286565b8e61127657611271600173fffd8963efd1fc6a506488495d951d5263988d266124cb565b611286565b6112866401000276a360016124eb565b6001600160a01b0316815250866040518463ffffffff1660e01b81526004016112b19392919061250b565b6020604051808303815f875af11580156112cd573d5f803e3d5ffd5b505050506040513d601f19601f820116820180604052508101906112f19190611dc4565b90508915611403575f891361130f5761130a8160801c90565b611311565b805b9150841561132f578a5161132f908861132a8460801c90565b611511565b83156113fe577f00000000000000000000000000000000000000000000000000000000000000006001600160a01b0316630b0d9c098c60200151886113718590565b61137a90612484565b6040517fffffffff0000000000000000000000000000000000000000000000000000000060e086901b1681526001600160a01b0393841660048201529290911660248301526001600160801b031660448201526064015f604051808303815f87803b1580156113e7575f80fd5b505af11580156113f9573d5f803e3d5ffd5b505050505b611503565b5f8913611410578061141a565b61141a8160801c90565b91508415611432576114328b602001518861132a8490565b8315611503577f00000000000000000000000000000000000000000000000000000000000000006001600160a01b0316630b0d9c098c5f0151886114768560801c90565b61147f90612484565b6040517fffffffff0000000000000000000000000000000000000000000000000000000060e086901b1681526001600160a01b0393841660048201529290911660248301526001600160801b031660448201526064015f604051808303815f87803b1580156114ec575f80fd5b505af11580156114fe573d5f803e3d5ffd5b505050505b509998505050505050505050565b61154683837f0000000000000000000000000000000000000000000000000000000000000000846001600160801b03166115cf565b604051636a256b2960e01b81526001600160a01b0384811660048301527f00000000000000000000000000000000000000000000000000000000000000001690636a256b29906024016020604051808303815f875af11580156115ab573d5f803e3d5ffd5b505050506040513d601f19601f82011682018060405250810190610b439190611dc4565b610b43848484846001600160a01b0383163014806115f457506001600160a01b038416155b1561160d57610c466001600160a01b0385168383610c0f565b610b436001600160a01b0385168484845f6040516323b872dd60e01b81526001600160a01b03851660048201526001600160a01b038416602482015282604482015260205f6064835f8a5af13d15601f3d1160015f5114161716915050806116b75760405162461bcd60e51b815260206004820152601460248201527f5452414e534645525f46524f4d5f4641494c4544000000000000000000000000604482015260640161093c565b5050505050565b5f61018082840312156116cf575f80fd5b50919050565b5f80604083850312156116e6575f80fd5b823567ffffffffffffffff8111156116fc575f80fd5b611708858286016116be565b95602094909401359450505050565b6001600160a01b038116811461172b575f80fd5b50565b803561110281611717565b5f805f805f8060c0878903121561174e575f80fd5b863561175981611717565b95506020870135945060408701359350606087013560ff8116811461177c575f80fd5b9598949750929560808101359460a0909101359350915050565b5f80604083850312156117a7575f80fd5b8235915060208301356117b981611717565b809150509250929050565b5f80602083850312156117d5575f80fd5b823567ffffffffffffffff808211156117ec575f80fd5b818501915085601f8301126117ff575f80fd5b81358181111561180d575f80fd5b86602082850101111561181e575f80fd5b60209290920196919550909350505050565b5f5b8381101561184a578181015183820152602001611832565b50505f910152565b5f8151808452611869816020860160208601611830565b601f01601f19169290920160200192915050565b602081525f61188f6020830184611852565b9392505050565b5f80602083850312156118a7575f80fd5b823567ffffffffffffffff808211156118be575f80fd5b818501915085601f8301126118d1575f80fd5b8135818111156118df575f80fd5b8660208260051b850101111561181e575f80fd5b5f60208083016020845280855180835260408601915060408160051b8701019250602087015f5b8281101561194857603f19888603018452611936858351611852565b9450928501929085019060010161191a565b5092979650505050505050565b5f60a082840312156116cf575f80fd5b5f8060408385031215611976575f80fd5b823567ffffffffffffffff81111561198c575f80fd5b61170885828601611955565b5f805f606084860312156119aa575f80fd5b83356119b581611717565b92506020840135915060408401356119cc81611717565b809150509250925092565b634e487b7160e01b5f52602160045260245ffd5b62ffffff8116811461172b575f80fd5b8035611102816119eb565b801515811461172b575f80fd5b803561110281611a06565b6001600160801b038116811461172b575f80fd5b803561110281611a1e565b5f808335601e19843603018112611a52575f80fd5b830160208101925035905067ffffffffffffffff811115611a71575f80fd5b803603821315611a7f575f80fd5b9250929050565b81835281816020850137505f828201602090810191909152601f909101601f19169091010190565b5f6101808235611abd81611717565b6001600160a01b039081168552602084013590611ad982611717565b9081166020860152604084013590611af082611717565b1660408501526060830135611b0481611717565b6001600160a01b03166060850152611b1e608084016119fb565b62ffffff16608085015260a08381013590850152611b3e60c08401611a13565b151560c0850152611b5160e0840161172e565b6001600160a01b031660e0850152610100611b6d848201611a32565b6001600160801b031690850152610120611b88848201611a32565b6001600160801b031690850152610140611ba384820161172e565b6001600160a01b031690850152610160611bbf84820185611a3d565b8383880152611bd18488018284611a86565b979650505050505050565b602081525f61188f6020830184611aae565b602081525f825160048110611c1157634e487b7160e01b5f52602160045260245ffd5b806020840152506001600160a01b036020840151166040830152604083015160608084015261041d6080840182611852565b634e487b7160e01b5f52604160045260245ffd5b6040516060810167ffffffffffffffff81118282101715611c7a57611c7a611c43565b60405290565b60405160a0810167ffffffffffffffff81118282101715611c7a57611c7a611c43565b60405160c0810167ffffffffffffffff81118282101715611c7a57611c7a611c43565b60405160e0810167ffffffffffffffff81118282101715611c7a57611c7a611c43565b604051601f8201601f1916810167ffffffffffffffff81118282101715611d1257611d12611c43565b604052919050565b5f67ffffffffffffffff821115611d3357611d33611c43565b50601f01601f191660200190565b5f611d53611d4e84611d1a565b611ce9565b9050828152838383011115611d66575f80fd5b61188f836020830184611830565b5f82601f830112611d83575f80fd5b61188f83835160208501611d41565b5f60208284031215611da2575f80fd5b815167ffffffffffffffff811115611db8575f80fd5b61041d84828501611d74565b5f60208284031215611dd4575f80fd5b5051919050565b5f6020808385031215611dec575f80fd5b823567ffffffffffffffff80821115611e03575f80fd5b9084019060608287031215611e16575f80fd5b611e1e611c57565b823560048110611e2c575f80fd5b815282840135611e3b81611717565b81850152604083013582811115611e50575f80fd5b80840193505086601f840112611e64575f80fd5b82359150611e74611d4e83611d1a565b8281528785848601011115611e87575f80fd5b82858501868301375f858483010152806040830152508094505050505092915050565b805161110281611717565b805161110281611a1e565b5f60a08284031215611ed0575f80fd5b611ed8611c80565b90508151611ee581611717565b815260208281015167ffffffffffffffff80821115611f02575f80fd5b818501915085601f830112611f15575f80fd5b815181811115611f2757611f27611c43565b8060051b611f36858201611ce9565b9182528381018501918581019089841115611f4f575f80fd5b86860192505b8383101561201257825185811115611f6b575f80fd5b860160c0818c03601f19011215611f80575f80fd5b611f88611ca3565b88820151611f9581611717565b8152604082810151611fa6816119eb565b828b0152606083810151611fb981611717565b808385015250608091508184015189811115611fd3575f80fd5b611fe18f8d83880101611d74565b828501525050611ff360a08401611eaa565b9082015260c0919091015160a082015282529186019190860190611f55565b80878901525050505050505061202a60408301611eaa565b604082015261203b60608301611eb5565b606082015261204c60808301611eb5565b608082015292915050565b5f60208284031215612067575f80fd5b815167ffffffffffffffff81111561207d575f80fd5b61041d84828501611ec0565b5f60c08284031215612099575f80fd5b6120a1611ca3565b905081516120ae81611717565b815260208201516120be81611717565b602082015260408201516120d181611717565b604082015260608201516120e481611717565b606082015260808201516120f7816119eb565b8060808301525060a082015160a082015292915050565b805161110281611a06565b5f610180828403121561212a575f80fd5b612132611cc6565b905061213e8383612089565b815261214c60c0830161210e565b602082015261215d60e08301611eaa565b604082015261216f6101008301611eb5565b60608201526121816101208301611eb5565b60808201526121936101408301611eaa565b60a082015261016082015167ffffffffffffffff8111156121b2575f80fd5b6121be84828501611d74565b60c08301525092915050565b5f602082840312156121da575f80fd5b815167ffffffffffffffff8111156121f0575f80fd5b61041d84828501612119565b634e487b7160e01b5f52603260045260245ffd5b5f808335601e19843603018112612225575f80fd5b83018035915067ffffffffffffffff82111561223f575f80fd5b602001915036819003821315611a7f575f80fd5b818382375f9101908152919050565b5f60208284031215612272575f80fd5b815167ffffffffffffffff811115612288575f80fd5b8201601f81018413612298575f80fd5b61041d84825160208401611d41565b5f8383855260208086019550808560051b830101845f5b8781101561238757848303601f1901895281353688900360be190181126122e3575f80fd5b870160c081356122f281611717565b6001600160a01b039081168652828701359061230d826119eb565b62ffffff821688880152604091508184013561232881611717565b1690860152606061233b83820184611a3d565b838389015261234d8489018284611a86565b9350505050608061235f81840161172e565b6001600160a01b03169086015260a091820135919094015297830197908301906001016122be565b5090979650505050505050565b5f81356123a081611717565b6001600160a01b03168352602082013536839003601e190181126123c2575f80fd5b820160208101903567ffffffffffffffff8111156123de575f80fd5b8060051b36038213156123ef575f80fd5b60a0602086015261240460a0860182846122a7565b9150506124136040840161172e565b6001600160a01b0316604085015261242d60608401611a32565b6001600160801b0316606085015261244760808401611a32565b6001600160801b0381166080860152509392505050565b602081525f61188f6020830184612394565b634e487b7160e01b5f52601160045260245ffd5b5f81600f0b6f7fffffffffffffffffffffffffffffff1981036124a9576124a9612470565b5f0392915050565b5f600160ff1b82016124c5576124c5612470565b505f0390565b6001600160a01b0382811682821603908082111561081c5761081c612470565b6001600160a01b0381811683821601908082111561081c5761081c612470565b5f6101406001600160a01b0380875116845280602088015116602085015280604088015116604085015280606088015116606085015262ffffff608088015116608085015260a087015160a08501528551151560c0850152602086015160e085015280604087015116610100850152508061012084015261258e81840185611852565b969550505050505056fea264697066735822122076bef98637ae48ab6d61d7ab0f29b2dcbfd1ac5672f57fa7d3ef7cea990c4dc164736f6c63430008180033","linkReferences":{}},"methodIdentifiers":{"WETH9()":"4aa4a4fc","exactInput((address,(address,uint24,address,bytes,address,bytes32)[],address,uint128,uint128),uint256)":"ea9dcd1a","exactInputSingle(((address,address,address,address,uint24,bytes32),bool,address,uint128,uint128,uint160,bytes),uint256)":"2d4f4f97","exactOutput((address,(address,uint24,address,bytes,address,bytes32)[],address,uint128,uint128),uint256)":"b4b4ba0d","exactOutputSingle(((address,address,address,address,uint24,bytes32),bool,address,uint128,uint128,uint160,bytes),uint256)":"d718f185","lockAcquired(bytes)":"ab6291fe","multicall(bytes[])":"ac9650d8","poolManager()":"dc4c90d3","refundETH()":"12210e8a","selfPermit(address,uint256,uint256,uint8,bytes32,bytes32)":"f3995c67","selfPermitAllowed(address,uint256,uint256,uint8,bytes32,bytes32)":"4659a494","selfPermitAllowedIfNecessary(address,uint256,uint256,uint8,bytes32,bytes32)":"a4a78f0c","selfPermitIfNecessary(address,uint256,uint256,uint8,bytes32,bytes32)":"c2e3140a","sweepToken(address,uint256,address)":"df2ab5bb","unwrapWETH9(uint256,address)":"49404b7c","vault()":"fbfa77cf"},"id":99}