{"abi":[{"type":"constructor","inputs":[{"name":"_vault","type":"address","internalType":"contract IVault"},{"name":"controllerGasLimit","type":"uint256","internalType":"uint256"}],"stateMutability":"nonpayable"},{"type":"function","name":"MAX_TICK_SPACING","inputs":[],"outputs":[{"name":"","type":"int24","internalType":"int24"}],"stateMutability":"view"},{"type":"function","name":"MIN_PROTOCOL_FEE_DENOMINATOR","inputs":[],"outputs":[{"name":"","type":"uint8","internalType":"uint8"}],"stateMutability":"view"},{"type":"function","name":"MIN_TICK_SPACING","inputs":[],"outputs":[{"name":"","type":"int24","internalType":"int24"}],"stateMutability":"view"},{"type":"function","name":"collectProtocolFees","inputs":[{"name":"recipient","type":"address","internalType":"address"},{"name":"currency","type":"address","internalType":"Currency"},{"name":"amount","type":"uint256","internalType":"uint256"}],"outputs":[{"name":"amountCollected","type":"uint256","internalType":"uint256"}],"stateMutability":"nonpayable"},{"type":"function","name":"donate","inputs":[{"name":"key","type":"tuple","internalType":"struct PoolKey","components":[{"name":"currency0","type":"address","internalType":"Currency"},{"name":"currency1","type":"address","internalType":"Currency"},{"name":"hooks","type":"address","internalType":"contract IHooks"},{"name":"poolManager","type":"address","internalType":"contract IPoolManager"},{"name":"fee","type":"uint24","internalType":"uint24"},{"name":"parameters","type":"bytes32","internalType":"bytes32"}]},{"name":"amount0","type":"uint256","internalType":"uint256"},{"name":"amount1","type":"uint256","internalType":"uint256"},{"name":"hookData","type":"bytes","internalType":"bytes"}],"outputs":[{"name":"delta","type":"int256","internalType":"BalanceDelta"}],"stateMutability":"nonpayable"},{"type":"function","name":"extsload","inputs":[{"name":"slot","type":"bytes32","internalType":"bytes32"}],"outputs":[{"name":"val","type":"bytes32","internalType":"bytes32"}],"stateMutability":"view"},{"type":"function","name":"extsload","inputs":[{"name":"slots","type":"bytes32[]","internalType":"bytes32[]"}],"outputs":[{"name":"","type":"bytes32[]","internalType":"bytes32[]"}],"stateMutability":"view"},{"type":"function","name":"getLiquidity","inputs":[{"name":"id","type":"bytes32","internalType":"PoolId"},{"name":"_owner","type":"address","internalType":"address"},{"name":"tickLower","type":"int24","internalType":"int24"},{"name":"tickUpper","type":"int24","internalType":"int24"}],"outputs":[{"name":"liquidity","type":"uint128","internalType":"uint128"}],"stateMutability":"view"},{"type":"function","name":"getLiquidity","inputs":[{"name":"id","type":"bytes32","internalType":"PoolId"}],"outputs":[{"name":"liquidity","type":"uint128","internalType":"uint128"}],"stateMutability":"view"},{"type":"function","name":"getLmPool","inputs":[{"name":"id","type":"bytes32","internalType":"PoolId"}],"outputs":[{"name":"lmPool","type":"address","internalType":"address"}],"stateMutability":"view"},{"type":"function","name":"getPosition","inputs":[{"name":"id","type":"bytes32","internalType":"PoolId"},{"name":"owner","type":"address","internalType":"address"},{"name":"tickLower","type":"int24","internalType":"int24"},{"name":"tickUpper","type":"int24","internalType":"int24"}],"outputs":[{"name":"position","type":"tuple","internalType":"struct CLPosition.Info","components":[{"name":"liquidity","type":"uint128","internalType":"uint128"},{"name":"feeGrowthInside0LastX128","type":"uint256","internalType":"uint256"},{"name":"feeGrowthInside1LastX128","type":"uint256","internalType":"uint256"}]}],"stateMutability":"view"},{"type":"function","name":"getSlot0","inputs":[{"name":"id","type":"bytes32","internalType":"PoolId"}],"outputs":[{"name":"sqrtPriceX96","type":"uint160","internalType":"uint160"},{"name":"tick","type":"int24","internalType":"int24"},{"name":"protocolFee","type":"uint16","internalType":"uint16"},{"name":"swapFee","type":"uint24","internalType":"uint24"}],"stateMutability":"view"},{"type":"function","name":"initialize","inputs":[{"name":"key","type":"tuple","internalType":"struct PoolKey","components":[{"name":"currency0","type":"address","internalType":"Currency"},{"name":"currency1","type":"address","internalType":"Currency"},{"name":"hooks","type":"address","internalType":"contract IHooks"},{"name":"poolManager","type":"address","internalType":"contract IPoolManager"},{"name":"fee","type":"uint24","internalType":"uint24"},{"name":"parameters","type":"bytes32","internalType":"bytes32"}]},{"name":"sqrtPriceX96","type":"uint160","internalType":"uint160"},{"name":"hookData","type":"bytes","internalType":"bytes"}],"outputs":[{"name":"tick","type":"int24","internalType":"int24"}],"stateMutability":"nonpayable"},{"type":"function","name":"masterChef","inputs":[],"outputs":[{"name":"","type":"address","internalType":"address"}],"stateMutability":"view"},{"type":"function","name":"modifyLiquidity","inputs":[{"name":"key","type":"tuple","internalType":"struct PoolKey","components":[{"name":"currency0","type":"address","internalType":"Currency"},{"name":"currency1","type":"address","internalType":"Currency"},{"name":"hooks","type":"address","internalType":"contract IHooks"},{"name":"poolManager","type":"address","internalType":"contract IPoolManager"},{"name":"fee","type":"uint24","internalType":"uint24"},{"name":"parameters","type":"bytes32","internalType":"bytes32"}]},{"name":"params","type":"tuple","internalType":"struct ICLPoolManager.ModifyLiquidityParams","components":[{"name":"tickLower","type":"int24","internalType":"int24"},{"name":"tickUpper","type":"int24","internalType":"int24"},{"name":"liquidityDelta","type":"int256","internalType":"int256"}]},{"name":"hookData","type":"bytes","internalType":"bytes"}],"outputs":[{"name":"delta","type":"int256","internalType":"BalanceDelta"}],"stateMutability":"nonpayable"},{"type":"function","name":"owner","inputs":[],"outputs":[{"name":"","type":"address","internalType":"address"}],"stateMutability":"view"},{"type":"function","name":"pools","inputs":[{"name":"id","type":"bytes32","internalType":"PoolId"}],"outputs":[{"name":"slot0","type":"tuple","internalType":"struct CLPool.Slot0","components":[{"name":"sqrtPriceX96","type":"uint160","internalType":"uint160"},{"name":"tick","type":"int24","internalType":"int24"},{"name":"protocolFee","type":"uint16","internalType":"uint16"},{"name":"swapFee","type":"uint24","internalType":"uint24"}]},{"name":"feeGrowthGlobal0X128","type":"uint256","internalType":"uint256"},{"name":"feeGrowthGlobal1X128","type":"uint256","internalType":"uint256"},{"name":"liquidity","type":"uint128","internalType":"uint128"},{"name":"lmPool","type":"address","internalType":"contract ICLLmPool"}],"stateMutability":"view"},{"type":"function","name":"protocolFeeController","inputs":[],"outputs":[{"name":"","type":"address","internalType":"contract IProtocolFeeController"}],"stateMutability":"view"},{"type":"function","name":"protocolFeesAccrued","inputs":[{"name":"currency","type":"address","internalType":"Currency"}],"outputs":[{"name":"","type":"uint256","internalType":"uint256"}],"stateMutability":"view"},{"type":"function","name":"renounceOwnership","inputs":[],"outputs":[],"stateMutability":"nonpayable"},{"type":"function","name":"setLmPool","inputs":[{"name":"key","type":"tuple","internalType":"struct PoolKey","components":[{"name":"currency0","type":"address","internalType":"Currency"},{"name":"currency1","type":"address","internalType":"Currency"},{"name":"hooks","type":"address","internalType":"contract IHooks"},{"name":"poolManager","type":"address","internalType":"contract IPoolManager"},{"name":"fee","type":"uint24","internalType":"uint24"},{"name":"parameters","type":"bytes32","internalType":"bytes32"}]},{"name":"lmPool","type":"address","internalType":"address"}],"outputs":[],"stateMutability":"nonpayable"},{"type":"function","name":"setMasterChef","inputs":[{"name":"_masterChef","type":"address","internalType":"address"}],"outputs":[],"stateMutability":"nonpayable"},{"type":"function","name":"setProtocolFee","inputs":[{"name":"key","type":"tuple","internalType":"struct PoolKey","components":[{"name":"currency0","type":"address","internalType":"Currency"},{"name":"currency1","type":"address","internalType":"Currency"},{"name":"hooks","type":"address","internalType":"contract IHooks"},{"name":"poolManager","type":"address","internalType":"contract IPoolManager"},{"name":"fee","type":"uint24","internalType":"uint24"},{"name":"parameters","type":"bytes32","internalType":"bytes32"}]}],"outputs":[],"stateMutability":"nonpayable"},{"type":"function","name":"setProtocolFeeController","inputs":[{"name":"controller","type":"address","internalType":"contract IProtocolFeeController"}],"outputs":[],"stateMutability":"nonpayable"},{"type":"function","name":"swap","inputs":[{"name":"key","type":"tuple","internalType":"struct PoolKey","components":[{"name":"currency0","type":"address","internalType":"Currency"},{"name":"currency1","type":"address","internalType":"Currency"},{"name":"hooks","type":"address","internalType":"contract IHooks"},{"name":"poolManager","type":"address","internalType":"contract IPoolManager"},{"name":"fee","type":"uint24","internalType":"uint24"},{"name":"parameters","type":"bytes32","internalType":"bytes32"}]},{"name":"params","type":"tuple","internalType":"struct ICLPoolManager.SwapParams","components":[{"name":"zeroForOne","type":"bool","internalType":"bool"},{"name":"amountSpecified","type":"int256","internalType":"int256"},{"name":"sqrtPriceLimitX96","type":"uint160","internalType":"uint160"}]},{"name":"hookData","type":"bytes","internalType":"bytes"}],"outputs":[{"name":"delta","type":"int256","internalType":"BalanceDelta"}],"stateMutability":"nonpayable"},{"type":"function","name":"transferOwnership","inputs":[{"name":"newOwner","type":"address","internalType":"address"}],"outputs":[],"stateMutability":"nonpayable"},{"type":"function","name":"updateDynamicSwapFee","inputs":[{"name":"key","type":"tuple","internalType":"struct PoolKey","components":[{"name":"currency0","type":"address","internalType":"Currency"},{"name":"currency1","type":"address","internalType":"Currency"},{"name":"hooks","type":"address","internalType":"contract IHooks"},{"name":"poolManager","type":"address","internalType":"contract IPoolManager"},{"name":"fee","type":"uint24","internalType":"uint24"},{"name":"parameters","type":"bytes32","internalType":"bytes32"}]}],"outputs":[],"stateMutability":"nonpayable"},{"type":"function","name":"vault","inputs":[],"outputs":[{"name":"","type":"address","internalType":"contract IVault"}],"stateMutability":"view"},{"type":"event","name":"Donate","inputs":[{"name":"id","type":"bytes32","indexed":true,"internalType":"PoolId"},{"name":"sender","type":"address","indexed":true,"internalType":"address"},{"name":"amount0","type":"uint256","indexed":false,"internalType":"uint256"},{"name":"amount1","type":"uint256","indexed":false,"internalType":"uint256"},{"name":"tick","type":"int24","indexed":false,"internalType":"int24"}],"anonymous":false},{"type":"event","name":"DynamicSwapFeeUpdated","inputs":[{"name":"id","type":"bytes32","indexed":true,"internalType":"PoolId"},{"name":"dynamicSwapFee","type":"uint24","indexed":false,"internalType":"uint24"}],"anonymous":false},{"type":"event","name":"Initialize","inputs":[{"name":"id","type":"bytes32","indexed":true,"internalType":"PoolId"},{"name":"currency0","type":"address","indexed":true,"internalType":"Currency"},{"name":"currency1","type":"address","indexed":true,"internalType":"Currency"},{"name":"fee","type":"uint24","indexed":false,"internalType":"uint24"},{"name":"tickSpacing","type":"int24","indexed":false,"internalType":"int24"},{"name":"hooks","type":"address","indexed":false,"internalType":"contract ICLHooks"}],"anonymous":false},{"type":"event","name":"ModifyLiquidity","inputs":[{"name":"id","type":"bytes32","indexed":true,"internalType":"PoolId"},{"name":"sender","type":"address","indexed":true,"internalType":"address"},{"name":"tickLower","type":"int24","indexed":false,"internalType":"int24"},{"name":"tickUpper","type":"int24","indexed":false,"internalType":"int24"},{"name":"liquidityDelta","type":"int256","indexed":false,"internalType":"int256"}],"anonymous":false},{"type":"event","name":"OwnershipTransferred","inputs":[{"name":"previousOwner","type":"address","indexed":true,"internalType":"address"},{"name":"newOwner","type":"address","indexed":true,"internalType":"address"}],"anonymous":false},{"type":"event","name":"ProtocolFeeControllerUpdated","inputs":[{"name":"protocolFeeController","type":"address","indexed":false,"internalType":"address"}],"anonymous":false},{"type":"event","name":"ProtocolFeeUpdated","inputs":[{"name":"id","type":"bytes32","indexed":true,"internalType":"PoolId"},{"name":"protocolFee","type":"uint16","indexed":false,"internalType":"uint16"}],"anonymous":false},{"type":"event","name":"SetLmPool","inputs":[{"name":"id","type":"bytes32","indexed":true,"internalType":"PoolId"},{"name":"lmPool","type":"address","indexed":false,"internalType":"address"}],"anonymous":false},{"type":"event","name":"SetMasterChef","inputs":[{"name":"masterChef","type":"address","indexed":false,"internalType":"address"}],"anonymous":false},{"type":"event","name":"Swap","inputs":[{"name":"id","type":"bytes32","indexed":true,"internalType":"PoolId"},{"name":"sender","type":"address","indexed":true,"internalType":"address"},{"name":"amount0","type":"int128","indexed":false,"internalType":"int128"},{"name":"amount1","type":"int128","indexed":false,"internalType":"int128"},{"name":"sqrtPriceX96","type":"uint160","indexed":false,"internalType":"uint160"},{"name":"liquidity","type":"uint128","indexed":false,"internalType":"uint128"},{"name":"tick","type":"int24","indexed":false,"internalType":"int24"},{"name":"fee","type":"uint24","indexed":false,"internalType":"uint24"},{"name":"protocolFee","type":"uint256","indexed":false,"internalType":"uint256"}],"anonymous":false},{"type":"error","name":"CannotUpdateEmptyPosition","inputs":[]},{"type":"error","name":"CurrenciesInitializedOutOfOrder","inputs":[]},{"type":"error","name":"FeeNotDynamic","inputs":[]},{"type":"error","name":"FeeTooLarge","inputs":[]},{"type":"error","name":"HookConfigValidationError","inputs":[]},{"type":"error","name":"InvalidHookResponse","inputs":[]},{"type":"error","name":"InvalidPrice","inputs":[]},{"type":"error","name":"InvalidPriceOrLiquidity","inputs":[]},{"type":"error","name":"InvalidProtocolFeeCollector","inputs":[]},{"type":"error","name":"InvalidSqrtPriceLimit","inputs":[{"name":"sqrtPriceCurrentX96","type":"uint160","internalType":"uint160"},{"name":"sqrtPriceLimitX96","type":"uint160","internalType":"uint160"}]},{"type":"error","name":"InvalidSqrtRatio","inputs":[]},{"type":"error","name":"InvalidTick","inputs":[]},{"type":"error","name":"NoLiquidityToReceiveFees","inputs":[]},{"type":"error","name":"NoOpHookMissingBeforeCall","inputs":[]},{"type":"error","name":"NotEnoughLiquidity","inputs":[]},{"type":"error","name":"PoolAlreadyInitialized","inputs":[]},{"type":"error","name":"PoolManagerMismatch","inputs":[]},{"type":"error","name":"PoolNotInitialized","inputs":[]},{"type":"error","name":"PoolNotInitialized","inputs":[]},{"type":"error","name":"PriceOverflow","inputs":[]},{"type":"error","name":"ProtocolFeeCannotBeFetched","inputs":[]},{"type":"error","name":"ProtocolFeeControllerCallFailedOrInvalidResult","inputs":[]},{"type":"error","name":"SafeCastOverflow","inputs":[]},{"type":"error","name":"SwapAmountCannotBeZero","inputs":[]},{"type":"error","name":"TickLiquidityOverflow","inputs":[{"name":"tick","type":"int24","internalType":"int24"}]},{"type":"error","name":"TickLowerOutOfBounds","inputs":[{"name":"tickLower","type":"int24","internalType":"int24"}]},{"type":"error","name":"TickMisaligned","inputs":[{"name":"tick","type":"int24","internalType":"int24"},{"name":"tickSpacing","type":"int24","internalType":"int24"}]},{"type":"error","name":"TickSpacingTooLarge","inputs":[]},{"type":"error","name":"TickSpacingTooSmall","inputs":[]},{"type":"error","name":"TickUpperOutOfBounds","inputs":[{"name":"tickUpper","type":"int24","internalType":"int24"}]},{"type":"error","name":"TicksMisordered","inputs":[{"name":"tickLower","type":"int24","internalType":"int24"},{"name":"tickUpper","type":"int24","internalType":"int24"}]},{"type":"error","name":"UnauthorizedCaller","inputs":[]}],"bytecode":{"object":"0x60c060405234801562000010575f80fd5b50604051620054f4380380620054f48339810160408190526200003391620000a9565b818162000040336200005a565b6001600160a01b0390911660805260a05250620000e29050565b5f80546001600160a01b038381166001600160a01b0319831681178455604051919092169283917f8be0079c531659141344cd1fd0a4f28419497f9722a3daafe3b4186f6b6457e09190a35050565b5f8060408385031215620000bb575f80fd5b82516001600160a01b0381168114620000d2575f80fd5b6020939093015192949293505050565b60805160a0516153cd620001275f395f8181611cec0152611d4301525f818161061a01528181610eb5015281816111e60152818161148b015261185101526153cd5ff3fe608060405234801561000f575f80fd5b50600436106101bb575f3560e01c80638da5cb5b116100f3578063ee68111411610093578063f2fde38b1161006e578063f2fde38b146105c3578063f427ddba146105d6578063fa6793d5146105e9578063fbfa77cf14610615575f80fd5b8063ee6811141461058a578063f02de3b21461059d578063f15b275f146105b0575f80fd5b8063b5217bb4116100ce578063b5217bb4146103a8578063c815641c146104aa578063cd0cc1ce14610557578063dbd035ff1461056a575f80fd5b80638da5cb5b1461036657806397e8cd4e14610376578063a2d9f4dc14610395575f80fd5b8063575a86b21161015e57806360460f061161013957806360460f0614610328578063715018a6146103315780638161b8741461033957806384e41c5e1461034c575f80fd5b8063575a86b2146102d75780635afdef74146103025780635c3379f914610315575f80fd5b8063222bb36b11610199578063222bb36b1461023d57806323a8c31f146102505780632d7713891461026557806333aa955b14610278575f80fd5b8063048d9c70146101bf57806307eff0dd146102025780631e2eaeaf1461021d575b5f80fd5b6101d26101cd3660046145c2565b61063c565b6040805182516001600160801b031681526020808401519082015291810151908201526060015b60405180910390f35b61020a600181565b60405160029190910b81526020016101f9565b61022f61022b36600461460e565b5490565b6040519081526020016101f9565b61020a61024b36600461478b565b6106c8565b61026361025e3660046147ec565b610a30565b005b610263610273366004614822565b610adb565b6102bf6102863660046145c2565b5f93845260036020818152604080872060069490945293909152928452601a600c2084526007019091529020546001600160801b031690565b6040516001600160801b0390911681526020016101f9565b6004546102ea906001600160a01b031681565b6040516001600160a01b0390911681526020016101f9565b61026361031036600461483d565b610b38565b61022f610323366004614857565b610bc8565b61020a617fff81565b61026361110b565b61022f6103473660046148d8565b61111e565b610354600481565b60405160ff90911681526020016101f9565b5f546001600160a01b03166102ea565b61022f610384366004614822565b60016020525f908152604090205481565b6102636103a3366004614822565b611244565b61043c6103b636600461460e565b600360208181525f928352604092839020835160808101855281546001600160a01b038082168352600160a01b8204600290810b95840195909552600160b81b820461ffff1696830196909652600160c81b900462ffffff1660608201526001820154928201549382015460049092015490949293926001600160801b03909216911685565b6040805186516001600160a01b03908116825260208089015160020b908301528783015161ffff169282019290925260609687015162ffffff1696810196909652608086019490945260a08501929092526001600160801b031660c08401521660e0820152610100016101f9565b61051c6104b836600461460e565b5f90815260036020908152604091829020825160808101845290546001600160a01b038116808352600160a01b820460020b938301849052600160b81b820461ffff16948301859052600160c81b90910462ffffff16606090920182905293919291565b604080516001600160a01b03909516855260029390930b602085015261ffff9091169183019190915262ffffff1660608201526080016101f9565b61022f610565366004614916565b61129a565b61057d61057836600461499f565b6116a4565b6040516101f99190614a40565b6102ea61059836600461460e565b6116d2565b6002546102ea906001600160a01b031681565b61022f6105be366004614a83565b6116ee565b6102636105d1366004614822565b6119c1565b6102636105e436600461483d565b611a56565b6102bf6105f736600461460e565b5f90815260036020819052604090912001546001600160801b031690565b6102ea7f000000000000000000000000000000000000000000000000000000000000000081565b61066660405180606001604052805f6001600160801b031681526020015f81526020015f81525090565b5f858152600360208181526040808420600687905292879052878452601a600c2084526007909201905290206040805160608101825282546001600160801b03168152600183015460208201526002909201549082015290505b949350505050565b60608401515f90306001600160a01b038216146106f8576040516341bcf19160e11b815260040160405180910390fd5b6080860151620f4240620fffff9091161061072657604051637e2df70960e11b815260040160405180910390fd5b5f6107348760a00151611b03565b9050617fff600282900b131561075d57604051635815aee160e11b815260040160405180910390fd5b6001600282900b121561078357604051630b7f3b4b60e11b815260040160405180910390fd5b865160208801516001600160a01b039081169116106107b5576040516305a25e7160e11b815260040160405180910390fd5b60408701516107c388611b13565b6107cc88611c00565b60a08801516107db905f611c8f565b1561087e57604051634b970cd160e11b808252906001600160a01b0383169063972e19a2906108169033908d908d908d908d90600401614b11565b6020604051808303815f875af1158015610832573d5f803e3d5ffd5b505050506040513d601f19601f820116820180604052508101906108569190614b96565b6001600160e01b0319161461087e57604051631e048e1d60e01b815260040160405180910390fd5b5f61088889611ca6565b90505f6108948a611cd5565b60808c01519092505f915062800000166108b75760808b0151620fffff166108c0565b6108c08b611e54565b5f8481526003602052604090209091506108dc908b8484611ef5565b96508a602001516001600160a01b03168b5f01516001600160a01b0316847f3fd553db44f207b1f41348cfc4d251860814af9eadc470e8e7895e4d120511f48e6080015189896040516109559392919062ffffff93909316835260029190910b60208301526001600160a01b0316604082015260600190565b60405180910390a460a08b015161096d906001611c8f565b15610a2257631ffe6a5860e01b6001600160e01b031916846001600160a01b0316631ffe6a58338e8e8c8f8f6040518763ffffffff1660e01b81526004016109ba96959493929190614bbd565b6020604051808303815f875af11580156109d6573d5f803e3d5ffd5b505050506040513d601f19601f820116820180604052508101906109fa9190614b96565b6001600160e01b03191614610a2257604051631e048e1d60e01b815260040160405180910390fd5b505050505050949350505050565b6004546001600160a01b03163314801590610a5557505f546001600160a01b03163314155b15610a7357604051635c427cd960e01b815260040160405180910390fd5b5f610a7d83611ca6565b5f818152600360205260409020909150610a979083611fe2565b6040516001600160a01b038316815281907f3243472b273ee2a43e46423bab8bbd85d5710efee41e4a46c681d6e94c0adae6906020015b60405180910390a2505050565b610ae361202f565b600280546001600160a01b0319166001600160a01b0383169081179091556040519081527fb4bd8ef53df690b9943d3318996006dbb82a25f54719d8c8035b516a2a5b8acc906020015b60405180910390a150565b5f80610b4383611cd5565b9150915081610b655760405163e7ca185f60e01b815260040160405180910390fd5b5f610b6f84611ca6565b5f818152600360205260409020909150610b899083612088565b60405161ffff8316815281907f9f9496a7bce5dc5951d2db4c6bac380c9bcbcc9a4e9c18eafbcc231d06de481a9060200160405180910390a250505050565b60608401515f90306001600160a01b03821614610bf8576040516341bcf19160e11b815260040160405180910390fd5b5f610c0287611ca6565b9050610c0d816120e7565b604080880151908701515f128015610c30575060a0880151610c30906002611c8f565b15610d07576040516330227e9f60e21b81525f906001600160a01b0383169063c089fa7c90610c6b9033908d908d908d908d90600401614c4d565b6020604051808303815f875af1158015610c87573d5f803e3d5ffd5b505050506040513d601f19601f82011682018060405250810190610cab9190614b96565b60a08a0151909150610cbf90600a8361211b565b15610cd0575f199450505050611102565b6001600160e01b031981166330227e9f60e21b14610d0157604051631e048e1d60e01b815260040160405180910390fd5b50610e2b565b5f876040015113158015610d26575060a0880151610d26906004611c8f565b15610e2b576040517fff9cc8e60000000000000000000000000000000000000000000000000000000081525f906001600160a01b0383169063ff9cc8e690610d7a9033908d908d908d908d90600401614c4d565b6020604051808303815f875af1158015610d96573d5f803e3d5ffd5b505050506040513d601f19601f82011682018060405250810190610dba9190614b96565b60a08a0151909150610dce90600a8361211b565b15610ddf575f199450505050611102565b6001600160e01b031981167fff9cc8e60000000000000000000000000000000000000000000000000000000014610e2957604051631e048e1d60e01b815260040160405180910390fd5b505b610e9b6040518060a00160405280336001600160a01b03168152602001895f015160020b8152602001896020015160020b8152602001610e6e8a60400151612174565b600f0b8152602001610e838b60a00151611b03565b60020b90525f84815260036020526040902090612199565b604051630c05145560e21b81529094506001600160a01b037f00000000000000000000000000000000000000000000000000000000000000001690633014515490610eee908b9088903390600401614cee565b5f604051808303815f87803b158015610f05575f80fd5b505af1158015610f17573d5f803e3d5ffd5b505088516020808b01516040808d01518151600295860b81529290940b9282019290925280820192909252513393508592507f541c041c2cce48e614b3de043c9280f06b6164c0a1741649e2de3c3d375f79749181900360600190a35f8760400151138015610f91575060a0880151610f91906003611c8f565b1561103b57604051631e3b7a8360e01b808252906001600160a01b03831690631e3b7a8390610fce9033908d908d908b908e908e90600401614d65565b6020604051808303815f875af1158015610fea573d5f803e3d5ffd5b505050506040513d601f19601f8201168201806040525081019061100e9190614b96565b6001600160e01b0319161461103657604051631e048e1d60e01b815260040160405180910390fd5b6110ff565b5f87604001511315801561105a575060a088015161105a906005611c8f565b156110ff5760405163b23855d360e01b808252906001600160a01b0383169063b23855d3906110979033908d908d908b908e908e90600401614d65565b6020604051808303815f875af11580156110b3573d5f803e3d5ffd5b505050506040513d601f19601f820116820180604052508101906110d79190614b96565b6001600160e01b031916146110ff57604051631e048e1d60e01b815260040160405180910390fd5b50505b50949350505050565b61111361202f565b61111c5f612385565b565b5f80546001600160a01b0316331480159061114457506002546001600160a01b03163314155b1561116257604051635b5c395f60e01b815260040160405180910390fd5b811561116e5781611187565b6001600160a01b0383165f908152600160205260409020545b6001600160a01b0384165f908152600160205260408120805492935083929091906111b3908490614e21565b909155505060405163eb78b43560e01b81526001600160a01b0384811660048301526024820183905285811660448301527f0000000000000000000000000000000000000000000000000000000000000000169063eb78b435906064015f604051808303815f87803b158015611227575f80fd5b505af1158015611239573d5f803e3d5ffd5b505050509392505050565b61124c61202f565b600480546001600160a01b0319166001600160a01b0383169081179091556040519081527fd552c738541d32420dc50532aa4d09df4032b4739ce4025e688382694313871c90602001610b2d565b60608401515f90306001600160a01b038216146112ca576040516341bcf19160e11b815260040160405180910390fd5b5f6112d487611ca6565b90506112df816120e7565b604087015160a08801516112f4906006611c8f565b156113c75760405163e592dc9360e01b81525f906001600160a01b0383169063e592dc939061132f9033908d908d908d908d90600401614e34565b6020604051808303815f875af115801561134b573d5f803e3d5ffd5b505050506040513d601f19601f8201168201806040525081019061136f9190614b96565b60a08a015190915061138390600a8361211b565b15611394575f199450505050611102565b6001600160e01b0319811663e592dc9360e01b146113c557604051631e048e1d60e01b815260040160405180910390fd5b505b60408051610100810182525f80825260208201819052918101829052606081018290526080810182905260a0810182905260c0810182905260e081019190915261146f60405180608001604052806114228c60a00151611b03565b60020b81526020018a5f0151151581526020018a6020015181526020018a604001516001600160a01b031681525060035f8681526020019081526020015f206123d490919063ffffffff16565b604051630c05145560e21b815291965091506001600160a01b037f000000000000000000000000000000000000000000000000000000000000000016906330145154906114c4908c9089903390600401614cee565b5f604051808303815f87803b1580156114db575f80fd5b505af11580156114ed573d5f803e3d5ffd5b5050505060c081015115611538578060c0015160015f8a5f0151611515578b60200151611518565b8b515b6001600160a01b0316815260208101919091526040015f20805490910190555b33837fc5dfe1011e80c9b7f892c298cc5733a4b7148919058624a5a4d6f7f66cc3e4506115658860801c90565b8860408087015160e0880151606089015160808a015160c08b015194516115db97969590600f97880b81529590960b60208601526001600160a01b039390931660408501526001600160801b0391909116606084015260020b608083015262ffffff1660a082015260c081019190915260e00190565b60405180910390a360a08901516115f3906007611c8f565b1561169857604051636f6657cb60e01b808252906001600160a01b03841690636f6657cb906116309033908e908e908c908f908f90600401614ec9565b6020604051808303815f875af115801561164c573d5f803e3d5ffd5b505050506040513d601f19601f820116820180604052508101906116709190614b96565b6001600160e01b0319161461169857604051631e048e1d60e01b815260040160405180910390fd5b50505050949350505050565b606060208251028201602001602083015b818110156116ca5780515481526020016116b5565b509192915050565b5f8181526003602052604081206116e890612c6c565b92915050565b60608501515f90306001600160a01b0382161461171e576040516341bcf19160e11b815260040160405180910390fd5b5f61172888611ca6565b9050611733816120e7565b604088015160a0890151611748906008611c8f565b1561181d57604051634b6a682d60e01b81525f906001600160a01b03831690634b6a682d906117859033908e908e908e908e908e90600401614f5e565b6020604051808303815f875af11580156117a1573d5f803e3d5ffd5b505050506040513d601f19601f820116820180604052508101906117c59190614b96565b60a08b01519091506117d990600a8361211b565b156117ea575f1994505050506119b7565b6001600160e01b03198116634b6a682d60e01b1461181b57604051631e048e1d60e01b815260040160405180910390fd5b505b5f828152600360205260408120611835908a8a612cae565b604051630c05145560e21b815291965091506001600160a01b037f0000000000000000000000000000000000000000000000000000000000000000169063301451549061188a908d9089903390600401614cee565b5f604051808303815f87803b1580156118a1575f80fd5b505af11580156118b3573d5f803e3d5ffd5b5050604080518c8152602081018c9052600285900b8183015290513393508692507fbe708911656ae186ac3fc26a794e5f1319609ce340a14c63524f985fee4bc8419181900360600190a360a08a015161190e906009611c8f565b156119b3576040516329826a2760e11b808252906001600160a01b03841690635304d44e9061194b9033908f908f908f908f908f90600401614f5e565b6020604051808303815f875af1158015611967573d5f803e3d5ffd5b505050506040513d601f19601f8201168201806040525081019061198b9190614b96565b6001600160e01b031916146119b357604051631e048e1d60e01b815260040160405180910390fd5b5050505b5095945050505050565b6119c961202f565b6001600160a01b038116611a4a5760405162461bcd60e51b815260206004820152602660248201527f4f776e61626c653a206e6577206f776e657220697320746865207a65726f206160448201527f646472657373000000000000000000000000000000000000000000000000000060648201526084015b60405180910390fd5b611a5381612385565b50565b6080810151628000001615611acc575f611a6f82611e54565b90505f611a7b83611ca6565b5f818152600360205260409020909150611a959083612d65565b60405162ffffff8316815281907fdda45bdfb4c4d89a045919c537cb189db3745c4b1977d65f1d7cf60b585e7b7290602001610ace565b604051636807896960e11b815260040160405180910390fd5b6006526003525f908152601a600c2081526020919091526040902090565b5f6116e88260101c62ffffff1690565b5f611b218260a00151612dac565b60408301519091506001600160a01b0316611b715761ffff8116158015611b4f575060808201516280000016155b15611b58575050565b604051631fdd41b760e21b815260040160405180910390fd5b8061ffff1682604001516001600160a01b031663f961d1f46040518163ffffffff1660e01b8152600401602060405180830381865afa158015611bb6573d5f803e3d5ffd5b505050506040513d601f19601f82011682018060405250810190611bda9190614fe7565b61ffff1614611bfc57604051631fdd41b760e21b815260040160405180910390fd5b5050565b60a0810151611c1090600a611c8f565b15611a535760a0810151611c25906002611c8f565b158015611c3f575060a0810151611c3d906004611c8f565b155b8015611c58575060a0810151611c56906006611c8f565b155b8015611c71575060a0810151611c6f906008611c8f565b155b15611a5357604051630e808b3760e31b815260040160405180910390fd5b5f611c9f8360ff84161c60011690565b9392505050565b5f81604051602001611cb89190615008565b604051602081830303815290604052805190602001209050919050565b6002545f9081906001600160a01b031615611e4f577f00000000000000000000000000000000000000000000000000000000000000005a1015611d2b57604051630f724b8160e11b815260040160405180910390fd5b6002546040515f9182916001600160a01b03909116907f00000000000000000000000000000000000000000000000000000000000000009063118d587360e21b90611d7a908990602401615008565b60408051601f198184030181529181526020820180516001600160e01b03166001600160e01b0319909416939093179092529051611db89190615061565b5f604051808303815f8787f1925050503d805f8114611df2576040519150601f19603f3d011682016040523d82523d5f602084013e611df7565b606091505b5091509150811580611e0a575060208151115b15611e1b57505f9485945092505050565b602081015161ffff811681148015611e375750611e3781612db7565b611e42575f80611e46565b6001815b90955093505050505b915091565b5f81604001516001600160a01b03166399c46d9933846040518363ffffffff1660e01b8152600401611e8792919061508d565b602060405180830381865afa158015611ea2573d5f803e3d5ffd5b505050506040513d601f19601f82011682018060405250810190611ec691906150f5565b9050620f424062ffffff821610611ef057604051637e2df70960e11b815260040160405180910390fd5b919050565b83545f906001600160a01b031615611f2057604051637983c05160e01b815260040160405180910390fd5b611f2984612e26565b604080516080810182526001600160a01b0396909616808752600283900b602088015261ffff9590951690860181905262ffffff9384166060909601869052865476ffffffffffffffffffffffffffffffffffffffffffffff1916909417600160a01b93821693909302929092177fffffffff0000000000ffffffffffffffffffffffffffffffffffffffffffffff16600160b81b90930262ffffff60c81b191692909217600160c81b90930292909217909255919050565b81546001600160a01b031661200a5760405163486aa30760e01b815260040160405180910390fd5b60049190910180546001600160a01b0319166001600160a01b03909216919091179055565b5f546001600160a01b0316331461111c5760405162461bcd60e51b815260206004820181905260248201527f4f776e61626c653a2063616c6c6572206973206e6f7420746865206f776e65726044820152606401611a41565b81546001600160a01b03166120b05760405163486aa30760e01b815260040160405180910390fd5b815461ffff909116600160b81b027fffffffffffffff0000ffffffffffffffffffffffffffffffffffffffffffffff909116179055565b5f818152600360205260409020546001600160a01b0316611a535760405163486aa30760e01b815260040160405180910390fd5b5f6121268484611c8f565b80156106c057506040516304e6f4f760e41b6020820152602401604051602081830303815290604052805190602001206001600160e01b031916826001600160e01b03191614949350505050565b80600f81900b8114611ef0576040516393dafdf160e01b815260040160405180910390fd5b6040805160808101825283546001600160a01b0381168252600160a01b810460020b602080840191909152600160b81b820461ffff1683850152600160c81b90910462ffffff166060830152830151918301515f926121f791613138565b5f80612208868685602001516131d4565b915091508460600151600f0b5f1461234a575f80866020015160020b856020015160020b12156122685761226161225c61224589602001516133da565b6122528a604001516133da565b8a606001516136f5565b612174565b9150612335565b866040015160020b856020015160020b12156123085761229561225c865f01516122528a604001516133da565b91506122b661225c6122aa89602001516133da565b875160608b0151613730565b600389015460608901519192506122d8916001600160801b039091169061375c565b6003890180546fffffffffffffffffffffffffffffffff19166001600160801b0392909216919091179055612335565b61233261225c61231b89602001516133da565b6123288a604001516133da565b8a60600151613730565b90505b6001600160801b038116608083901b17955050505b61237b8461237661235a8561378c565b6123638561378c565b6001600160801b031660809190911b1790565b6137c2565b9695505050505050565b5f80546001600160a01b038381166001600160a01b0319831681178455604051919092169283917f8be0079c531659141344cd1fd0a4f28419497f9722a3daafe3b4186f6b6457e09190a35050565b60408051610100810182525f80825260208201819052918101829052606081018290526080810182905260a0810182905260c0810182905260e0810182905282604001515f036124375760405163be8b850760e01b815260040160405180910390fd5b6040805160808101825285546001600160a01b0381168252600160a01b810460020b602080840191909152600160b81b820461ffff1693830193909352600160c81b900462ffffff166060820152908401516124e457805f01516001600160a01b031684606001516001600160a01b03161115806124df575073fffd8963efd1fc6a506488495d951d5263988d266001600160a01b031684606001516001600160a01b031610155b612527565b805f01516001600160a01b031684606001516001600160a01b031610158061252757506401000276a36001600160a01b031684606001516001600160a01b031611155b1561255f5780516060850151604051635ae20f7f60e11b81526001600160a01b03928316600482015291166024820152604401611a41565b6040805180820190915260038601546001600160801b031681526020858101515f929182019061259b576008846040015161ffff16901c6125ad565b61010084604001516125ad9190615124565b60ff16905260048701549091506001600160a01b03168015612624576040516310a537f160e11b815263ffffffff421660048201526001600160a01b0382169063214a6fe2906024015f604051808303815f87803b15801561260d575f80fd5b505af115801561261f573d5f803e3d5ffd5b505050505b5f808760400151139050604051806101000160405280886040015181526020015f8152602001855f01516001600160a01b03168152602001856020015160020b8152602001856060015162ffffff168152602001886020015161268b578960020154612691565b89600101545b81525f602080830182905286516001600160801b0316604093840152825160e081018452828152908101829052918201819052606082018190526080820181905260a0820181905260c08201529095505b85511580159061270c575087606001516001600160a01b031686604001516001600160a01b031614155b15612afa5760408601516001600160a01b031681526060860151885160208a015161273d9260068d019290916137ee565b1515604083015260020b60208201819052620d89e719131561276857620d89e719602082015261279c565b612775620d89e719615144565b60020b816020015160020b131561279c57612793620d89e719615144565b60020b60208201525b6127a981602001516133da565b6001600160a01b031660608201526040860151602089015161282f91906127ec5789606001516001600160a01b031683606001516001600160a01b03161161280a565b89606001516001600160a01b031683606001516001600160a01b0316105b61281857826060015161281e565b89606001515b60e0890151895160808b0151613928565b60c085015260a084015260808301526001600160a01b031660408701528115612891576128658160c00151826080015101613b10565b865103865260a081015161287890613b10565b86602001516128879190615164565b60208701526128d4565b61289e8160a00151613b10565b865101865260c081015160808201516128bf916128ba9161518a565b613b10565b86602001516128ce919061519d565b60208701525b602084015160ff1615612910575f846020015160ff168260c001516128f991906151c4565b60c080840180518390039052880180519091019052505b60e08601516001600160801b03161561294f576129438160c00151600160801b8860e001516001600160801b0316613b52565b60a08701805190910190525b80606001516001600160a01b031686604001516001600160a01b031603612ac857806040015115612a9f576001600160a01b038316156129f4576020818101519089015160405163a498463360e01b815260029290920b6004830152151560248201526001600160a01b0384169063a4984633906044015f604051808303815f87803b1580156129dd575f80fd5b505af11580156129ef573d5f803e3d5ffd5b505050505b5f612a6882602001518a60200151612a10578b60010154612a16565b8860a001515b8b60200151612a29578960a00151612a2f565b8c600201545b600292830b5f90815260058f0160205260409020600181018054909303909255918101805490920390915554600160801b9004600f0b90565b9050886020015115612a77575f035b60e0870151612a8f906001600160801b03168261375c565b6001600160801b031660e0880152505b8760200151612ab2578060200151612abb565b60018160200151035b60020b60608701526126e2565b805f01516001600160a01b031686604001516001600160a01b031614612af557612abb8660400151612e26565b6126e2565b846020015160020b866060015160020b14612b6357604086015160608701518a5476ffffffffffffffffffffffffffffffffffffffffffffff1916600160a01b62ffffff909216919091026001600160a01b031916176001600160a01b03909116178955612b83565b604086015189546001600160a01b0319166001600160a01b039091161789555b8560e001516001600160801b0316845f01516001600160801b031614612bd35760e086015160038a0180546fffffffffffffffffffffffffffffffff19166001600160801b039092169190911790555b876020015115612bec5760a086015160018a0155612bf7565b60a086015160028a01555b5f808315158a60200151151514612c2c57612c158860200151612174565b612c27895f01518c6040015103612174565b612c4b565b612c3e885f01518b6040015103612174565b612c4b8960200151612174565b6001600160801b031660809190911b179b979a509698505050505050505050565b5f612c7f82546001600160a01b03161590565b15612c9d5760405163486aa30760e01b815260040160405180910390fd5b50600401546001600160a01b031690565b60038301545f9081906001600160801b03168103612cdf5760405163a74f97ab60e01b815260040160405180910390fd5b612ceb61235a8561378c565b91508315612d1e576003850154612d12908590600160801b906001600160801b0316613b52565b60018601805490910190555b8215612d4f576003850154612d43908490600160801b906001600160801b0316613b52565b60028601805490910190555b5092549293600160a01b90930460020b92915050565b81546001600160a01b0316612d8d5760405163486aa30760e01b815260040160405180910390fd5b815462ffffff909116600160c81b0262ffffff60c81b19909116179055565b5f61ffff82166116e8565b5f61ffff821615612e1e575f612dcf61010084615124565b905060ff600884901c1661ffff821615801590612df05750600461ffff8316105b80612e0d575061ffff811615801590612e0d5750600461ffff8216105b15612e1b57505f9392505050565b50505b506001919050565b5f6401000276a36001600160a01b0383161080612e60575073fffd8963efd1fc6a506488495d951d5263988d266001600160a01b03831610155b15612e7e5760405163015680db60e11b815260040160405180910390fd5b77ffffffffffffffffffffffffffffffffffffffff00000000602083901b166001600160801b03811160071b81811c67ffffffffffffffff811160061b90811c63ffffffff811160051b90811c61ffff811160041b90811c60ff8111600390811b91821c600f811160021b90811c918211600190811b92831c97908811961790941790921717909117171760808110612f1f57607f810383901c9150612f29565b80607f0383901b91505b908002607f81811c60ff83811c9190911c800280831c81831c1c800280841c81841c1c800280851c81851c1c800280861c81861c1c800280871c81871c1c800280881c81881c1c800280891c81891c1c8002808a1c818a1c1c8002808b1c818b1c1c8002808c1c818c1c1c8002808d1c818d1c1c8002808e1c9c81901c9c909c1c80029c8d901c9e9d607f198f0160401b60c09190911c678000000000000000161760c19b909b1c674000000000000000169a909a1760c29990991c672000000000000000169890981760c39790971c671000000000000000169690961760c49590951c670800000000000000169490941760c59390931c670400000000000000169290921760c69190911c670200000000000000161760c79190911c670100000000000000161760c89190911c6680000000000000161760c99190911c6640000000000000161760ca9190911c6620000000000000161760cb9190911c6610000000000000161760cc9190911c6608000000000000161760cd9190911c66040000000000001617693627a301d71055774c8581026f028f6481ab7f045a5af012a19d003aa9198101608090811d906fdb2df09e81959a81455e260799a0632f8301901d600281810b9083900b1461312957886001600160a01b031661310e826133da565b6001600160a01b03161115613123578161312b565b8061312b565b815b9998505050505050505050565b8060020b8260020b1261316c5760405163c4433ed560e01b8152600283810b600483015282900b6024820152604401611a41565b620d89e719600283900b121561319b5760405163d5e2f7ab60e01b8152600283900b6004820152602401611a41565b6131a8620d89e719615144565b60020b8160020b1315611bfc5760405163035aeeff60e31b8152600282900b6004820152602401611a41565b600183015460028401546040805160e0810182525f80825260208201819052918101829052606081018290526080810182905260a0810182905260c081018290529092839290916060870151600f0b156132db576132358760800151613bee565b6001600160801b031660c08201819052602088015160608901516132669260058c0192918a91889088905f90613c73565b151581526040870151606088015160c08301516132939260058c019290918a919088908890600190613c73565b151560208201528051156132b957602087015160808801516132b99160068b0191613d4e565b8060200151156132db57604087015160808801516132db9160068b0191613d4e565b602087015160408801516132f69160058b0191898787613deb565b82604001836060018281525082815250505061334787606001518260400151836060015161333f8b5f01518c602001518d604001518f600701611ae5909392919063ffffffff16565b929190613e90565b60a0830152608082015260608701515f600f9190910b12156133c15780511561339157602087810151600290810b5f90815260058b01909252604082208281556001810183905501555b8060200151156133c157604087810151600290810b5f90815260058b016020529182208281556001810183905501555b80608001518160a0015194509450505050935093915050565b5f805f8360020b126133ef578260020b6133f6565b8260020b5f035b9050620d89e881111561341c576040516333a3bdff60e21b815260040160405180910390fd5b5f816001165f0361343157600160801b613443565b6ffffcb933bd6fad37aa2d162d1a5940015b70ffffffffffffffffffffffffffffffffff1690506002821615613477576ffff97272373d413259a46990580e213a0260801c5b6004821615613496576ffff2e50f5f656932ef12357cf3c7fdcc0260801c5b60088216156134b5576fffe5caca7e10e4e61c3624eaa0941cd00260801c5b60108216156134d4576fffcb9843d60f6159c9db58835c9266440260801c5b60208216156134f3576fff973b41fa98c081472e6896dfb254c00260801c5b6040821615613512576fff2ea16466c96a3843ec78b326b528610260801c5b6080821615613531576ffe5dee046a99a2a811c461f1969c30530260801c5b610100821615613551576ffcbe86c7900a88aedcffc83b479aa3a40260801c5b610200821615613571576ff987a7253ac413176f2b074cf7815e540260801c5b610400821615613591576ff3392b0822b70005940c7a398e4b70f30260801c5b6108008216156135b1576fe7159475a2c29b7443b29c7fa6e889d90260801c5b6110008216156135d1576fd097f3bdfd2022b8845ad8f792aa58250260801c5b6120008216156135f1576fa9f746462d870fdf8a65dc1f90e061e50260801c5b614000821615613611576f70d869a156d2a1b890bb3df62baf32f70260801c5b618000821615613631576f31be135f97d08fd981231505542fcfa60260801c5b62010000821615613652576f09aa508b5b7a84e1c677de54f3e99bc90260801c5b62020000821615613672576e5d6af8dedb81196699c329225ee6040260801c5b62040000821615613691576d2216e584f5fa1ea926041bedfe980260801c5b620800008216156136ae576b048a170391f7dc42444e8fa20260801c5b5f8460020b13156136cd57805f19816136c9576136c9615110565b0490505b6401000000008106156136e15760016136e3565b5f5b60ff16602082901c0192505050919050565b5f8082600f0b12613715576137106128ba8585856001613f97565b6106c0565b6137266128ba8585855f035f613f97565b5f03949350505050565b5f8082600f0b1261374b576137106128ba8585856001614074565b6137266128ba8585855f035f614074565b5f8082600f0b121561378257613771826151d7565b61377b90846151fc565b90506116e8565b611c9f828461521c565b5f6f7fffffffffffffffffffffffffffffff8211156137be576040516393dafdf160e01b815260040160405180910390fd5b5090565b5f611c9f6137d08360801c90565b6137da8560801c90565b6137e4919061523c565b612363848661523c565b5f805f8460020b8660020b8161380657613806615110565b0590505f8660020b12801561383257508460020b8660020b8161382b5761382b615110565b0760020b15155b1561383b575f19015b83156138ad57600281900b600881901d600181810b5f90815260208b9052604090205461010090930760ff81169190911b80015f19019283168015159550919290918561388f57888360ff168603026138a2565b88613899826140f1565b840360ff168603025b96505050505061391e565b600181810160020b600881901d80830b5f90815260208b9052604090205461010090920760ff81169390931b5f1901199182168015159550909291908561390157888360ff0360ff16866001010102613917565b888361390c8361418f565b0360ff168660010101025b9650505050505b5094509492505050565b5f8080806001600160a01b03808916908a1610158187128015906139ab575f61395f8989620f42400362ffffff16620f4240613b52565b905082613978576139738c8c8c6001614074565b613985565b6139858b8d8c6001613f97565b9550858110613996578a96506139a5565b6139a28c8b8386614276565b96505b506139f1565b816139c1576139bc8b8b8b5f613f97565b6139cd565b6139cd8a8c8b5f614074565b935083885f03106139e0578995506139f1565b6139ee8b8a8a5f03856142d1565b95505b6001600160a01b038a8116908716148215613a5357808015613a105750815b613a2657613a21878d8c6001613f97565b613a28565b855b9550808015613a35575081155b613a4a57613a45878d8c5f614074565b613a4c565b845b9450613a9c565b808015613a5d5750815b613a7357613a6e8c888c6001614074565b613a75565b855b9550808015613a82575081155b613a9757613a928c888c5f613f97565b613a99565b845b94505b81158015613aab5750885f0385115b15613ab657885f0394505b818015613ad557508a6001600160a01b0316876001600160a01b031614155b15613ae4578589039350613b01565b613afe868962ffffff168a620f42400362ffffff1661432a565b93505b50505095509550955095915050565b5f7f7fffffffffffffffffffffffffffffffffffffffffffffffffffffffffffffff8211156137be576040516393dafdf160e01b815260040160405180910390fd5b5f838302815f1985870982811083820303915050808411613b71575f80fd5b805f03613b8357508290049050611c9f565b5f848688095f868103871696879004966002600389028118808a02820302808a02820302808a02820302808a02820302808a02820302808a02909103029181900381900460010186841190950394909402919094039290920491909117919091029150509392505050565b5f8082613bff81620d89e71961527b565b613c0991906152b3565b90505f8380613c1b620d89e719615144565b613c25919061527b565b613c2f91906152b3565b90505f84613c3d84846152d2565b613c47919061527b565b613c529060016152f7565b9050613c6a62ffffff82166001600160801b03615313565b95945050505050565b600287900b5f90815260208990526040812080546001600160801b0381169060801c83613ca0838b61375c565b9050856001600160801b0316816001600160801b03161115613cdb5760405163b8e3c38560e01b815260028d900b6004820152602401611a41565b6001600160801b03818116159084168015919091141595505f03613d15578a60020b8c60020b13613d155760018401899055600284018890555b5f87613d2a57613d258b84615338565b613d34565b613d348b8461523c565b60801b9190911790935550919a9950505050505050505050565b8060020b8260020b81613d6357613d63615110565b0760020b15613d9357604051636a6c79f360e11b8152600283810b600483015282900b6024820152604401611a41565b5f80613dc08360020b8560020b81613dad57613dad615110565b0560020b600881901d9161010090910790565b600191820b5f9081526020979097526040909620805460ff9097169190911b90951890945550505050565b600285810b5f8181526020899052604080822088850b83529082209193849391929184918291908a900b12613e2b57505060018201546002830154613e3e565b8360010154880391508360020154870390505b5f808b60020b8b60020b1215613e5f57505060018301546002840154613e72565b84600101548a0391508460020154890390505b92909803979097039b96909503949094039850939650505050505050565b6040805160608101825285546001600160801b03168152600186015460208201526002860154918101919091525f90819081600f87900b8103613eff5781516001600160801b03165f03613ef757604051632bbfae4960e21b815260040160405180910390fd5b508051613f0e565b8151613f0b908861375c565b90505b613f2f82602001518703835f01516001600160801b0316600160801b613b52565b9350613f5282604001518603835f01516001600160801b0316600160801b613b52565b925086600f0b5f14613f815787546fffffffffffffffffffffffffffffffff19166001600160801b0382161788555b5050600186019390935560029094015591929050565b5f836001600160a01b0316856001600160a01b03161115613fb6579293925b7bffffffffffffffffffffffffffffffff000000000000000000000000606084901b166001600160a01b0386860381169087165f036140075760405162bfc92160e01b815260040160405180910390fd5b8361403d57866001600160a01b031661402a8383896001600160a01b0316613b52565b8161403757614037615110565b04614069565b6140696140548383896001600160a01b031661432a565b886001600160a01b0316808204910615150190565b979650505050505050565b5f836001600160a01b0316856001600160a01b03161115614093579293925b816140c7576140c26001600160801b0384166140af8787615377565b6001600160a01b0316600160601b613b52565b613c6a565b613c6a6001600160801b0384166140de8787615377565b6001600160a01b0316600160601b61432a565b5f8082116140fd575f80fd5b600160801b821061411057608091821c91015b68010000000000000000821061412857604091821c91015b640100000000821061413c57602091821c91015b62010000821061414e57601091821c91015b610100821061415f57600891821c91015b6010821061416f57600491821c91015b6004821061417f57600291821c91015b60028210611ef057600101919050565b5f80821161419b575f80fd5b5060ff6001600160801b038216156141b657607f19016141be565b608082901c91505b67ffffffffffffffff8216156141d757603f19016141df565b604082901c91505b63ffffffff8216156141f457601f19016141fc565b602082901c91505b61ffff82161561420f57600f1901614217565b601082901c91505b60ff8216156142295760071901614231565b600882901c91505b600f821615614243576003190161424b565b600482901c91505b600382161561425d5760011901614265565b600282901c91505b6001821615611ef0575f1901919050565b5f6001600160a01b038516158061429457506001600160801b038416155b156142b2576040516309e48c3760e31b815260040160405180910390fd5b816142c4576140c28585856001614366565b613c6a858585600161445d565b5f6001600160a01b03851615806142ef57506001600160801b038416155b1561430d576040516309e48c3760e31b815260040160405180910390fd5b8161431e576140c28585855f61445d565b613c6a8585855f614366565b5f614336848484613b52565b90505f828061434757614347615110565b8486091115611c9f575f19811061435c575f80fd5b6001019392505050565b5f81156143d6575f6001600160a01b0384111561439a5761439584600160601b876001600160801b0316613b52565b6143b1565b6143b16001600160801b038616606086901b6151c4565b90506143ce6143c9826001600160a01b03891661518a565b614573565b9150506106c0565b5f6001600160a01b03841115614403576143fe84600160601b876001600160801b031661432a565b614420565b614420606085901b6001600160801b038716808204910615150190565b905080866001600160a01b03161161444b57604051634323a55560e01b815260040160405180910390fd5b6001600160a01b0386160390506106c0565b5f825f0361446c5750836106c0565b7bffffffffffffffffffffffffffffffff000000000000000000000000606085901b168215614510576001600160a01b038616848102908582816144b2576144b2615110565b04036144e2578181018281106144e0576144d683896001600160a01b03168361432a565b93505050506106c0565b505b506143ce81856144fb6001600160a01b038a16836151c4565b614505919061518a565b808204910615150190565b6001600160a01b0386168481029085828161452d5761452d615110565b0414158061453b5750808211155b156145595760405163f5c787f160e01b815260040160405180910390fd5b8082036144d66143c9846001600160a01b038b168461432a565b806001600160a01b0381168114611ef0576040516393dafdf160e01b815260040160405180910390fd5b6001600160a01b0381168114611a53575f80fd5b8035600281900b8114611ef0575f80fd5b5f805f80608085870312156145d5575f80fd5b8435935060208501356145e78161459d565b92506145f5604086016145b1565b9150614603606086016145b1565b905092959194509250565b5f6020828403121561461e575f80fd5b5035919050565b634e487b7160e01b5f52604160045260245ffd5b6040516060810167ffffffffffffffff8111828210171561465c5761465c614625565b60405290565b604051601f8201601f1916810167ffffffffffffffff8111828210171561468b5761468b614625565b604052919050565b62ffffff81168114611a53575f80fd5b5f60c082840312156146b3575f80fd5b60405160c0810181811067ffffffffffffffff821117156146d6576146d6614625565b60405290508082356146e78161459d565b815260208301356146f78161459d565b6020820152604083013561470a8161459d565b6040820152606083013561471d8161459d565b6060820152608083013561473081614693565b608082015260a092830135920191909152919050565b5f8083601f840112614756575f80fd5b50813567ffffffffffffffff81111561476d575f80fd5b602083019150836020828501011115614784575f80fd5b9250929050565b5f805f80610100858703121561479f575f80fd5b6147a986866146a3565b935060c08501356147b98161459d565b925060e085013567ffffffffffffffff8111156147d4575f80fd5b6147e087828801614746565b95989497509550505050565b5f8060e083850312156147fd575f80fd5b61480784846146a3565b915060c08301356148178161459d565b809150509250929050565b5f60208284031215614832575f80fd5b8135611c9f8161459d565b5f60c0828403121561484d575f80fd5b611c9f83836146a3565b5f805f8084860361014081121561486c575f80fd5b61487687876146a3565b9450606060bf1982011215614889575f80fd5b50614892614639565b61489e60c087016145b1565b81526148ac60e087016145b1565b60208201526101008601356040820152925061012085013567ffffffffffffffff8111156147d4575f80fd5b5f805f606084860312156148ea575f80fd5b83356148f58161459d565b925060208401356149058161459d565b929592945050506040919091013590565b5f805f8084860361014081121561492b575f80fd5b61493587876146a3565b9450606060bf1982011215614948575f80fd5b50614951614639565b60c08601358015158114614963575f80fd5b815260e0860135602082015261010086013561497e8161459d565b6040820152925061012085013567ffffffffffffffff8111156147d4575f80fd5b5f60208083850312156149b0575f80fd5b823567ffffffffffffffff808211156149c7575f80fd5b818501915085601f8301126149da575f80fd5b8135818111156149ec576149ec614625565b8060051b91506149fd848301614662565b8181529183018401918481019088841115614a16575f80fd5b938501935b83851015614a3457843582529385019390850190614a1b565b98975050505050505050565b602080825282518282018190525f9190848201906040850190845b81811015614a7757835183529284019291840191600101614a5b565b50909695505050505050565b5f805f805f6101208688031215614a98575f80fd5b614aa287876146a3565b945060c0860135935060e0860135925061010086013567ffffffffffffffff811115614acc575f80fd5b614ad888828901614746565b969995985093965092949392505050565b81835281816020850137505f828201602090810191909152601f909101601f19169091010190565b5f6101206001600160a01b038089168452614b7a60208501896001600160a01b038082511683528060208301511660208401528060408301511660408401528060608301511660608401525062ffffff608082015116608083015260a081015160a08301525050565b861660e08401526101008301819052614a348184018587614ae9565b5f60208284031215614ba6575f80fd5b81516001600160e01b031981168114611c9f575f80fd5b5f6101406001600160a01b03808a168452614c26602085018a6001600160a01b038082511683528060208301511660208401528060408301511660408401528060608301511660608401525062ffffff608082015116608083015260a081015160a08301525050565b80881660e0850152508560020b6101008401528061012084015261312b8184018587614ae9565b5f6101606001600160a01b0388168352614cb560208401886001600160a01b038082511683528060208301511660208401528060408301511660408401528060608301511660608401525062ffffff608082015116608083015260a081015160a08301525050565b8551600290810b60e08501526020870151900b61010084015260408601516101208401525b80610140840152614a348184018587614ae9565b6101008101614d4882866001600160a01b038082511683528060208301511660208401528060408301511660408401528060608301511660608401525062ffffff608082015116608083015260a081015160a08301525050565b8360c08301526001600160a01b03831660e0830152949350505050565b5f6101806001600160a01b0389168352614dcd60208401896001600160a01b038082511683528060208301511660208401528060408301511660408401528060608301511660608401525062ffffff608082015116608083015260a081015160a08301525050565b8651600290810b60e08501526020880151900b61010084015260408701516101208401525b856101408401528061016084015261312b8184018587614ae9565b634e487b7160e01b5f52601160045260245ffd5b818103818111156116e8576116e8614e0d565b5f6101606001600160a01b0388168352614e9c60208401886001600160a01b038082511683528060208301511660208401528060408301511660408401528060608301511660608401525062ffffff608082015116608083015260a081015160a08301525050565b8551151560e0840152602086015161010084015260408601516001600160a01b0316610120840152614cda565b5f6101806001600160a01b0389168352614f3160208401896001600160a01b038082511683528060208301511660208401528060408301511660408401528060608301511660608401525062ffffff608082015116608083015260a081015160a08301525050565b8651151560e0840152602087015161010084015260408701516001600160a01b0316610120840152614df2565b5f6101406001600160a01b0389168352614fc660208401896001600160a01b038082511683528060208301511660208401528060408301511660408401528060608301511660608401525062ffffff608082015116608083015260a081015160a08301525050565b8660e0840152856101008401528061012084015261312b8184018587614ae9565b5f60208284031215614ff7575f80fd5b815161ffff81168114611c9f575f80fd5b60c081016116e882846001600160a01b038082511683528060208301511660208401528060408301511660408401528060608301511660608401525062ffffff608082015116608083015260a081015160a08301525050565b5f82515f5b818110156150805760208186018101518583015201615066565b505f920191825250919050565b6001600160a01b038316815260e08101611c9f60208301846001600160a01b038082511683528060208301511660208401528060408301511660408401528060608301511660608401525062ffffff608082015116608083015260a081015160a08301525050565b5f60208284031215615105575f80fd5b8151611c9f81614693565b634e487b7160e01b5f52601260045260245ffd5b5f61ffff8084168061513857615138615110565b92169190910692915050565b5f8160020b627fffff19810361515c5761515c614e0d565b5f0392915050565b8181035f83128015838313168383128216171561518357615183614e0d565b5092915050565b808201808211156116e8576116e8614e0d565b8082018281125f8312801582168215821617156151bc576151bc614e0d565b505092915050565b5f826151d2576151d2615110565b500490565b5f81600f0b6f7fffffffffffffffffffffffffffffff19810361515c5761515c614e0d565b6001600160801b0382811682821603908082111561518357615183614e0d565b6001600160801b0381811683821601908082111561518357615183614e0d565b600f82810b9082900b036f7fffffffffffffffffffffffffffffff1981126f7fffffffffffffffffffffffffffffff821317156116e8576116e8614e0d565b5f8160020b8360020b8061529157615291615110565b627fffff1982145f19821416156152aa576152aa614e0d565b90059392505050565b5f8260020b8260020b028060020b915080821461518357615183614e0d565b600282810b9082900b03627fffff198112627fffff821317156116e8576116e8614e0d565b62ffffff81811683821601908082111561518357615183614e0d565b5f6001600160801b038084168061532c5761532c615110565b92169190910492915050565b600f81810b9083900b016f7fffffffffffffffffffffffffffffff81136f7fffffffffffffffffffffffffffffff19821217156116e8576116e8614e0d565b6001600160a01b0382811682821603908082111561518357615183614e0d56fea2646970667358221220ee6cd43a4bc938a47cdfd487190ef6de41caaf130d0049dde02ddceb0a2b229964736f6c63430008180033","linkReferences":{}},"methodIdentifiers":{"MAX_TICK_SPACING()":"60460f06","MIN_PROTOCOL_FEE_DENOMINATOR()":"84e41c5e","MIN_TICK_SPACING()":"07eff0dd","collectProtocolFees(address,address,uint256)":"8161b874","donate((address,address,address,address,uint24,bytes32),uint256,uint256,bytes)":"f15b275f","extsload(bytes32)":"1e2eaeaf","extsload(bytes32[])":"dbd035ff","getLiquidity(bytes32)":"fa6793d5","getLiquidity(bytes32,address,int24,int24)":"33aa955b","getLmPool(bytes32)":"ee681114","getPosition(bytes32,address,int24,int24)":"048d9c70","getSlot0(bytes32)":"c815641c","initialize((address,address,address,address,uint24,bytes32),uint160,bytes)":"222bb36b","masterChef()":"575a86b2","modifyLiquidity((address,address,address,address,uint24,bytes32),(int24,int24,int256),bytes)":"5c3379f9","owner()":"8da5cb5b","pools(bytes32)":"b5217bb4","protocolFeeController()":"f02de3b2","protocolFeesAccrued(address)":"97e8cd4e","renounceOwnership()":"715018a6","setLmPool((address,address,address,address,uint24,bytes32),address)":"23a8c31f","setMasterChef(address)":"a2d9f4dc","setProtocolFee((address,address,address,address,uint24,bytes32))":"5afdef74","setProtocolFeeController(address)":"2d771389","swap((address,address,address,address,uint24,bytes32),(bool,int256,uint160),bytes)":"cd0cc1ce","transferOwnership(address)":"f2fde38b","updateDynamicSwapFee((address,address,address,address,uint24,bytes32))":"f427ddba","vault()":"fbfa77cf"},"id":62}