{"abi":[{"type":"constructor","inputs":[{"name":"_vault","type":"address","internalType":"contract IVault"},{"name":"_poolManager","type":"address","internalType":"contract ICLPoolManager"}],"stateMutability":"nonpayable"},{"type":"function","name":"donate","inputs":[{"name":"key","type":"tuple","internalType":"struct PoolKey","components":[{"name":"currency0","type":"address","internalType":"Currency"},{"name":"currency1","type":"address","internalType":"Currency"},{"name":"hooks","type":"address","internalType":"contract IHooks"},{"name":"poolManager","type":"address","internalType":"contract IPoolManager"},{"name":"fee","type":"uint24","internalType":"uint24"},{"name":"parameters","type":"bytes32","internalType":"bytes32"}]},{"name":"amount0","type":"uint256","internalType":"uint256"},{"name":"amount1","type":"uint256","internalType":"uint256"},{"name":"hookData","type":"bytes","internalType":"bytes"}],"outputs":[{"name":"delta","type":"int256","internalType":"BalanceDelta"}],"stateMutability":"payable"},{"type":"function","name":"lockAcquired","inputs":[{"name":"data","type":"bytes","internalType":"bytes"}],"outputs":[{"name":"","type":"bytes","internalType":"bytes"}],"stateMutability":"nonpayable"},{"type":"function","name":"modifyPosition","inputs":[{"name":"key","type":"tuple","internalType":"struct PoolKey","components":[{"name":"currency0","type":"address","internalType":"Currency"},{"name":"currency1","type":"address","internalType":"Currency"},{"name":"hooks","type":"address","internalType":"contract IHooks"},{"name":"poolManager","type":"address","internalType":"contract IPoolManager"},{"name":"fee","type":"uint24","internalType":"uint24"},{"name":"parameters","type":"bytes32","internalType":"bytes32"}]},{"name":"params","type":"tuple","internalType":"struct ICLPoolManager.ModifyLiquidityParams","components":[{"name":"tickLower","type":"int24","internalType":"int24"},{"name":"tickUpper","type":"int24","internalType":"int24"},{"name":"liquidityDelta","type":"int256","internalType":"int256"}]},{"name":"hookData","type":"bytes","internalType":"bytes"}],"outputs":[{"name":"delta","type":"int256","internalType":"BalanceDelta"}],"stateMutability":"payable"},{"type":"function","name":"poolManager","inputs":[],"outputs":[{"name":"","type":"address","internalType":"contract ICLPoolManager"}],"stateMutability":"view"},{"type":"function","name":"swap","inputs":[{"name":"key","type":"tuple","internalType":"struct PoolKey","components":[{"name":"currency0","type":"address","internalType":"Currency"},{"name":"currency1","type":"address","internalType":"Currency"},{"name":"hooks","type":"address","internalType":"contract IHooks"},{"name":"poolManager","type":"address","internalType":"contract IPoolManager"},{"name":"fee","type":"uint24","internalType":"uint24"},{"name":"parameters","type":"bytes32","internalType":"bytes32"}]},{"name":"params","type":"tuple","internalType":"struct ICLPoolManager.SwapParams","components":[{"name":"zeroForOne","type":"bool","internalType":"bool"},{"name":"amountSpecified","type":"int256","internalType":"int256"},{"name":"sqrtPriceLimitX96","type":"uint160","internalType":"uint160"}]},{"name":"testSettings","type":"tuple","internalType":"struct CLPoolManagerRouter.SwapTestSettings","components":[{"name":"withdrawTokens","type":"bool","internalType":"bool"},{"name":"settleUsingTransfer","type":"bool","internalType":"bool"}]},{"name":"hookData","type":"bytes","internalType":"bytes"}],"outputs":[{"name":"delta","type":"int256","internalType":"BalanceDelta"}],"stateMutability":"payable"},{"type":"function","name":"take","inputs":[{"name":"key","type":"tuple","internalType":"struct PoolKey","components":[{"name":"currency0","type":"address","internalType":"Currency"},{"name":"currency1","type":"address","internalType":"Currency"},{"name":"hooks","type":"address","internalType":"contract IHooks"},{"name":"poolManager","type":"address","internalType":"contract IPoolManager"},{"name":"fee","type":"uint24","internalType":"uint24"},{"name":"parameters","type":"bytes32","internalType":"bytes32"}]},{"name":"amount0","type":"uint256","internalType":"uint256"},{"name":"amount1","type":"uint256","internalType":"uint256"}],"outputs":[],"stateMutability":"payable"},{"type":"function","name":"vault","inputs":[],"outputs":[{"name":"","type":"address","internalType":"contract IVault"}],"stateMutability":"view"},{"type":"error","name":"ERC20TransferFailed","inputs":[]},{"type":"error","name":"HookMissingNoOpPermission","inputs":[]},{"type":"error","name":"InvalidAction","inputs":[]},{"type":"error","name":"NativeTransferFailed","inputs":[]}],"bytecode":{"object":"0x60c060405234801562000010575f80fd5b50604051620035ac380380620035ac833981016040819052620000339162000063565b6001600160a01b039182166080521660a052620000a0565b6001600160a01b038116811462000060575f80fd5b50565b5f806040838503121562000075575f80fd5b825162000082816200004b565b602084015190925062000095816200004b565b809150509250929050565b60805160a0516133b7620001f55f395f818160cd015281816106b901528181610dc601526117b701525f818161014c0152818161018301528181610287015281816103c6015281816104f001528181610613015281816107e4015281816108b80152818161098501528181610a3a01528181610ad501528181610ba101528181610c3501528181610cfa01528181610ec801528181610f9e0152818161106b015281816110e9015281816111a50152818161127201528181611321015281816113b5015281816114500152818161151d0152818161158b01528181611656015281816117270152818161176a015281816118a60152818161197a01528181611a4701528181611afc01528181611b9701528181611c6301528181611d5e01528181611e2a01528181611eca01528181611f6a0152818161204201528181612114015281816121b5015261225701526133b75ff3fe60806040526004361061006e575f3560e01c8063f15b275f1161004c578063f15b275f14610107578063f420e0a714610128578063fbfa77cf1461013b578063fe5a6ca91461016e575f80fd5b8063a717e69114610072578063ab6291fe14610087578063dc4c90d3146100bc575b5f80fd5b6100856100803660046125f5565b610181565b005b348015610092575f80fd5b506100a66100a1366004612627565b61027a565b6040516100b391906126e0565b60405180910390f35b3480156100c7575f80fd5b506100ef7f000000000000000000000000000000000000000000000000000000000000000081565b6040516001600160a01b0390911681526020016100b3565b61011a61011536600461276b565b6103c3565b6040519081526020016100b3565b61011a6101363660046127d9565b6104ed565b348015610146575f80fd5b506100ef7f000000000000000000000000000000000000000000000000000000000000000081565b61011a61017c366004612880565b610610565b7f00000000000000000000000000000000000000000000000000000000000000006001600160a01b031663815483196040518060800160405280336001600160a01b03168152602001868152602001858152602001848152506040516020016101ea9190612949565b60408051601f1981840301815290829052610207916020016129d4565b6040516020818303038152906040526040518263ffffffff1660e01b815260040161023291906126e0565b5f604051808303815f875af115801561024d573d5f803e3d5ffd5b505050506040513d5f823e601f3d908101601f191682016040526102749190810190612a4b565b50505050565b6060336001600160a01b037f000000000000000000000000000000000000000000000000000000000000000016146102b0575f80fd5b5f806102be84860186612a7d565b915091507fcc3fbfe1ff588eb90989af36bb95e1af0ae6e6df1ee90707ec44ed6faccff0ca828051906020012003610302576102f98161069d565b925050506103bd565b815160208301207f96aabc3c8f79ac32562be74b332c41eec971bf9c93ef3bb4e73018a9492774d701610338576102f981610daa565b815160208301207f7945f2c8bdf1cb87fec910addde64c4537c5242194ba83c2ac736621f23eef450161036e576102f98161179b565b815160208301207fbb2e84a8d4c489ef8e27f68e854ee8f790e66a3ec91cb8c92fe1bf708b0756f8016103a4576102f981611ce1565b604051634a7f394f60e01b815260040160405180910390fd5b92915050565b5f7f00000000000000000000000000000000000000000000000000000000000000006001600160a01b031663815483196040518060a00160405280336001600160a01b03168152602001888152602001878152602001868152602001858152506040516020016104339190612add565b60408051601f198184030181529082905261045091602001612b80565b6040516020818303038152906040526040518263ffffffff1660e01b815260040161047b91906126e0565b5f604051808303815f875af1158015610496573d5f803e3d5ffd5b505050506040513d5f823e601f3d908101601f191682016040526104bd9190810190612a4b565b8060200190518101906104d09190612bc6565b90504780156104e4576104e45f33836122ea565b50949350505050565b5f7f00000000000000000000000000000000000000000000000000000000000000006001600160a01b031663815483196040518060800160405280336001600160a01b03168152602001878152602001868152602001858152506040516020016105579190612bdd565b60408051601f198184030181529082905261057491602001612c92565b6040516020818303038152906040526040518263ffffffff1660e01b815260040161059f91906126e0565b5f604051808303815f875af11580156105ba573d5f803e3d5ffd5b505050506040513d5f823e601f3d908101601f191682016040526105e19190810190612a4b565b8060200190518101906105f49190612bc6565b9050478015610608576106085f33836122ea565b509392505050565b5f7f00000000000000000000000000000000000000000000000000000000000000006001600160a01b031663815483196040518060a00160405280336001600160a01b03168152602001868152602001888152602001878152602001858152506040516020016106809190612cd8565b60408051601f198184030181529082905261045091602001612dad565b60605f828060200190518101906106b49190612e5f565b90505f7f00000000000000000000000000000000000000000000000000000000000000006001600160a01b0316635c3379f98360200151846040015185606001516040518463ffffffff1660e01b815260040161071393929190612f43565b6020604051808303815f875af115801561072f573d5f803e3d5ffd5b505050506040513d601f19601f820116820180604052508101906107539190612bc6565b9050610760815f1961237c565b156107bb57602082015160a0015161077990600a6123b0565b6107965760405163050e65b360e51b815260040160405180910390fd5b6040805160208101839052015b60405160208183030381529060405292505050919050565b5f6107c68260801c90565b600f0b13156109f3576020820151516001600160a01b031661089c577f00000000000000000000000000000000000000000000000000000000000000006001600160a01b0316636a256b2961081b8360801c90565b6020850151516040516001600160e01b031960e085901b1681526001600160a01b0390911660048201526001600160801b03919091169060240160206040518083038185885af1158015610871573d5f803e3d5ffd5b50505050506040513d601f19601f820116820180604052508101906108969190612bc6565b506109f3565b81602001515f01516001600160a01b03166323b872dd835f01517f00000000000000000000000000000000000000000000000000000000000000006108e18560801c90565b6040516001600160e01b031960e086901b1681526001600160a01b0393841660048201529290911660248301526001600160801b031660448201526064016020604051808303815f875af115801561093b573d5f803e3d5ffd5b505050506040513d601f19601f8201168201806040525081019061095f9190612fdd565b50602082015151604051636a256b2960e01b81526001600160a01b0391821660048201527f000000000000000000000000000000000000000000000000000000000000000090911690636a256b29906024016020604051808303815f875af11580156109cd573d5f803e3d5ffd5b505050506040513d601f19601f820116820180604052508101906109f19190612bc6565b505b5f81600f0b1315610c0f5760208083015101516001600160a01b0316610ab8576020808301510151604051636a256b2960e01b81526001600160a01b0391821660048201527f000000000000000000000000000000000000000000000000000000000000000090911690636a256b29906001600160801b0384169060240160206040518083038185885af1158015610a8d573d5f803e3d5ffd5b50505050506040513d601f19601f82011682018060405250810190610ab29190612bc6565b50610c0f565b8160200151602001516001600160a01b03166323b872dd835f01517f0000000000000000000000000000000000000000000000000000000000000000610afb8590565b6040516001600160e01b031960e086901b1681526001600160a01b0393841660048201529290911660248301526001600160801b031660448201526064016020604051808303815f875af1158015610b55573d5f803e3d5ffd5b505050506040513d601f19601f82011682018060405250810190610b799190612fdd565b506020828101510151604051636a256b2960e01b81526001600160a01b0391821660048201527f000000000000000000000000000000000000000000000000000000000000000090911690636a256b29906024016020604051808303815f875af1158015610be9573d5f803e3d5ffd5b505050506040513d601f19601f82011682018060405250810190610c0d9190612bc6565b505b5f610c1a8260801c90565b600f0b1215610cdb5760208201515182516001600160a01b037f00000000000000000000000000000000000000000000000000000000000000001691630b0d9c0991610c668560801c90565b610c6f9061300c565b6040516001600160e01b031960e086901b1681526001600160a01b0393841660048201529290911660248301526001600160801b031660448201526064015f604051808303815f87803b158015610cc4575f80fd5b505af1158015610cd6573d5f803e3d5ffd5b505050505b5f81600f0b121561079657602080830151015182516001600160a01b037f00000000000000000000000000000000000000000000000000000000000000001691630b0d9c0991845b610d2c9061300c565b6040516001600160e01b031960e086901b1681526001600160a01b0393841660048201529290911660248301526001600160801b031660448201526064015f604051808303815f87803b158015610d81575f80fd5b505af1158015610d93573d5f803e3d5ffd5b50505050806040516020016107a391815260200190565b60605f82806020019051810190610dc19190613083565b90505f7f00000000000000000000000000000000000000000000000000000000000000006001600160a01b031663cd0cc1ce8360400151846060015185608001516040518463ffffffff1660e01b8152600401610e209392919061316e565b6020604051808303815f875af1158015610e3c573d5f803e3d5ffd5b505050506040513d601f19601f82011682018060405250810190610e609190612bc6565b9050610e6d815f1961237c565b15610e8657604082015160a0015161077990600a6123b0565b6060820151511561135e575f610e9c8260801c90565b600f0b131561124757816020015160200151156110d7576040820151516001600160a01b0316610f82577f00000000000000000000000000000000000000000000000000000000000000006001600160a01b0316636a256b29610eff8360801c90565b6001600160801b031684604001515f01516040518363ffffffff1660e01b8152600401610f3b91906001600160a01b0391909116815260200190565b60206040518083038185885af1158015610f57573d5f803e3d5ffd5b50505050506040513d601f19601f82011682018060405250810190610f7c9190612bc6565b50611247565b81604001515f01516001600160a01b03166323b872dd835f01517f0000000000000000000000000000000000000000000000000000000000000000610fc78560801c90565b6040516001600160e01b031960e086901b1681526001600160a01b0393841660048201529290911660248301526001600160801b031660448201526064016020604051808303815f875af1158015611021573d5f803e3d5ffd5b505050506040513d601f19601f820116820180604052508101906110459190612fdd565b50604082810151519051636a256b2960e01b81526001600160a01b0391821660048201527f000000000000000000000000000000000000000000000000000000000000000090911690636a256b29906024016020604051808303815f875af11580156110b3573d5f803e3d5ffd5b505050506040513d601f19601f82011682018060405250810190610f7c9190612bc6565b81516040830151516001600160a01b037f000000000000000000000000000000000000000000000000000000000000000016916315dacbea91309061111c8660801c90565b6040516001600160e01b031960e087901b1681526001600160a01b0394851660048201529284166024840152921660448201526001600160801b0390911660648201526084016020604051808303815f875af115801561117e573d5f803e3d5ffd5b505050506040513d601f19601f820116820180604052508101906111a29190612fdd565b507f00000000000000000000000000000000000000000000000000000000000000006001600160a01b0316639dc29fac83604001515f01516111e48460801c90565b6040516001600160e01b031960e085901b1681526001600160a01b0390921660048301526001600160801b031660248201526044015f604051808303815f87803b158015611230575f80fd5b505af1158015611242573d5f803e3d5ffd5b505050505b5f81600f0b121561135957602082015151156113145760408201516020015182516001600160a01b037f00000000000000000000000000000000000000000000000000000000000000001691630b0d9c0991845b6112a49061300c565b6040516001600160e01b031960e086901b1681526001600160a01b0393841660048201529290911660248301526001600160801b031660448201526064015f604051808303815f87803b1580156112f9575f80fd5b505af115801561130b573d5f803e3d5ffd5b50505050610796565b60408201516020015182517f00000000000000000000000000000000000000000000000000000000000000006001600160a01b03169163c6c3bbe6916112a48561300c565b610796565b5f81600f0b13156116f65781602001516020015115611589576040820151602001516001600160a01b031661143357604080830151602001519051636a256b2960e01b81526001600160a01b0391821660048201527f000000000000000000000000000000000000000000000000000000000000000090911690636a256b29906001600160801b0384169060240160206040518083038185885af1158015611408573d5f803e3d5ffd5b50505050506040513d601f19601f8201168201806040525081019061142d9190612bc6565b506116f6565b8160400151602001516001600160a01b03166323b872dd835f01517f00000000000000000000000000000000000000000000000000000000000000006114768590565b6040516001600160e01b031960e086901b1681526001600160a01b0393841660048201529290911660248301526001600160801b031660448201526064016020604051808303815f875af11580156114d0573d5f803e3d5ffd5b505050506040513d601f19601f820116820180604052508101906114f49190612fdd565b50604082810151602001519051636a256b2960e01b81526001600160a01b0391821660048201527f000000000000000000000000000000000000000000000000000000000000000090911690636a256b29906024016020604051808303815f875af1158015611565573d5f803e3d5ffd5b505050506040513d601f19601f8201168201806040525081019061142d9190612bc6565b7f00000000000000000000000000000000000000000000000000000000000000006001600160a01b03166315dacbea835f0151308560400151602001516115cd8690565b6040516001600160e01b031960e087901b1681526001600160a01b0394851660048201529284166024840152921660448201526001600160801b0390911660648201526084016020604051808303815f875af115801561162f573d5f803e3d5ffd5b505050506040513d601f19601f820116820180604052508101906116539190612fdd565b507f00000000000000000000000000000000000000000000000000000000000000006001600160a01b0316639dc29fac8360400151602001516116938490565b6040516001600160e01b031960e085901b1681526001600160a01b0390921660048301526001600160801b031660248201526044015f604051808303815f87803b1580156116df575f80fd5b505af11580156116f1573d5f803e3d5ffd5b505050505b5f6117018260801c90565b600f0b121561079657602082015151156117585760408201515182516001600160a01b037f00000000000000000000000000000000000000000000000000000000000000001691630b0d9c099161129b8560801c90565b60408201515182516001600160a01b037f0000000000000000000000000000000000000000000000000000000000000000169163c6c3bbe691610d238560801c90565b60605f828060200190518101906117b291906131f3565b90505f7f00000000000000000000000000000000000000000000000000000000000000006001600160a01b031663f15b275f83602001518460400151856060015186608001516040518563ffffffff1660e01b81526004016118179493929190613297565b6020604051808303815f875af1158015611833573d5f803e3d5ffd5b505050506040513d601f19601f820116820180604052508101906118579190612bc6565b9050611864815f1961237c565b1561187d57602082015160a0015161077990600a6123b0565b5f6118888260801c90565b600f0b1315611ab5576020820151516001600160a01b031661195e577f00000000000000000000000000000000000000000000000000000000000000006001600160a01b0316636a256b296118dd8360801c90565b6020850151516040516001600160e01b031960e085901b1681526001600160a01b0390911660048201526001600160801b03919091169060240160206040518083038185885af1158015611933573d5f803e3d5ffd5b50505050506040513d601f19601f820116820180604052508101906119589190612bc6565b50611ab5565b81602001515f01516001600160a01b03166323b872dd835f01517f00000000000000000000000000000000000000000000000000000000000000006119a38560801c90565b6040516001600160e01b031960e086901b1681526001600160a01b0393841660048201529290911660248301526001600160801b031660448201526064016020604051808303815f875af11580156119fd573d5f803e3d5ffd5b505050506040513d601f19601f82011682018060405250810190611a219190612fdd565b50602082015151604051636a256b2960e01b81526001600160a01b0391821660048201527f000000000000000000000000000000000000000000000000000000000000000090911690636a256b29906024016020604051808303815f875af1158015611a8f573d5f803e3d5ffd5b505050506040513d601f19601f82011682018060405250810190611ab39190612bc6565b505b5f81600f0b13156107965760208083015101516001600160a01b0316611b7a576020808301510151604051636a256b2960e01b81526001600160a01b0391821660048201527f000000000000000000000000000000000000000000000000000000000000000090911690636a256b29906001600160801b0384169060240160206040518083038185885af1158015611b4f573d5f803e3d5ffd5b50505050506040513d601f19601f82011682018060405250810190611b749190612bc6565b50610796565b8160200151602001516001600160a01b03166323b872dd835f01517f0000000000000000000000000000000000000000000000000000000000000000611bbd8590565b6040516001600160e01b031960e086901b1681526001600160a01b0393841660048201529290911660248301526001600160801b031660448201526064016020604051808303815f875af1158015611c17573d5f803e3d5ffd5b505050506040513d601f19601f82011682018060405250810190611c3b9190612fdd565b506020828101510151604051636a256b2960e01b81526001600160a01b0391821660048201527f000000000000000000000000000000000000000000000000000000000000000090911690636a256b29906024016020604051808303815f875af1158015611cab573d5f803e3d5ffd5b505050506040513d601f19601f82011682018060405250810190611ccf9190612bc6565b506040805160208101839052016107a3565b60605f82806020019051810190611cf8919061331a565b604081015190915015611fdb5780516020820151515f91611d22916001600160a01b0316906123c0565b60208301515183516040808601519051630b0d9c0960e01b81526001600160a01b039384166004820152918316602483015260448201529192507f00000000000000000000000000000000000000000000000000000000000000001690630b0d9c09906064015f604051808303815f87803b158015611d9f575f80fd5b505af1158015611db1573d5f803e3d5ffd5b505083516020850151515f9350611dd292506001600160a01b0316906123c0565b6040840151909150611de4838361336e565b14611ded575f80fd5b6020830151516001600160a01b0316611e9e576040838101516020850151519151636a256b2960e01b81526001600160a01b0392831660048201527f000000000000000000000000000000000000000000000000000000000000000090921691636a256b29919060240160206040518083038185885af1158015611e73573d5f803e3d5ffd5b50505050506040513d601f19601f82011682018060405250810190611e989190612bc6565b50611fd8565b602083015151835160408086015190516323b872dd60e01b81526001600160a01b0392831660048201527f00000000000000000000000000000000000000000000000000000000000000008316602482015260448101919091529116906323b872dd906064016020604051808303815f875af1158015611f20573d5f803e3d5ffd5b505050506040513d601f19601f82011682018060405250810190611f449190612fdd565b50602083015151604051636a256b2960e01b81526001600160a01b0391821660048201527f000000000000000000000000000000000000000000000000000000000000000090911690636a256b29906024016020604051808303815f875af1158015611fb2573d5f803e3d5ffd5b505050506040513d601f19601f82011682018060405250810190611fd69190612bc6565b505b50505b6060810151156122c857805160208083015101515f91612004916001600160a01b0316906123c0565b602083810151015183516060850151604051630b0d9c0960e01b81526001600160a01b039384166004820152918316602483015260448201529192507f00000000000000000000000000000000000000000000000000000000000000001690630b0d9c09906064015f604051808303815f87803b158015612083575f80fd5b505af1158015612095573d5f803e3d5ffd5b5050835160208086015101515f93506120b892506001600160a01b0316906123c0565b60608401519091506120ca838361336e565b146120d3575f80fd5b60208084015101516001600160a01b03166121875760608301516020808501510151604051636a256b2960e01b81526001600160a01b0391821660048201527f000000000000000000000000000000000000000000000000000000000000000090911691636a256b299160240160206040518083038185885af115801561215c573d5f803e3d5ffd5b50505050506040513d601f19601f820116820180604052508101906121819190612bc6565b506122c5565b6020838101510151835160608501516040516323b872dd60e01b81526001600160a01b0392831660048201527f00000000000000000000000000000000000000000000000000000000000000008316602482015260448101919091529116906323b872dd906064016020604051808303815f875af115801561220b573d5f803e3d5ffd5b505050506040513d601f19601f8201168201806040525081019061222f9190612fdd565b506020838101510151604051636a256b2960e01b81526001600160a01b0391821660048201527f000000000000000000000000000000000000000000000000000000000000000090911690636a256b29906024016020604051808303815f875af115801561229f573d5f803e3d5ffd5b505050506040513d601f19601f820116820180604052508101906122c39190612bc6565b505b50505b604080515f602082015201604051602081830303815290604052915050919050565b5f6001600160a01b038416612326575f805f8085875af190508061232157604051633d2cec6f60e21b815260040160405180910390fd5b610274565b60405163a9059cbb60e01b5f52836004528260245260205f60445f80895af13d15601f3d1160015f511416171691505f60605280604052508061027457604051633c9fd93960e21b815260040160405180910390fd5b5f6123878260801c90565b600f0b6123948460801c90565b600f0b1480156123a9575081600f0b83600f0b145b9392505050565b5f6123a98360ff84161c60011690565b5f6001600160a01b0383166123e057506001600160a01b038116316103bd565b6040516370a0823160e01b81526001600160a01b0383811660048301528416906370a0823190602401602060405180830381865afa158015612424573d5f803e3d5ffd5b505050506040513d601f19601f820116820180604052508101906124489190612bc6565b90506103bd565b634e487b7160e01b5f52604160045260245ffd5b60405160c0810167ffffffffffffffff811182821017156124865761248661244f565b60405290565b6040516060810167ffffffffffffffff811182821017156124865761248661244f565b6040805190810167ffffffffffffffff811182821017156124865761248661244f565b6040516080810167ffffffffffffffff811182821017156124865761248661244f565b60405160a0810167ffffffffffffffff811182821017156124865761248661244f565b604051601f8201601f1916810167ffffffffffffffff811182821017156125415761254161244f565b604052919050565b6001600160a01b038116811461255d575f80fd5b50565b62ffffff8116811461255d575f80fd5b5f60c08284031215612580575f80fd5b612588612463565b9050813561259581612549565b815260208201356125a581612549565b602082015260408201356125b881612549565b604082015260608201356125cb81612549565b606082015260808201356125de81612560565b8060808301525060a082013560a082015292915050565b5f805f6101008486031215612608575f80fd5b6126128585612570565b9560c0850135955060e0909401359392505050565b5f8060208385031215612638575f80fd5b823567ffffffffffffffff8082111561264f575f80fd5b818501915085601f830112612662575f80fd5b813581811115612670575f80fd5b866020828501011115612681575f80fd5b60209290920196919550909350505050565b5f5b838110156126ad578181015183820152602001612695565b50505f910152565b5f81518084526126cc816020860160208601612693565b601f01601f19169290920160200192915050565b602081525f6123a960208301846126b5565b5f67ffffffffffffffff82111561270b5761270b61244f565b50601f01601f191660200190565b5f82601f830112612728575f80fd5b813561273b612736826126f2565b612518565b81815284602083860101111561274f575f80fd5b816020850160208301375f918101602001919091529392505050565b5f805f80610120858703121561277f575f80fd5b6127898686612570565b935060c0850135925060e0850135915061010085013567ffffffffffffffff8111156127b3575f80fd5b6127bf87828801612719565b91505092959194509250565b8060020b811461255d575f80fd5b5f805f8385036101408112156127ed575f80fd5b6127f78686612570565b9350606060bf198201121561280a575f80fd5b5061281361248c565b60c0850135612821816127cb565b815260e0850135612831816127cb565b60208201526101008501356040820152915061012084013567ffffffffffffffff81111561285d575f80fd5b61286986828701612719565b9150509250925092565b801515811461255d575f80fd5b5f805f80848603610180811215612895575f80fd5b61289f8787612570565b9450606060bf19820112156128b2575f80fd5b6128ba61248c565b60c08701356128c881612873565b815260e087013560208201526101008701356128e381612549565b60408281019190915290945061011f19820112156128ff575f80fd5b506129086124af565b61012086013561291781612873565b815261014086013561292881612873565b6020820152915061016085013567ffffffffffffffff8111156127b3575f80fd5b81516001600160a01b031681526020808301516101208301916129b9908401826001600160a01b038082511683528060208301511660208401528060408301511660408401528060608301511660608401525062ffffff608082015116608083015260a081015160a08301525050565b50604083015160e08301526060909201516101009091015290565b60408152600460408201526374616b6560e01b6060820152608060208201525f6123a960808301846126b5565b5f82601f830112612a10575f80fd5b8151612a1e612736826126f2565b818152846020838601011115612a32575f80fd5b612a43826020830160208701612693565b949350505050565b5f60208284031215612a5b575f80fd5b815167ffffffffffffffff811115612a71575f80fd5b612a4384828501612a01565b5f8060408385031215612a8e575f80fd5b823567ffffffffffffffff80821115612aa5575f80fd5b612ab186838701612719565b93506020850135915080821115612ac6575f80fd5b50612ad385828601612719565b9150509250929050565b602081526001600160a01b0382511660208201525f6020830151612b4f60408401826001600160a01b038082511683528060208301511660208401528060408301511660408401528060608301511660608401525062ffffff608082015116608083015260a081015160a08301525050565b5060408301516101008301526060830151610120830152608083015161014080840152612a436101608401826126b5565b60408152600660408201527f646f6e61746500000000000000000000000000000000000000000000000000006060820152608060208201525f6123a960808301846126b5565b5f60208284031215612bd6575f80fd5b5051919050565b602081526001600160a01b0382511660208201525f6020830151612c4f60408401826001600160a01b038082511683528060208301511660208401528060408301511660408401528060608301511660608401525062ffffff608082015116608083015260a081015160a08301525050565b506040838101518051600290810b6101008601526020820151900b6101208501520151610140830152606083015161016080840152612a436101808401826126b5565b60408152600e60408201527f6d6f64696679506f736974696f6e0000000000000000000000000000000000006060820152608060208201525f6123a960808301846126b5565b602081526001600160a01b0382511660208201525f6020830151805115156040840152602081015115156060840152506040830151612d6560808401826001600160a01b038082511683528060208301511660208401528060408301511660408401528060608301511660608401525062ffffff608082015116608083015260a081015160a08301525050565b506060830151805115156101408401526020810151610160840152604001516001600160a01b031661018083015260808301516101a080840152612a436101c08401826126b5565b6040815260046040820152630737761760e41b6060820152608060208201525f6123a960808301846126b5565b5f60c08284031215612dea575f80fd5b612df2612463565b90508151612dff81612549565b81526020820151612e0f81612549565b60208201526040820151612e2281612549565b60408201526060820151612e3581612549565b60608201526080820151612e4881612560565b8060808301525060a082015160a082015292915050565b5f60208284031215612e6f575f80fd5b815167ffffffffffffffff80821115612e86575f80fd5b90830190818503610160811215612e9b575f80fd5b612ea36124d2565b8351612eae81612549565b8152612ebd8760208601612dda565b6020820152606060df1983011215612ed3575f80fd5b612edb61248c565b915060e0840151612eeb816127cb565b8252610100840151612efc816127cb565b806020840152506101208401516040830152816040820152610140840151915082821115612f28575f80fd5b612f3487838601612a01565b60608201529695505050505050565b5f610140612f9c83876001600160a01b038082511683528060208301511660208401528060408301511660408401528060608301511660608401525062ffffff608082015116608083015260a081015160a08301525050565b8451600290810b60c08501526020860151900b60e084015260408501516101008401525b80610120840152612fd3818401856126b5565b9695505050505050565b5f60208284031215612fed575f80fd5b81516123a981612873565b634e487b7160e01b5f52601160045260245ffd5b5f81600f0b6f7fffffffffffffffffffffffffffffff19810361303157613031612ff8565b5f0392915050565b5f60608284031215613049575f80fd5b61305161248c565b9050815161305e81612873565b815260208281015190820152604082015161307881612549565b604082015292915050565b5f60208284031215613093575f80fd5b815167ffffffffffffffff808211156130aa575f80fd5b908301908185036101a08112156130bf575f80fd5b6130c76124f5565b83516130d281612549565b81526040601f19830112156130e5575f80fd5b6130ed6124af565b915060208401516130fd81612873565b8252604084015161310d81612873565b806020840152508160208201526131278760608601612dda565b604082015261313a876101208601613039565b6060820152610180840151915082821115613153575f80fd5b61315f87838601612a01565b60808201529695505050505050565b5f6101406131c783876001600160a01b038082511683528060208301511660208401528060408301511660408401528060608301511660608401525062ffffff608082015116608083015260a081015160a08301525050565b8451151560c0840152602085015160e084015260408501516001600160a01b0316610100840152612fc0565b5f60208284031215613203575f80fd5b815167ffffffffffffffff8082111561321a575f80fd5b90830190610140828603121561322e575f80fd5b6132366124f5565b825161324181612549565b81526132508660208501612dda565b602082015260e0830151604082015261010083015160608201526101208301518281111561327c575f80fd5b61328887828601612a01565b60808301525095945050505050565b5f6101206132f083886001600160a01b038082511683528060208301511660208401528060408301511660408401528060608301511660608401525062ffffff608082015116608083015260a081015160a08301525050565b8560c08401528460e08401528061010084015261330f818401856126b5565b979650505050505050565b5f610120828403121561332b575f80fd5b6133336124d2565b825161333e81612549565b815261334d8460208501612dda565b602082015260e0830151604082015261010090920151606083015250919050565b818103818111156103bd576103bd612ff856fea264697066735822122039da6bdd2f103e00812921f010713670a4210e51a9fce81cb6b6252602b6e84e64736f6c63430008180033","linkReferences":{}},"methodIdentifiers":{"donate((address,address,address,address,uint24,bytes32),uint256,uint256,bytes)":"f15b275f","lockAcquired(bytes)":"ab6291fe","modifyPosition((address,address,address,address,uint24,bytes32),(int24,int24,int256),bytes)":"f420e0a7","poolManager()":"dc4c90d3","swap((address,address,address,address,uint24,bytes32),(bool,int256,uint160),(bool,bool),bytes)":"fe5a6ca9","take((address,address,address,address,uint24,bytes32),uint256,uint256)":"a717e691","vault()":"fbfa77cf"},"id":85}