{"abi":[{"type":"function","name":"approve","inputs":[{"name":"spender","type":"address","internalType":"address"},{"name":"id","type":"uint256","internalType":"uint256"}],"outputs":[],"stateMutability":"payable"},{"type":"function","name":"balanceOf","inputs":[{"name":"owner","type":"address","internalType":"address"}],"outputs":[{"name":"","type":"uint256","internalType":"uint256"}],"stateMutability":"view"},{"type":"function","name":"getApproved","inputs":[{"name":"id","type":"uint256","internalType":"uint256"}],"outputs":[{"name":"","type":"address","internalType":"address"}],"stateMutability":"view"},{"type":"function","name":"initialize","inputs":[{"name":"name_","type":"string","internalType":"string"},{"name":"symbol_","type":"string","internalType":"string"}],"outputs":[],"stateMutability":"nonpayable"},{"type":"function","name":"isApprovedForAll","inputs":[{"name":"owner","type":"address","internalType":"address"},{"name":"operator","type":"address","internalType":"address"}],"outputs":[{"name":"","type":"bool","internalType":"bool"}],"stateMutability":"view"},{"type":"function","name":"name","inputs":[],"outputs":[{"name":"","type":"string","internalType":"string"}],"stateMutability":"view"},{"type":"function","name":"ownerOf","inputs":[{"name":"id","type":"uint256","internalType":"uint256"}],"outputs":[{"name":"owner","type":"address","internalType":"address"}],"stateMutability":"view"},{"type":"function","name":"safeTransferFrom","inputs":[{"name":"from","type":"address","internalType":"address"},{"name":"to","type":"address","internalType":"address"},{"name":"id","type":"uint256","internalType":"uint256"}],"outputs":[],"stateMutability":"payable"},{"type":"function","name":"safeTransferFrom","inputs":[{"name":"from","type":"address","internalType":"address"},{"name":"to","type":"address","internalType":"address"},{"name":"id","type":"uint256","internalType":"uint256"},{"name":"data","type":"bytes","internalType":"bytes"}],"outputs":[],"stateMutability":"payable"},{"type":"function","name":"setApprovalForAll","inputs":[{"name":"operator","type":"address","internalType":"address"},{"name":"approved","type":"bool","internalType":"bool"}],"outputs":[],"stateMutability":"nonpayable"},{"type":"function","name":"supportsInterface","inputs":[{"name":"interfaceId","type":"bytes4","internalType":"bytes4"}],"outputs":[{"name":"","type":"bool","internalType":"bool"}],"stateMutability":"view"},{"type":"function","name":"symbol","inputs":[],"outputs":[{"name":"","type":"string","internalType":"string"}],"stateMutability":"view"},{"type":"function","name":"tokenURI","inputs":[{"name":"id","type":"uint256","internalType":"uint256"}],"outputs":[{"name":"","type":"string","internalType":"string"}],"stateMutability":"view"},{"type":"function","name":"transferFrom","inputs":[{"name":"from","type":"address","internalType":"address"},{"name":"to","type":"address","internalType":"address"},{"name":"id","type":"uint256","internalType":"uint256"}],"outputs":[],"stateMutability":"payable"},{"type":"event","name":"Approval","inputs":[{"name":"_owner","type":"address","indexed":true,"internalType":"address"},{"name":"_approved","type":"address","indexed":true,"internalType":"address"},{"name":"_tokenId","type":"uint256","indexed":true,"internalType":"uint256"}],"anonymous":false},{"type":"event","name":"ApprovalForAll","inputs":[{"name":"_owner","type":"address","indexed":true,"internalType":"address"},{"name":"_operator","type":"address","indexed":true,"internalType":"address"},{"name":"_approved","type":"bool","indexed":false,"internalType":"bool"}],"anonymous":false},{"type":"event","name":"Transfer","inputs":[{"name":"_from","type":"address","indexed":true,"internalType":"address"},{"name":"_to","type":"address","indexed":true,"internalType":"address"},{"name":"_tokenId","type":"uint256","indexed":true,"internalType":"uint256"}],"anonymous":false}],"bytecode":{"object":"0x608060405234801561000f575f80fd5b50610f838061001d5f395ff3fe6080604052600436106100d9575f3560e01c80636352211e1161007c578063a22cb46511610057578063a22cb46514610238578063b88d4fde14610257578063c87b56dd1461026a578063e985e9c51461028a575f80fd5b80636352211e146101d857806370a08231146101f757806395d89b4114610224575f80fd5b8063095ea7b3116100b7578063095ea7b31461017e57806323b872dd1461019357806342842e0e146101a65780634cd88b76146101b9575f80fd5b806301ffc9a7146100dd57806306fdde0314610111578063081812fc14610132575b5f80fd5b3480156100e8575f80fd5b506100fc6100f7366004610a6f565b6102d1565b60405190151581526020015b60405180910390f35b34801561011c575f80fd5b50610125610322565b6040516101089190610ad4565b34801561013d575f80fd5b5061016661014c366004610ae6565b5f908152600460205260409020546001600160a01b031690565b6040516001600160a01b039091168152602001610108565b61019161018c366004610b13565b6103b1565b005b6101916101a1366004610b3b565b6104a2565b6101916101b4366004610b3b565b6106c1565b3480156101c4575f80fd5b506101916101d3366004610c19565b6107ac565b3480156101e3575f80fd5b506101666101f2366004610ae6565b610829565b348015610202575f80fd5b50610216610211366004610c79565b610892565b604051908152602001610108565b34801561022f575f80fd5b50610125610904565b348015610243575f80fd5b50610191610252366004610c92565b610913565b610191610265366004610ccb565b61097e565b348015610275575f80fd5b50610125610284366004610ae6565b50606090565b348015610295575f80fd5b506100fc6102a4366004610d42565b6001600160a01b039182165f90815260056020908152604080832093909416825291909152205460ff1690565b5f6301ffc9a760e01b6001600160e01b03198316148061030157506380ac58cd60e01b6001600160e01b03198316145b8061031c5750635b5e139f60e01b6001600160e01b03198316145b92915050565b60605f805461033090610d73565b80601f016020809104026020016040519081016040528092919081815260200182805461035c90610d73565b80156103a75780601f1061037e576101008083540402835291602001916103a7565b820191905f5260205f20905b81548152906001019060200180831161038a57829003601f168201915b5050505050905090565b5f818152600260205260409020546001600160a01b0316338114806103f857506001600160a01b0381165f90815260056020908152604080832033845290915290205460ff165b61043a5760405162461bcd60e51b815260206004820152600e60248201526d1393d517d055551213d49256915160921b60448201526064015b60405180910390fd5b5f82815260046020526040808220805473ffffffffffffffffffffffffffffffffffffffff19166001600160a01b0387811691821790925591518593918516917f8c5be1e5ebec7d5bd14f71427d1e84f3dd0314c0f7b2291e5b200ac8c7c3b92591a4505050565b5f818152600260205260409020546001600160a01b0384811691161461050a5760405162461bcd60e51b815260206004820152600a60248201527f57524f4e475f46524f4d000000000000000000000000000000000000000000006044820152606401610431565b6001600160a01b0382166105605760405162461bcd60e51b815260206004820152601160248201527f494e56414c49445f524543495049454e540000000000000000000000000000006044820152606401610431565b336001600160a01b038416148061059957506001600160a01b0383165f90815260056020908152604080832033845290915290205460ff165b806105b957505f818152600460205260409020546001600160a01b031633145b6105f65760405162461bcd60e51b815260206004820152600e60248201526d1393d517d055551213d49256915160921b6044820152606401610431565b6001600160a01b0383165f90815260036020526040812080549161061983610dbf565b90915550506001600160a01b0382165f90815260036020526040812080549161064183610dd4565b90915550505f81815260026020908152604080832080546001600160a01b0380881673ffffffffffffffffffffffffffffffffffffffff1992831681179093556004909452828520805490911690559051849391928716917fddf252ad1be2c89b69c2b068fc378daa952ba7f163c4a11628f55a4df523b3ef91a4505050565b6106cc8383836104a2565b813b15806107685750604051630a85bd0160e11b8082523360048301526001600160a01b03858116602484015260448301849052608060648401525f608484015290919084169063150b7a029060a4016020604051808303815f875af1158015610738573d5f803e3d5ffd5b505050506040513d601f19601f8201168201806040525081019061075c9190610dec565b6001600160e01b031916145b6107a75760405162461bcd60e51b815260206004820152601060248201526f155394d0519157d49150d2541251539560821b6044820152606401610431565b505050565b60065460ff16156107ff5760405162461bcd60e51b815260206004820152601360248201527f414c52454144595f494e495449414c495a4544000000000000000000000000006044820152606401610431565b5f61080a8382610e52565b5060016108178282610e52565b50506006805460ff1916600117905550565b5f818152600260205260409020546001600160a01b03168061088d5760405162461bcd60e51b815260206004820152600a60248201527f4e4f545f4d494e544544000000000000000000000000000000000000000000006044820152606401610431565b919050565b5f6001600160a01b0382166108e95760405162461bcd60e51b815260206004820152600c60248201527f5a45524f5f4144445245535300000000000000000000000000000000000000006044820152606401610431565b506001600160a01b03165f9081526003602052604090205490565b60606001805461033090610d73565b335f8181526005602090815260408083206001600160a01b03871680855290835292819020805460ff191686151590811790915590519081529192917f17307eab39ab6107e8899845ad3d59bd9653f200f220920489ca2b5937696c31910160405180910390a35050565b6109898484846104a2565b823b1580610a125750604051630a85bd0160e11b808252906001600160a01b0385169063150b7a02906109c6903390899088908890600401610f12565b6020604051808303815f875af11580156109e2573d5f803e3d5ffd5b505050506040513d601f19601f82011682018060405250810190610a069190610dec565b6001600160e01b031916145b610a515760405162461bcd60e51b815260206004820152601060248201526f155394d0519157d49150d2541251539560821b6044820152606401610431565b50505050565b6001600160e01b031981168114610a6c575f80fd5b50565b5f60208284031215610a7f575f80fd5b8135610a8a81610a57565b9392505050565b5f81518084525f5b81811015610ab557602081850181015186830182015201610a99565b505f602082860101526020601f19601f83011685010191505092915050565b602081525f610a8a6020830184610a91565b5f60208284031215610af6575f80fd5b5035919050565b80356001600160a01b038116811461088d575f80fd5b5f8060408385031215610b24575f80fd5b610b2d83610afd565b946020939093013593505050565b5f805f60608486031215610b4d575f80fd5b610b5684610afd565b9250610b6460208501610afd565b9150604084013590509250925092565b634e487b7160e01b5f52604160045260245ffd5b5f67ffffffffffffffff80841115610ba257610ba2610b74565b604051601f8501601f19908116603f01168101908282118183101715610bca57610bca610b74565b81604052809350858152868686011115610be2575f80fd5b858560208301375f602087830101525050509392505050565b5f82601f830112610c0a575f80fd5b610a8a83833560208501610b88565b5f8060408385031215610c2a575f80fd5b823567ffffffffffffffff80821115610c41575f80fd5b610c4d86838701610bfb565b93506020850135915080821115610c62575f80fd5b50610c6f85828601610bfb565b9150509250929050565b5f60208284031215610c89575f80fd5b610a8a82610afd565b5f8060408385031215610ca3575f80fd5b610cac83610afd565b915060208301358015158114610cc0575f80fd5b809150509250929050565b5f805f8060808587031215610cde575f80fd5b610ce785610afd565b9350610cf560208601610afd565b925060408501359150606085013567ffffffffffffffff811115610d17575f80fd5b8501601f81018713610d27575f80fd5b610d3687823560208401610b88565b91505092959194509250565b5f8060408385031215610d53575f80fd5b610d5c83610afd565b9150610d6a60208401610afd565b90509250929050565b600181811c90821680610d8757607f821691505b602082108103610da557634e487b7160e01b5f52602260045260245ffd5b50919050565b634e487b7160e01b5f52601160045260245ffd5b5f81610dcd57610dcd610dab565b505f190190565b5f60018201610de557610de5610dab565b5060010190565b5f60208284031215610dfc575f80fd5b8151610a8a81610a57565b601f8211156107a757805f5260205f20601f840160051c81016020851015610e2c5750805b601f840160051c820191505b81811015610e4b575f8155600101610e38565b5050505050565b815167ffffffffffffffff811115610e6c57610e6c610b74565b610e8081610e7a8454610d73565b84610e07565b602080601f831160018114610eb3575f8415610e9c5750858301515b5f19600386901b1c1916600185901b178555610f0a565b5f85815260208120601f198616915b82811015610ee157888601518255948401946001909101908401610ec2565b5085821015610efe57878501515f19600388901b60f8161c191681555b505060018460011b0185555b505050505050565b5f6001600160a01b03808716835280861660208401525083604083015260806060830152610f436080830184610a91565b969550505050505056fea2646970667358221220ffeecbddc0492d5e2be8bab4a2dda06e776a009e8ed1fb98a03bbf5207fd611d64736f6c63430008180033","linkReferences":{}},"methodIdentifiers":{"approve(address,uint256)":"095ea7b3","balanceOf(address)":"70a08231","getApproved(uint256)":"081812fc","initialize(string,string)":"4cd88b76","isApprovedForAll(address,address)":"e985e9c5","name()":"06fdde03","ownerOf(uint256)":"6352211e","safeTransferFrom(address,address,uint256)":"42842e0e","safeTransferFrom(address,address,uint256,bytes)":"b88d4fde","setApprovalForAll(address,bool)":"a22cb465","supportsInterface(bytes4)":"01ffc9a7","symbol()":"95d89b41","tokenURI(uint256)":"c87b56dd","transferFrom(address,address,uint256)":"23b872dd"},"id":22}