{"abi":[{"type":"function","name":"DYNAMIC_FEE_FLAG","inputs":[],"outputs":[{"name":"","type":"uint24","internalType":"uint24"}],"stateMutability":"view"},{"type":"function","name":"ONE_HUNDRED_PERCENT_FEE","inputs":[],"outputs":[{"name":"","type":"uint24","internalType":"uint24"}],"stateMutability":"view"},{"type":"function","name":"STATIC_FEE_MASK","inputs":[],"outputs":[{"name":"","type":"uint24","internalType":"uint24"}],"stateMutability":"view"},{"type":"function","name":"TEN_PERCENT_FEE","inputs":[],"outputs":[{"name":"","type":"uint24","internalType":"uint24"}],"stateMutability":"view"}],"bytecode":{"object":"0x60c6610034600b8282823980515f1a60731461002857634e487b7160e01b5f525f60045260245ffd5b305f52607381538281f3fe73000000000000000000000000000000000000000030146080604052600436106050575f3560e01c80636f3888f5146054578063c1d217e9146075578063c7a97b4e14607e578063f26ef49d146087575b5f80fd5b605d620f424081565b60405162ffffff909116815260200160405180910390f35b605d620186a081565b605d620fffff81565b605d628000008156fea26469706673582212200c92f02692c8a808a27bca719f5a33e27e0a2444f3e9eb07d194b59c698f6a6464736f6c63430008180033","linkReferences":{}},"methodIdentifiers":{"DYNAMIC_FEE_FLAG()":"f26ef49d","ONE_HUNDRED_PERCENT_FEE()":"6f3888f5","STATIC_FEE_MASK()":"c7a97b4e","TEN_PERCENT_FEE()":"c1d217e9"},"id":56}