{"abi":[{"type":"constructor","inputs":[{"name":"_DOMAIN_SEPARATOR","type":"bytes32","internalType":"bytes32"}],"stateMutability":"nonpayable"},{"type":"function","name":"PERMIT_TYPEHASH","inputs":[],"outputs":[{"name":"","type":"bytes32","internalType":"bytes32"}],"stateMutability":"view"},{"type":"function","name":"getTypedDataHash","inputs":[{"name":"_permit","type":"tuple","internalType":"struct SigUtils.Permit","components":[{"name":"owner","type":"address","internalType":"address"},{"name":"spender","type":"address","internalType":"address"},{"name":"value","type":"uint256","internalType":"uint256"},{"name":"nonce","type":"uint256","internalType":"uint256"},{"name":"deadline","type":"uint256","internalType":"uint256"}]}],"outputs":[{"name":"","type":"bytes32","internalType":"bytes32"}],"stateMutability":"view"}],"bytecode":{"object":"0x608060405234801561000f575f80fd5b5060405161028e38038061028e83398101604081905261002e91610035565b5f5561004c565b5f60208284031215610045575f80fd5b5051919050565b610235806100595f395ff3fe608060405234801561000f575f80fd5b5060043610610034575f3560e01c806330adf81f14610038578063ba20b89d14610071575b5f80fd5b61005f7f6e71edae12b1b97f4d1f60370fef10105fa2faae0126114a169c64845d6126c981565b60405190815260200160405180910390f35b61005f61007f366004610179565b5f805461008b836100c7565b60405161190160f01b6020820152602281019290925260428201526062015b604051602081830303815290604052805190602001209050919050565b80516020808301516040808501516060860151608087015192515f966100aa967f6e71edae12b1b97f4d1f60370fef10105fa2faae0126114a169c64845d6126c9969195919493920195865273ffffffffffffffffffffffffffffffffffffffff94851660208701529290931660408501526060840152608083019190915260a082015260c00190565b803573ffffffffffffffffffffffffffffffffffffffff81168114610174575f80fd5b919050565b5f60a08284031215610189575f80fd5b60405160a0810181811067ffffffffffffffff821117156101b857634e487b7160e01b5f52604160045260245ffd5b6040526101c483610151565b81526101d260208401610151565b6020820152604083013560408201526060830135606082015260808301356080820152809150509291505056fea26469706673582212204c026b17d9d463896f245aec8f3bcba80add802b9b194d16e24d7cbda442c03864736f6c63430008180033","linkReferences":{}},"methodIdentifiers":{"PERMIT_TYPEHASH()":"30adf81f","getTypedDataHash((address,address,uint256,uint256,uint256))":"ba20b89d"},"id":110}